:020000040800F2
:100000008867002001B500087DAE00087FAE0008BB
:1000100081AE000883AE000885AE00080000000035
:10002000000000000000000000000000F17E000859
:1000300087AE000800000000997E0008ED5C000813
:1000400085B5000889B500088DB5000891B5000890
:1000500095B5000899B500089DB50008A1B5000840
:10006000A5B50008A9B50008ADB5000889AE00081F
:10007000B1B50008B5B50008B9B50008BDB50008B0
:10008000C1B50008C5B50008C9B50008CDB5000860
:10009000D1B50008D5B50008D9B50008DDB5000810
:1000A000E1B50008E5B50008E9B50008EDB50008C0
:1000B000F1B50008F5B50008F9B50008FDB5000870
:1000C00001B6000805B6000809B600080DB600081C
:1000D00011B6000893AE000815B6000819B600085E
:1000E0001DB6000821B6000825B6000829B600088C
:1000F0002DB6000831B6000835B6000839B600083C
:100100000000000000000000000000003DB60008F4
:1001100041B6000845B60008E3AE00081BAF000872
:1001200025AF00082FAF000849B600084DB60008FB
:1001300051B6000855B6000800000000000000009D
:1001400059B600085DB6000861B60008000000005E
:10015000000000000000000000000000000000009F
:10016000000000000000000065B6000869B6000845
:100170006DB6000800000000000000000000000054
:100180000000000071B600085E4B03605E48086026
:1001900080201060704780B58EB007A85B491C2294
:1001A00001F042F9002107A801F0AEF958490860B2
:1001B000684658491C2201F037F90021684601F0D1
:1001C000A3F9554908600FB000BD80B50122102188
:1001D000524801F04BFB00228021514801F046FBC0
:1001E00050480169504A1160816A504A1160016C9F
:1001F0004F4A11604F49826D0A60026F4E4B1A6080
:10020000D0F888204D4B1A60D0F8A0204C4B1A60D3
:10021000D0F8B8204B4B1A60D0F8D0204A4B1A6067
:10022000D0F8E820494B1A60D0F80021484B1A60FA
:10023000D0F81821474B1A60D0F83021464B1A608D
:10024000D0F84821454B1A60D0F86021444B1A6021
:10025000D0F87821434B1A60D0F89021424B1A60B5
:10026000D0F8A821414B1A60D0F8C0210A60D0F81C
:10027000D8113F4A1160D0F8F0113E4A1160D0F811
:1002800008123D4A1160D0F820123C4A1160D0F8A3
:1002900038023B4908600A223A493B4801F07AFC9F
:1002A00002223A493A4801F075FC012239493A489C
:1002B00001F070FC00224FF400415FF0904001F02B
:1002C000D5FA642304223549354802F067F9012242
:1002D0004FF400415FF0904001F0C8FA012001F0B6
:1002E00042F9E7E780B50F48002100910368032237
:1002F0004168C9B2002002F0C5FD02F010FE02F014
:100300001EFEFCE7D45800207853002070B200088D
:10031000E05E00208CB20008E45E0020000400488B
:10032000000C004818510020340000403800004004
:1003300034080040400800403C08004034040040BD
:10034000380400403C040040400400403440014078
:10035000384001403444014034480140342C0140CD
:10036000382C01403C2C01403C0000404000004043
:1003700034340140383401403C34014040340140C1
:10038000402C0140585E002028590020DC5E0020EF
:10039000785900203C5E0020C85900200000002051
:1003A0000C58002070470020C0B2704718B5ADF55A
:1003B000157D00240A0092B2002A00D0491EDBB24B
:1003C000002B04D0012B00F0B38201F00DB889B2EC
:1003D000002900F0D380022900F0D280C0F0CF8045
:1003E000042900F0CF80C0F0CC80062900F0CC803A
:1003F000C0F0C980082900F0C980C0F0C6800A2971
:1004000000F0C680C0F0C3800C2900F0D380C0F09B
:10041000C8800E2900F0E080C0F0D580102900F0DF
:10042000ED80C0F0E280122900F0FA80C0F0EF8089
:10043000142900F00781C0F0FC80162900F0148117
:10044000C0F00981182900F02181C0F016811A2915
:1004500000F02E81C0F023811C2900F03B81C0F008
:1004600030811E2900F04881C0F03D81202900F034
:100470005581C0F04A81222900F06281C0F0578185
:10048000242900F06D81C0F06481262900F0768176
:10049000C0F06D81282900F07F81C0F076812A2983
:1004A00000F08881C0F07F812C2900F09181C0F09C
:1004B00088812E2900F09A81C0F09181302900F0C6
:1004C000A381C0F09A81322900F0AC81C0F0A381F1
:1004D000342900F0B981C0F0AC81362900F0CA811E
:1004E000C0F0BD81382900F0DB81C0F0CE813A290F
:1004F00000F0EC81C0F0DF813C2900F0FD81C0F00C
:10050000F0813E2900F0FA81C0F0F781402900F027
:10051000F781C0F0F481422900F0F481C0F0F1814C
:10052000442900F0F181C0F0EE81462900F0EE810F
:10053000C0F0EB81482900F0EB81C0F0E8814A2946
:1005400000F0E881C0F0E5814C2900F0E581C0F0C1
:10055000E2814E2900F0E281C0F0DF81502900F0F5
:10056000DF81C0F0DC81522900F0DC81C0F0D9814C
:10057000542900F0D981C0F0D681D6E1D6E1D5E189
:10058000D4E1D3E1D2E1D1E1D0E1CFE1CEE1CDE1DF
:10059000DFF8C41A09680A0092B2120A02704170A8
:1005A000C4E1DFF8B81A09680A0092B2120A0270B0
:1005B0004170BBE1DFF8A81A09680A0092B2120A7A
:1005C00002704170B2E1DFF89C1A09680A0092B229
:1005D000120A02704170A9E1DFF88C1A09680A005A
:1005E00092B2120A02704170A0E1DFF8801A096825
:1005F0000A0092B2120A0270417097E1DFF8701A95
:1006000009680A0092B2120A027041708EE1DFF8A6
:10061000641A09680A0092B2120A0270417085E1F8
:10062000DFF8541A09680A0092B2120A0270417087
:100630007CE1DFF8481A09680A0092B2120A0270D7
:10064000417073E1DFF8381A09680A0092B2120AA1
:10065000027041706AE1DFF82C1A09680A0092B250
:10066000120A0270417061E1DFF81C1A09680A0081
:1006700092B2120A0270417058E1DFF8101A09684C
:100680000A0092B2120A027041704FE1DFF8001ABC
:1006900009680A0092B2120A0270417046E1DFF85E
:1006A000F41909680A0092B2120A027041703DE121
:1006B000DFF8E41909680A0092B2120A0270417068
:1006C00034E1DFF8D81909680A0092B2120A027000
:1006D00041702BE1DFF88C1909680A0092B2120A06
:1006E0000270417022E1DFF8B81909680A0092B27D
:1006F000120A0270417019E1DFF8A81909680A00AE
:1007000092B2120A0270417010E1DFF89C19096878
:100710000A0092B2120A0270417007E1DFF88C19E8
:1007200009680A0092B2120A02704170FEE0DFF816
:10073000801909680A0092B2120A02704170F5E04D
:10074000DFF86C1909680A0092B2120A027041704F
:10075000ECE000210A0092B2120A02704170E5E05A
:1007600000210A0092B2120A02704170DEE00021FC
:100770000A0092B2120A02704170D7E000210A000A
:1007800092B2120A02704170D0E000210A0092B2C7
:10079000120A02704170C9E000210A0092B2120AE6
:1007A00002704170C2E000210A0092B2120A027087
:1007B0004170BBE000210A0092B2120A027041703F
:1007C000B4E000210A0092B2120A02704170ADE05A
:1007D00000210A0092B2120A02704170A6E00021C4
:1007E0000A0092B2120A027041709FE000210A00D2
:1007F00092B2120A0270417098E000210A0092B28F
:10080000120A0270417091E000210A0092B2120AAD
:10081000027041708AE000210A0092B2120A02704E
:10082000417083E000210A0092B2120A0270417006
:100830007CE0DFF8C01B096811F400410A0092B2A5
:10084000120A0270417071E0DFF8A81B096811F408
:1008500080410A0092B2120A0270417066E0DFF82D
:10086000941B096811F400510A0092B2120A027036
:1008700041705BE0DFF87C1B096811F480510A00CD
:1008800092B2120A0270417050E0DFF8681B0968EA
:1008900011F400610A0092B2120A0270417045E040
:1008A000DFF8501B096811F480610A0092B2120A45
:1008B000027041703AE0DFF83C1B096811F40071E6
:1008C0000A0092B2120A027041702FE0DFF8241B76
:1008D000096811F480710A0092B2120A0270417024
:1008E00024E0DFF8101B097811F080010A0092B2B1
:1008F000120A0270417019E018E017E016E015E0E6
:1009000014E013E012E011E010E00FE00EE00DE063
:100910000CE00BE00AE009E008E007E006E005E093
:1009200004E003E002E001E000E0012400F05DBD2E
:1009300089B2002900F0D480022900F0D580C0F0EF
:10094000D180042900F0D480C0F0D080062900F0C6
:10095000D380C0F0CF80082900F0D280C0F0CE80D4
:100960000A2900F0DF80C0F0DB800C2900F0108144
:10097000C0F0F3800E2900F04081C0F024811029DE
:1009800000F07081C0F05381122900F0A181C0F005
:100990008481142900F0D281C0F0B581162900F0BD
:1009A0000182C0F0E581182900F03082C0F0148285
:1009B0001A2900F05F82C0F043821C2900F08E8269
:1009C000C0F072821E2900F0BD82C0F0A1822029F1
:1009D00000F0EC82C0F0D082222900F01F83C0F02A
:1009E000FF82242900F07783C0F06483262900F079
:1009F0009483C0F08183282900F0AF83C0F09E83E8
:100A00002A2900F0C883C0F0B7832C2900F0E183C5
:100A1000C0F0D0832E2900F0FA83C0F0E98330299A
:100A200000F01384C0F00284322900F02C84C0F05E
:100A30001B84342900F04584C0F03484362900F04A
:100A40005E84C0F04D84382900F07784C0F066845D
:100A50003A2900F09084C0F07F843C2900F0A984FA
:100A6000C0F098843E2900F0A684C0F0A3844029F9
:100A700000F0A384C0F0A084422900F0A084C0F05C
:100A80009D84442900F09D84C0F09A84462900F09A
:100A90009A84C0F09784482900F09784C0F0948429
:100AA0004A2900F09484C0F091844C2900F091848C
:100AB000C0F08E844E2900F08E84C0F08B845029C3
:100AC00000F08B84C0F08884522900F08884C0F044
:100AD0008584542900F08584C0F0828400F082BCB3
:100AE00000F081BC00F07FBC00F07DBC00F07BBC5E
:100AF00000F079BC00F077BC00F075BC00F073BC6E
:100B0000DFF8F41883B068464FF4187200F08CFCDC
:100B10000EBCDFF8E808006802F0BBFA00F063BC26
:100B200000F061BC0021027851EA022140780143C3
:100B3000080080B200280ED0080080B240F2E932EE
:100B4000904208DA080080B2DFF80C25106089B204
:100B5000DFF8A408016100F046BC0021027851EAE8
:100B6000022140780143080080B200280ED008001E
:100B700080B240F2E932904208DA080080B2DFF831
:100B8000DC24106089B2DFF87008816200F02BBCB1
:100B90000021027851EA022140780143080080B226
:100BA00000280ED0080080B240F2E932904208DA04
:100BB000080080B2DFF8A824106089B2DFF8380896
:100BC000016400F010BC0021027851EA0221407853
:100BD0000143080080B200280ED0080080B240F225
:100BE000E932904208DA080080B2DFF87824106019
:100BF00089B2DFF804088165F5E30021027851EA43
:100C0000022140780143080080B200280ED008007D
:100C100080B240F2E932904208DA080080B2DFF890
:100C20004824106089B2DFF8D0070167DBE30021B8
:100C3000027851EA022140780143080080B200287E
:100C40000FD0080080B240F2E932904209DA080081
:100C500080B2DFF81824106089B2DFF89C07C0F872
:100C60008810C0E30021027851EA02214078014354
:100C7000080080B200280FD0080080B240F2E932AC
:100C8000904209DA080080B2DFF8E423106089B2EC
:100C9000DFF86407C0F8A010A5E30021027851EA4C
:100CA000022140780143080080B200280FD00800DC
:100CB00080B240F2E932904209DA080080B2DFF8EF
:100CC000B423106089B2DFF83007C0F8B8108AE3A7
:100CD0000021027851EA022140780143080080B2E5
:100CE00000280FD0080080B240F2E932904209DAC1
:100CF000080080B2DFF88023106089B2DFF8F806C0
:100D0000C0F8D0106FE30021027851EA0221407848
:100D10000143080080B200280FD0080080B240F2E2
:100D2000E932904209DA080080B2DFF850231060FF
:100D300089B2DFF8C406C0F8E81054E30021027855
:100D400051EA022140780143080080B200280ED009
:100D5000080080B240F2E932904208DA080080B21E
:100D6000C74A106089B2DFF89006C0F800113AE374
:100D70000021027851EA022140780143080080B244
:100D800000280ED0080080B240F2E932904208DA22
:100D9000080080B2BB4A106089B2DFF85C06C0F878
:100DA000181120E30021027851EA02214078014322
:100DB000080080B200280ED0080080B240F2E9326C
:100DC000904208DA080080B2AF4A106089B2DFF8BA
:100DD0002806C0F8301106E30021027851EA02210A
:100DE00040780143080080B200280ED0080080B28D
:100DF00040F2E932904208DA080080B2A34A10605B
:100E000089B2DFF8F405C0F84811ECE2002102785D
:100E100051EA022140780143080080B200280ED038
:100E2000080080B240F2E932904208DA080080B24D
:100E3000974A106089B2DFF8C005C0F86011D2E2AD
:100E40000021027851EA022140780143080080B273
:100E500000280ED0080080B240F2E932904208DA51
:100E6000080080B28B4A106089B2DFF88C05C0F8A8
:100E70007811B8E20021027851EA0221407801435A
:100E8000080080B200280ED0080080B240F2E9329B
:100E9000904208DA080080B27F4A106089B2DFF819
:100EA0005805C0F890119EE20021027851EA022113
:100EB00040780143080080B200280ED0080080B2BC
:100EC00040F2E932904208DA080080B2734A1060BA
:100ED00089B2DFF82405C0F8A81184E20021027865
:100EE00051EA022140780143080080B200280ED068
:100EF000080080B240F2E932904208DA080080B27D
:100F0000584A106089B2DFF8F004C0F8C0116AE2F4
:100F10000021027851EA022140780143080080B2A2
:100F200000280ED0080080B240F2E932904208DA80
:100F3000080080B25A4A106089B2DFF8BC04C0F8D9
:100F4000D81150E20021027851EA02214078014391
:100F5000080080B200280ED0080080B240F2E932CA
:100F6000904208DA080080B24E4A106089B2DFF879
:100F70008804C0F8F01136E20021027851EA02211B
:100F800040780143080080B200280ED0080080B2EB
:100F900040F2E932904208DA080080B2424A10601A
:100FA00089B2DFF85404C0F808121CE2002102786C
:100FB00051EA022140780143080080B200280ED097
:100FC000080080B240F2E932904208DA080080B2AC
:100FD000364A106089B2DFF82004C0F8201202E21D
:100FE0000021027851EA022140780143080080B2D2
:100FF000002812D0080080B240F2E93290420CDAA8
:10100000080080B22A4A1060DFF8EC030A0092B2AE
:10101000C0F8382289B2C0F85012E4E10021027809
:1010200051EA022140780143080080B2002812D022
:10103000080080B240F2E93290420CDA080080B237
:101040001B4A1060DFF8B0030A0092B2C0F83822E1
:1010500089B2C0F85012C6E13400004038000040A8
:1010600034080040400800403C0800403404004080
:10107000380400403C04004040040040344001403B
:10108000384001403444014034480140342C014090
:10109000382C01403C2C01403C0000404000004006
:1010A00034340140383401403C3401404034014084
:1010B000402C01404078002806D1DFF83803016851
:1010C00051F00041016005E0DFF82803016821F0DC
:1010D0000041016087E14078002806D1DFF8140361
:1010E000016851F08041016005E0DFF80803016804
:1010F00031F08041016076E14078002806D1DFF8C8
:10110000F402016851F00051016005E0DFF8E402EB
:10111000016831F00051016065E14078002806D196
:10112000DFF8D002016851F08051016005E0DFF87E
:10113000C402016831F08051016054E14078002818
:1011400005D1AC48016851F00061016004E0A94894
:10115000016831F00061016045E14078002805D167
:10116000A448016851F08061016004E0A148016871
:1011700031F08061016036E14078002805D19D485A
:10118000016851F00071016004E09A48016831F093
:101190000071016027E14078002805D19548016879
:1011A00051F08071016004E09248016831F0807173
:1011B000016018E14078002805D18E48016851F49B
:1011C0000001016004E08B48016831F40001016016
:1011D00009E14078002805D18648016851F4800172
:1011E000016004E08348016831F480010160FAE0A5
:1011F0004078002805D17F48016851F40011016052
:1012000004E07C48016831F400110160EBE04078B3
:10121000002805D17748016851F48011016004E08D
:101220007448016831F480110160DCE040780028E6
:1012300005D17048016851F40021016004E06D4857
:10124000016831F400210160CDE04078002805D12B
:101250006848016851F48021016004E06548016834
:1012600031F480210160BEE04078002805D161485A
:10127000016851F40031016004E05E48016831F416
:1012800000310160AFE04078002805D1594801687D
:1012900051F48031016004E05648016831F4803136
:1012A0000160A0E04078002805D15248016851F45F
:1012B0000041016004E04F48016831F400410160E1
:1012C00091E04078002805D14A48016851F48041F6
:1012D000016004E04748016831F48041016082E028
:1012E0004078002805D14348016851F4005101605D
:1012F00004E04048016831F40051016073E0407837
:10130000002805D13B48016851F48051016004E098
:101310003848016831F48051016064E04078002869
:1013200005D13448016851F40061016004E031489E
:10133000016831F40061016055E04078002805D172
:101340002C48016851F48061016004E0294801687B
:1013500031F48061016046E04078002805D12548DD
:10136000016851F40071016004E02248016831F421
:101370000071016037E04078002805D11D48016800
:1013800051F48071016004E01A48016831F4807101
:10139000016028E04078002805D11648016851F026
:1013A0008001016004E01348016831F080010160B0
:1013B00019E018E017E016E015E014E013E012E081
:1013C00011E010E00FE00EE00DE00CE00BE00AE0B1
:1013D00009E008E007E006E005E004E003E002E0E1
:1013E00001E000E0012400E002242000C0B20DF57D
:1013F000167D10BD0000002018510020F85E00206E
:10140000012070470120704762B38B0708D0521E3D
:1014100011F8013B00F8013B00F024808B07F6D166
:10142000830740F0208000BF103A07D330B4B1E802
:101430003810103AA0E83810F9D230BC530724BF56
:10144000B1E80810A0E8081044BF51F8043B40F888
:10145000043BD20724BF31F8022B20F8022B44BFF3
:101460000B7803707047121F17D35B0009D151F836
:10147000043B20F8023B1B0C121F20F8023BF6D263
:101480000BE051F8043B00F8013B1B0A20F8023B3B
:101490001B0C121F00F8013BF3D238BF121D521E65
:1014A00024BF11F8013B00F8013BF8D8704730B475
:1014B000002513E050F8042BD30744BFA9F1010322
:1014C0009A18091F042942F8045BFAD213468C07C4
:1014D00044BF15809B1CC90748BF1D7050F8041BF2
:1014E0000029E7D130BC7047010000200A0012B289
:1014F000842A03D009B2C91C09180800704780B5B6
:1015000002F040FB002002BD38B584B004000D009D
:101510006069002815D0A069002812D0B4F908002D
:10152000FFF7E2FFA16902916169019100902B0030
:1015300022692168606802F0E3F90390039805B01E
:1015400030BDB4F90800FFF7CFFF03A90191009067
:101550002B00226992B22168606802F012FA012819
:10156000ECD00020EBE780B50121B0FBF1F00028C2
:1015700000D1012002F0E0FA002002BDF8B4020020
:10158000002433E0052704E0DFF8F4329A42F9D171
:10159000042714F00303DBB29B009F403E4323006B
:1015A0009B0845F82360DFF8DC522B6883434E68C4
:1015B000F60300D503432B60B34D2B6883434E687D
:1015C000B60300D503432B60B04D2B6883434E68B0
:1015D000F60200D503432B60AD4D2B6883434E6864
:1015E000B60201D5184303002B60641C0868E04074
:1015F000002800F097800125086815FA04F31840C8
:101600000028F2D00B7913F00303012B04D00B79DF
:1016100013F00303022B16D1966803272300DBB2D5
:101620005B009F40BE43CF682300DBB25B009F405E
:101630003E4396605368A540AB434D68C5F3001523
:10164000A5402B4353600B7913F00303032B0DD0FC
:10165000D56803262300DBB25B009E40B5438E684D
:101660002300DBB25B009E403543D5600B7913F05D
:101670000303022B17D12300DB0802EB83031D6A4F
:101680000F2614F00703DBB29B009E40B5430E69A2
:1016900014F00703DBB29B009E4035432300DB08B8
:1016A00002EB83031D62156803262300DBB25B0097
:1016B0009E40B5430E7916F003062300DBB25B00B3
:1016C0009E40354315604B6813F4403F8DD0714BFD
:1016D0001D6855F001051D601B6813F001030093A0
:1016E000009B6D4D23009B0855F823600F2714F0D5
:1016F0000303DBB29B009F40BE43B2F1904F01D188
:10170000002746E7654B9A4201D1012741E7644B28
:101710009A4201D102273CE7624B9A427FF434AFF0
:10172000032736E7F1BC7047F0B5020000246BE0F8
:101730005FF0050E04E0524B9A42F9D15FF0040EBF
:1017400014F00303DBB29B001EFA03FEF4452AD11A
:101750004C4BD3F800C03CEA000CC3F800C04A4B25
:10176000D3F800C03CEA000CC3F800C0474BD3F8E4
:1017700000C03CEA000CC3F800C0454BD3F800C0E1
:101780003CEA0000186014F00300C0B2800015FAB3
:1017900000F023009B0857F8233033EA00002300B1
:1017A0009B0847F82300032310682700FFB27F003F
:1017B00013FA07F7B84310602000C00802EB800757
:1017C0002000C00802EB8000D0F820C014F0070011
:1017D000C0B2800085403CEA05053D62D068250026
:1017E000EDB26D0013FA05F5A843D0605068A6402D
:1017F00030EA0606566095682000C0B2400083407B
:1018000035EA03039360641C0800E04000282CD0F4
:10181000012616FA04F008400028F4D01E4F2300D9
:101820009B0857F823C00F2514F00303DBB29B007D
:1018300015FA03F313EA0C0CB2F1904F02D15FF0EA
:10184000000E7DE7154B9A4202D15FF0010E77E75B
:10185000134B9A4202D15FF0020E71E7114B9A428C
:101860007FF469AF5FF0030E6AE7F0BDD2B2002AE1
:1018700002D089B2816101E089B2816270470000C3
:101880000010004800040140040401400804014025
:101890000C040140181002400800014000040048F8
:1018A00000080048000C004878B595B004000025F9
:1018B000002600200090002C01D101205AE120696F
:1018C000002802D094F820000028206CC00653D4D1
:1018D000206C00283DD1002060640020E0640020DE
:1018E000A064002084F83C00200002F0A7FD2068DE
:1018F0008068C0002DD4200000F07CFD0500206C25
:10190000C00626D42800C0B2002822D1206C30F4B2
:10191000885050F0020020642068806830F0405009
:10192000216888602068806850F080502168886055
:10193000DFF844020068DFF84412B0FBF1F10A203E
:101940004143009102E00098401E0090009800285A
:10195000F9D120688068C00003D5206880688000C5
:101960000AD5206C30F0020050F010002064606C4A
:1019700050F0010060640125206CC00600F1F18088
:101980002800C0B2002840F0EC8020688068400742
:1019900000F1E780206C30F4807050F00200206489
:1019A0002068B0F1A04F04D02068DFF8D41188423D
:1019B00002D1DFF8D01101E0DFF8CC112068B0F1DE
:1019C000A04F04D1DFF8B801019001981EE0206813
:1019D000DFF8AC21904204D15FF0A0400190019863
:1019E00014E0DFF8A8012268824204D1DFF8A001E8
:1019F000019001980AE02268DFF894319A4202D1FE
:101A00000190019802E00020019001982068806810
:101A100010F00300012804D12068006810F00100D4
:101A200000E00020002816D1019800280DD0019870
:101A3000806810F00300012804D10198006810F0BC
:101A4000010000E00020002805D18A6832F440320D
:101A5000606802438A60606B012802D04FF48051B5
:101A600000E00021607E51EA4031E0680143A06857
:101A700001430E4394F82000012813D1607E002812
:101A800006D1606A401E400450F48030064309E0ED
:101A9000206C30F0020050F020002064606C50F0A8
:101AA00001006064A06A012824D02068DFF8DC10FF
:101AB000884204D02068DFF8D810884216D1A06A86
:101AC000B0F5307F02D14FF4E07110E0A06AB0F5BC
:101AD000807F02D14FF4307109E0A06AB0F5E07F59
:101AE00002D14FF4807102E0A16A00E0A16AE06ACD
:101AF00001430E432068806810F00C0F0DD1206860
:101B0000C168DFF81C0201402068C160207E94F8A3
:101B10003010490051EA80310E432068C168DFF877
:101B2000040201400E432068C6602069012809D1E3
:101B30002068006B00090001E169491E0843216823
:101B4000086305E02068006B000900012168086354
:101B500000206064206C30F0020050F0010020642E
:101B600006E0206C30F0020050F0100020640125E7
:101B70002800C0B216B070BD9000002040420F0097
:101B80000001005000030050000700500004005006
:101B900000050050F8B504000D0016000020206874
:101BA0008068400700F1B78094F83C00012801D11B
:101BB0000220B3E0012084F83C002068B0F1A04F7F
:101BC00004D02068DFF87411884204D157480068B7
:101BD00010F01F0003E05648006810F01F000028B6
:101BE00040F09480200000F0C2FB07003800C0B233
:101BF000002840F08780216C4B48014051F48071EF
:101C000021642068B0F1A04F04D02068DFF82C11C7
:101C1000884204D14548006810F01F0003E04448A2
:101C2000006810F01F00002808D02068B0F1A04F15
:101C300004D02068DFF8081188420ED1206C30F4FF
:101C4000801020642068C068800124D5206C30F4A6
:101C5000005050F4805020641DE0206C50F480103F
:101C600020642068B0F1A04F04D02068DFF8CC10C9
:101C7000884204D12F48006810F0007003E02E481D
:101C8000006810F00070002805D0206C30F400507F
:101C900050F480502064206CC00404D5606C30F097
:101CA0000600606401E000206064002084F83C00CD
:101CB000DFF89000A16B8862DFF88C00A16BC8622E
:101CC000DFF88800A16B08631C2021680860206889
:101CD000406850F01000216848602068C06850F0EB
:101CE00001002168C86033002A00206810F140011B
:101CF000A06B02F016FD2068806850F00400216897
:101D0000886009E0002084F83C0005E001270020FD
:101D100084F83C0000E002273800C0B2F2BD0000A9
:101D2000FDBFFFFF07C0F0FFFEF1FFFF08030050FB
:101D3000080700500C0000500C0400500001005037
:101D400000040050012300084B230008552300081D
:101D500070B495B002000B00002100200090D868FC
:101D60000128FFD192F83C00012801D1022003E2B2
:101D7000012082F83C0010688068400700F1F28181
:101D80005868052811D206201468246B1F255E6848
:101D90004643B540AC431D685E6800FB06F015FA8B
:101DA00000F020431468206340E058680A2813D2EA
:101DB00006241068456B1F265868401F10FB04F06E
:101DC0008640B5431E685868401F10FB04F08640EB
:101DD00035431068456329E058680F2813D206245C
:101DE0001068856B1F2658680A3810FB04F086407F
:101DF000B5431E6858680A3810FB04F08640354326
:101E00001068856312E006241068C56B1F265868A9
:101E10000F3810FB04F08640B5431E6858680F3831
:101E200010FB04F0864035431068C5631068806875
:101E300010F00C0F40F0AB8018680A2814D310681B
:101E40008469072518680A38032610FB06F08540C8
:101E5000AC439D6818680A38032610FB06F08540DD
:101E60002C43106884610FE01068446907251E68E0
:101E700003204643B540AC439D681E68032046439B
:101E8000B5402C431068446158691468E468C4F391
:101E9000C104E4B2640010FA04F41869012806D001
:101EA0003DD303281FD010D304282AD037E0106870
:101EB000056EDFF840040540186855EA80652C433C
:101EC00054F000441068046661E01068456EDFF865
:101ED00024040540186855EA80652C4354F00044FA
:101EE0001068446653E01068856EDFF8080405400A
:101EF000186855EA80652C4354F0004410688466E5
:101F000045E01068C56EDFF8EC030540186855EA37
:101F100080652C4354F000441068C46637E01068B4
:101F2000006E10F0F8401C68B0EB846F05D11068AB
:101F3000006E20F00040146820661068406E10F0BB
:101F4000F8401C68B0EB846F05D11068406E20F03B
:101F50000040146860661068806E10F0F8401C68DD
:101F6000B0EB846F05D11068806E20F000401468DB
:101F7000A0661068C06E10F0F8401C68B0EB846F6B
:101F800005D11068C06E20F000401468E06610684B
:101F9000806810F00300012804D11068006810F078
:101FA000010000E00020002840F0E180D86801280E
:101FB0000AD01068D0F8B040012518688540AC43BD
:101FC0001068C0F8B04035E01068D0F8B040012586
:101FD000186885402C431068C0F8B04018680A287B
:101FE00014D310688469072518680938032610FB84
:101FF00006F08540AC439D6818680938032610FB3D
:1020000006F085402C431068846113E01068446931
:1020100007251868401C032610FB06F08540AC43DA
:102020009D681868401C032610FB06F085402C4371
:10203000106844611068B0F1A04F03D01068504C94
:10204000A04202D1DFF8B04201E0DFF8B0421868E8
:10205000102802D1A06800020CD51868112802D1FE
:10206000A068C00106D51868122840F08080A068DA
:1020700040027CD41068B0F1A04F03D140480190D9
:1020800001981AE010683E4DA84204D15FF0A040CC
:102090000190019811E03B481568854203D13A4808
:1020A0000190019809E01568374EB54202D10190C0
:1020B000019802E00020019001981068806810F0FB
:1020C0000300012804D11068006810F0010000E04E
:1020D0000020002840D1019800280DD00198806888
:1020E00010F00300012804D10198006810F00100ED
:1020F00000E0002000282FD11868102818D110689F
:10210000B0F1A04F14D1A06850F40000A060DFF837
:1021100070030068DFF86C33B0FBF3F30A2043432D
:1021200000930098002822D00098401E0090F8E705
:102130001868112808D11068B0F1A04F04D1A06828
:1021400050F08070A06012E0186812280FD1A068CB
:1021500050F48000A0600AE0106C50F02000106481
:10216000012104E0106C50F02000106401210020D7
:1021700082F83C000800C0B215B070BC7047000087
:1021800000010050000400500005005030B494B02D
:1021900000220B68002B0368B3F1A04F04D1DFF8D5
:1021A000F0320093009B1EE00368DFF8E442A34294
:1021B00004D15FF0A0430093009B14E0DFF8C83225
:1021C00004689C4204D1DFF8C4320093009B0AE00B
:1021D0000468DFF8B852AC4202D10093009B02E0E1
:1021E00000230093009B009B002B01D101207DE088
:1021F00090F83C30012B01D1022077E0012380F8D8
:102200003C3003689B685B0766D4009B9B685B0758
:1022100062D40368B3F1A04F04D00368DFF87042C2
:10222000A34201D1344C00E0344C0B68002B2ED07B
:10223000A56835F460454B681D4390F8303055EA89
:102240004335A56003689B6813F00303012B04D199
:1022500003681B6813F0010300E00023002B40D14A
:10226000009B9B6813F00303012B04D1009B1B68A8
:1022700013F0010300E00023002B32D1A568854B49
:102280001D400B681D4389680D43A56029E0A168C6
:1022900031F46041A1600168896811F003010129EE
:1022A00004D10168096811F0010100E00021002952
:1022B00017D10099896811F00301012904D100990F
:1022C000096811F0010100E00021002909D1A3688B
:1022D00070490B40A36004E0016C51F020010164DF
:1022E0000122002180F83C101000C0B214B030BCB4
:1022F0007047000000F0FF8300030050000700500B
:1023000080B5416A0A6C12F0500F1AD1086C50F473
:10231000007008640868C06810F4406F0DD1487EF2
:1023200000280AD1086C30F480700864086CC0047E
:1023300003D4086C50F0010008640800FEF732F87E
:1023400002E0896B096B884701BD80B5406A02F0E5
:1023500015FB01BD80B5406A016C51F0400101647C
:10236000416C51F00401416402F009FB01BD38B534
:10237000040000202068806810F00300012804D1C8
:102380002068006810F0010000E0002000282FD134
:10239000206880686FF39E10002809D0206C50F0F0
:1023A00010002064606C50F001006064012020E0A7
:1023B0002068806850F001002168886002F0E0FA2F
:1023C000050020680068C00712D402F0D9FA401B4B
:1023D0000328F6D320680068C007F2D4206C50F0C0
:1023E00010002064606C50F001006064012000E087
:1023F000002032BD38B5040000202068806810F04D
:102400000300012804D12068006810F0010000E0FA
:102410000020002832D02068806810F00D000128CC
:1024200022D12068806850F0020021688860032073
:102430002168086002F0A4FA050020688068C007DF
:102440001CD502F09DFA401B0328F6D32068806853
:10245000C007F2D5206C50F010002064606C50F082
:102460000100606401200AE0206C50F0100020643C
:10247000606C50F001006064012000E0002032BD7B
:102480009000002040420F00000400500005005062
:1024900000010050E0F0FFFF10B50400002C01D156
:1024A00001207AE0606A002806D16068B0F5827F7A
:1024B00006D00020E06103E0002020610020606180
:1024C0000020A06294F85D00002805D1002084F867
:1024D0005C00200002F0AAFA022084F85D00206867
:1024E000006830F0400021680860E06840F2017147
:1024F000884201D3002001E04FF48050E168B1F53B
:10250000706F05D0E168B1F5E06F01D00021A162E4
:10251000616811F48271A26812F404421143227CB2
:1025200012F002021143227D12F001021143A2694E
:1025300012F400721143227F12F03802114394F812
:10254000202012F080021143A26A12F400521143BB
:1025500022681160A169090C11F0040194F824208B
:1025600012F01002114394F8342012F008021143C3
:10257000E26812F47062114310F48050084321683D
:1025800048602068C06930F400602168C86100209C
:102590002066012084F85D00002010BD2DE9F8437D
:1025A00006000D0091461C00002796F85C000128EB
:1025B00001D10220E4E0012086F85C0002F0E0F99D
:1025C0008046494696F85D00012801D00227CFE0F9
:1025D000002D03D0484680B2002801D10127C7E072
:1025E000032086F85D0000203066B563A6F83C90B5
:1025F000A6F83E90002030640020A6F84400002099
:10260000A6F84600002030650020F064B068B0F500
:10261000004F0BD13068006830F040003268106025
:102620003068006850F4804032681060306800689C
:10263000400605D43068006850F0400032681060F1
:10264000F06840F2017290422ED37068002802D0E8
:1026500089B2012914D1B06B00883168C860B06BB1
:10266000801CB063F08F401EF08709E0B06B0088DB
:102670003168C860B06B801CB063F08F401EF0877B
:10268000F08F00285BD0306880688007EED402F0BD
:1026900077F9B0EB0800A04202D314F1010F01D189
:1026A000002CEDD1032763E07068002802D089B2C6
:1026B000012922D1F08F02280AD3B06B008831683B
:1026C000C860B06B801CB063F08F801EF08714E090
:1026D000B06B007831680873B06B401CB063F08F4A
:1026E000401EF08709E0B06B00883168C860B06BAD
:1026F000801CB063F08F801EF087F08F00281ED002
:102700003068806880070DD5F08F0228EBD2B06B5F
:10271000007831680873B06B401CB063F08F401EC6
:10272000F087EAE702F02CF9B0EB0800A04202D3F0
:1027300014F1010F01D1002CDFD1032718E042462C
:102740002100300000F069FB002801D02020306615
:10275000B068002808D1002000903068C068009060
:102760003068806800900098306E002800D0012703
:10277000012086F85D00002086F85C003800C0B2B9
:10278000BDE8F2832DE9F84306000D0091461C00D8
:1027900000277068B0F5827F0ED1B06800280BD199
:1027A000042086F85D0000944B469BB22A00290065
:1027B000300000F0B8F8B4E096F85C00012801D1D0
:1027C0000220AEE0012086F85C0002F0D9F88046D5
:1027D00096F85D00012801D002279AE0002D03D071
:1027E000484680B2002801D1012792E0042086F8F3
:1027F0005D00002030663564A6F84490A6F8469047
:102800000020B0630020B0870020F0870020F06433
:102810000020306540F20170F168814206D33168D2
:10282000496831F480513268516005E03168496887
:1028300051F4805132685160B168B1F5004F0BD14D
:102840003168096831F04001326811603168096807
:1028500031F480413268116031680968490605D455
:102860003168096851F0400132681160F1688142B5
:102870002DD20BE03068007B316C0870306C401C4E
:102880003064B6F84600401EA6F84600B6F846008A
:10289000002831D030688068C007EBD402F070F8AF
:1028A000B0EB0800A04202D314F1010F01D1002CBB
:1028B000ECD103272DE03068C068316C0880306CA3
:1028C000801C3064B6F84600401EA6F84600B6F8F4
:1028D0004600002810D030688068C007EBD402F0B2
:1028E0004FF8B0EB0800A04202D314F1010F01D160
:1028F000002CECD103270CE042462100300000F010
:1029000049FA002801D020203066306E002800D01F
:102910000127012086F85D00002086F85C00380061
:10292000C0B2BDE8F2832DE9F04705008A461400E5
:102930005FF00108002695F85C00012801D1022013
:1029400048E19946012085F85C0002F019F807007B
:1029500095F85D1068684A464B468C465FFA8CFCD9
:10296000BCF1010F0AD0B0F5827F05D1A86800281C
:1029700002D1C9B2042901D0022623E1514600291F
:1029800006D02000002803D04C46A4B2002C01D170
:10299000012617E195F85D40042C02D0052485F846
:1029A0005D4000242C662864A5F84690A5F8449064
:1029B000A963A5F83E90A5F83C900020E8640020AB
:1029C000286540F20170E968814202D29BB2022B75
:1029D00006D32968496831F480512B68596005E0B5
:1029E0002968496851F480512B6859602968096841
:1029F000490605D42968096851F040012B6819601F
:102A0000089CE96881424DD36868002802D092B2E0
:102A1000012A09D1A86B00882968C860A86B801CAE
:102A2000A863E88F401EE887E88F002804D1B5F836
:102A30004600002800F0BC8028688068800711D517
:102A4000E88F00280ED0B8F1010F0BD1A86B0088D9
:102A50002968C860A86B801CA863E88F401EE887BF
:102A60005FF0000828688068C00711D5B5F84600F7
:102A700000280DD02868C068296C0880286C801C4C
:102A80002864B5F84600401EA5F846005FF001082E
:102A900001F076FFC01BA042C6D314F1010FC3D0D2
:102AA00003268FE06868002802D092B2012A17D16D
:102AB000E88F02280AD3A86B00882968C860A86B31
:102AC000801CA863E88F801EE88709E0A86B007867
:102AD00029680873A86B401CA863E88F401EE8872C
:102AE000E88F002803D1B5F84600002860D0286898
:102AF000806880071FD5E88F00281CD0B8F1010F2F
:102B000019D1E88F02280AD3A86B00882968C86009
:102B1000A86B801CA863E88F801EE88709E0A86B7B
:102B2000007829680873A86B401CA863E88F401ED2
:102B3000E8875FF0000828688068C0072CD5B5F8E2
:102B40004600002828D0B5F84600022816D3286889
:102B5000C068296C0880286C801C2864B5F8460081
:102B6000801EA5F84600B5F84600022812D2286853
:102B7000406850F48050296848600BE02868007B6A
:102B8000296C0870286C401C2864B5F84600401E6B
:102B9000A5F846005FF0010801F0F2FEC01BA0425C
:102BA00002D314F1010F01D1002C99D1032609E0C1
:102BB0003A002100280000F030F9002802D0012658
:102BC00020202866012085F85D00002085F85C0043
:102BD0003000C0B2BDE8F0872DE9F84305000E00D3
:102BE00017009846089C01F0CBFEB8EB00002418B3
:102BF00001F0C6FE8146664800684001000D00FBFA
:102C000004F0009006E00098002800D1002400980D
:102C1000401E0090286880683040B04201D10120F9
:102C200000E000203900C9B288423AD018F1010F03
:102C3000F0D001F0A5FEB0EB0900A04201D2002CBB
:102C4000E1D12868406830F0E00029684860686891
:102C5000B0F5827F0DD1A868B0F5004F03D0A86809
:102C6000B0F5806F05D12868006830F04000296811
:102C70000860A86AB0F5005F0BD12868006830F4DE
:102C80000050296808602868006850F400502968DE
:102C90000860012085F85D00002085F85C000320B5
:102CA00000E00020BDE8F2832DE9FC4706000F009C
:102CB000140098460A9D00208DF8000001F060FE87
:102CC000B8EB00002D1801F05BFE8146306810F172
:102CD0000C0A2F48016823204143090D01FB05F12F
:102CE000019106E00198002800D100250198401EBE
:102CF0000190306880683840A04245D0B7F5C06F79
:102D000007D1002C05D19AF800008DF800009DF83D
:102D1000000018F1010FECD001F032FEB0EB090019
:102D2000A84201D2002DDDD13068406830F0E000CB
:102D3000316848607068B0F5827F0DD1B068B0F539
:102D4000004F03D0B068B0F5806F05D130680068DF
:102D500030F0400031680860B06AB0F5005F0BD118
:102D60003068006830F400503168086030680068EE
:102D700050F4005031680860012086F85D000020A2
:102D800086F85C00032000E00020BDE8F687000024
:102D9000900000207CB504000D0016006068B0F5BE
:102DA000827F0DD1A068B0F5004F03D0A068B0F5C8
:102DB000806F05D12068006830F04000216808600D
:102DC00000962B00002280212000FFF705FF00283D
:102DD00005D0206E50F02000206603201CE06068C3
:102DE000B0F5827F17D1A068B0F5004F03D0A0687E
:102DF000B0F5806F0FD100962B0000224FF4C06118
:102E00002000FFF751FF002805D0206E50F0200071
:102E10002066032000E0002076BD7CB504000D0094
:102E2000160000962B0000224FF4C0512000FFF73F
:102E30003BFF002805D0206E50F0200020660320C4
:102E40001FE000962B00002280212000FFF7C4FE27
:102E5000002805D0206E50F020002066032010E0EE
:102E600000962B0000224FF4C0612000FFF71CFFEA
:102E7000002805D0206E50F020002066032000E0DE
:102E8000002076BD70B5050014001A00002008006F
:102E9000C0B2002807D00800C0B2002803D0080044
:102EA000C0B2F82801DB022436E05E4E3170280003
:102EB000C0B2002820D1049B5B485C4908605C4894
:102EC0005C4908605C485D4908605D485D49086090
:102ED00000205D4908605D485D4908605D485E49C5
:102EE00008605E485E490860DBB22100C9B23078F4
:102EF00001F006FE040000E002242000C0B2002819
:102F00000AD101F05FFF002801D1032404E05548F5
:102F100005700120544908702000C0B270BD38B55A
:102F20000024514D2878012805D140480068804789
:102F30000020287000E006242000C0B232BD7CB51D
:102F4000002049480078002801D0062068E0684643
:102F500001F044FF012862D19DF80000002805D04F
:102F600002281AD003D3032859D058E057E0404C28
:102F7000404A41492000334B1B689847C0B20028A3
:102F80000AD1207827490978884202D02078002881
:102F900002D1022001F01BFF41E0384C364D286879
:102FA00000782070364E01203070002205E013F8C2
:102FB00032002178884208D0521C102A0CDA2B4BA0
:102FC00013F832000028F2D106E02A49286803EB02
:102FD000C2025268904730702548007800281DD002
:102FE0003078002812D0234800210180217851F048
:102FF00080012A680388D1540188491C01803178F6
:103000002A680388D1540188491C01801948028824
:10301000296804480078094B1B689847FFE700209F
:1030200076BD0000795F0020474B0008005F00205C
:10303000614B0008045F0020DF4B0008FC5E0020AD
:10304000754B0008085F00200C5F00203F4C000813
:10305000105F0020C94C0008145F0020374D0008A5
:10306000185F00207A5F0020140100200400002077
:103070007B5F00206C5F00201C5F00207C5F0020D5
:103080007D5F002080B54FF418720A2300F0DCFB4E
:1030900001BD0EB4C0B54FF4187303A9C28D9A4296
:1030A00005D30A220092002200F0FAFA10E0426BE7
:1030B0009A4205D30A220092002200F059FB07E051
:1030C000C26B9A4204D30A220092002200F086FBCF
:1030D00003BC5DF810FB02B582B0642100910123AE
:1030E00001AA02A94068FFF71EFC9DF804000EBD6E
:1030F000F8B5040000200020002000200022A18953
:10310000A068FEF7B3FB9F212000FFF7E4FFA52195
:103110002000FFF7E0FF0600A5212000FFF7DBFFFE
:103120000500A5212000FFF7D6FF07000122A18995
:10313000A068FEF79BFB2D0255EA06453D4328009B
:10314000F2BD38B504000022A189A068FEF78EFB0D
:103150004B212000FFF7BFFF002504E0A521200040
:10316000FFF7B9FF6D1C2800C0B20428F6DB00256C
:1031700009E0A5212000FFF7AEFF2900C9B22144D4
:1031800081F825006D1C2800C0B20828F1DB01225F
:10319000A189A068FEF76AFB31BD10B504000022CA
:1031A000A189A068FEF762FB06212000FFF793FFCC
:1031B0000122A189A068FEF759FB012001F020FE41
:1031C00010BD10B50400012001F01AFE0022A189F3
:1031D000A068FEF74BFB05212000FFF77CFFA5212F
:1031E0002000FFF778FF84F84800012001F008FE76
:1031F00094F84800C007F2D40122A189A068FEF724
:1032000035FB10BD08B4F0B50400DDE90723C4E9BF
:103210000423DDE90523C4E90223DDE90923C4E928
:10322000062361600122BDF820100798FEF71EFBFF
:103230000122BDF828100998FEF718FB0122BDF8FD
:1032400018100598FEF712FB012084F84B0002E0ED
:10325000012001F0D5FD01F093FB6428F8D3012291
:10326000BDF818100598FEF701FB642001F0C8FDB9
:10327000DFF89C534FF47A730E22DFF8981328007E
:1032800001F037FE2000FFF733FF0700DFF8886307
:103290003B00DFF888234021300002F0ADFA300017
:1032A00002F0CCFA02004FF47A7392B23100280097
:1032B00001F01FFEBFB243F211003F1A00F09281ED
:1032C0007F1E00F085817F1E00F078817F1E00F058
:1032D0006B817F1E00F05E817F1E00F051817F1E9A
:1032E00000F0448140F6FA703F1A00F032817F1EF0
:1032F00000F022817F1E00F012817F1E00F002810B
:103300007F1E00F0F2807F1E00F0E2807F1E00F042
:10331000D2807F1E00F0C1807F1E00F0B0807F1E33
:1033200040F06A810A2084F824004FF48060206411
:103330004FF47A730E22BA49280001F0DAFD4FF4F7
:103340008070E0854FF480506063206C0001A063C2
:10335000A16B606B4143E08DB1FBF0F02063606BCB
:103360000001E063A16B606B4143890A6164200046
:10337000FFF7E7FEE38DAB4A4021300002F03CFA54
:10338000300002F05BFA4FF47A73020092B231001F
:10339000280001F0AEFD236BA34A4021300002F06B
:1033A0002BFA300002F04AFA4FF47A73020092B21C
:1033B0003100280001F09DFD636B9C4A40213000E4
:1033C00002F01AFA300002F039FA4FF47A73020070
:1033D00092B23100280001F08CFDA36B944A402189
:1033E000300002F009FA300002F028FA4FF47A7344
:1033F000020092B23100280001F07BFDE36B8D4AA0
:103400004021300002F0F8F9300002F017FA4FF4D2
:103410007A73020092B23100280001F06AFD236C39
:10342000854A4021300002F0E7F9300002F006FA48
:103430004FF47A73020092B23100280001F059FD76
:10344000636C7E4A4021300002F0D6F9300002F071
:10345000F5F94FF47A73020092B23100280001F0BE
:1034600048FD4FF47A730A227549280001F041FDA6
:10347000002084F84B000120F0BC5DF808FB092017
:1034800084F824004FF4007020644FF47A730E2205
:103490006C49280001F02DFD51E7082084F8240034
:1034A0004FF4807020644FF47A730E22664928002E
:1034B00001F01FFD43E7072084F8240080202064EA
:1034C0004FF47A730D226149280001F012FD36E7AE
:1034D000062084F82400402020644FF47A730D22E3
:1034E0005B49280001F005FD29E7052084F8240048
:1034F000202020644FF47A730D225649280001F0F1
:10350000F8FC1CE7042084F82400102020644FF409
:103510007A730D225049280001F0EBFC0FE70320DD
:1035200084F82400082020644FF47A730D224B495C
:10353000280001F0DEFC02E7022084F824000420C9
:1035400020644FF47A730D224549280001F0D1FC24
:10355000F5E6012084F82400022020644FF47A73F9
:103560000D224049280001F0C4FCE8E680202064D8
:103570004FF47A730D223C49280001F0BAFCDEE6D4
:10358000402020644FF47A730D223849280001F05E
:10359000B0FCD4E6202020644FF47A730D22344925
:1035A000280001F0A6FCCAE6102020644FF47A73CC
:1035B0000D223049280001F09CFCC0E60820206460
:1035C0004FF47A730D222C49280001F092FCB6E6E4
:1035D000042020644FF47A730D222849280001F05A
:1035E00088FCACE6022020644FF47A730D22244953
:1035F000280001F07EFCA2E64FF47A730B222149E9
:10360000280001F076FC002084F84B00002033E70E
:1036100004570020B0B30008DC5D002010B500089E
:10362000C0B30008FCB2000874B3000814B300086B
:1036300088B300082CB300089CB3000844B300080A
:1036400028B50008D0B30008E0B30008F0B30008C4
:1036500000B4000810B4000820B4000830B400081A
:1036600040B4000850B4000860B4000870B400080A
:1036700080B4000890B40008A0B40008B0B40008FA
:10368000C0B400081CB50008426B5143C08DB1FBAB
:10369000F0F07047C26B5143C08DB1FBF0F0704742
:1036A0002DE9F04105000E001700984602E00120C8
:1036B00001F0A6FB95F84B000128F8D0069C0120EC
:1036C00085F84B00E88D18EB0401884201D3002CEB
:1036D00002D1EC8DB4EB0804E88D14EB08018842AC
:1036E00002D2EC8DB4EB08042800FFF76AFD280035
:1036F000FFF753FD0022A989A868FEF7B7F8022159
:103700002800FFF7E8FCE88D00FB078795F8240008
:10371000092805DB3900090EC9B22800FFF7DBFCD8
:103720003900090CC9B22800FFF7D5FC3900090A95
:10373000C9B22800FFF7CFFC3900C9B22800FFF753
:10374000CAFC6423220092B231006868FEF726FFAB
:103750000122A989A868FEF789F82800FFF731FD42
:10376000012001F04DFB002085F84B00BDE8F08101
:103770002DE9FC4105000E001F00089C686BA0426B
:1037800001D3002C00D16C6B686BE119884202D226
:103790006C6BE41BFFE711002800FFF775FF804604
:1037A000E88DB7FBF0F010EB0808E88DB7FBF0F1FF
:1037B00000FB117700943B00424631002800FFF7E0
:1037C0006FFF18F10108E88D241A3C19E88DC71B1A
:1037D0003E440027012CEDDABDE8F3812DE9FC41E0
:1037E00005000E001F00089CE86BA04201D3002CCE
:1037F00000D1EC6BE86BE119884202D2EC6BE41B60
:10380000FFE711002800FFF745FF8046E88DB7FB72
:10381000F0F010EB0808E88DB7FBF0F100FB117732
:1038200000943B00424631002800FFF739FF18F1B1
:103830000108E88D241A3C19E88DC71B3E44002777
:10384000012CEDDABDE8F381F8B504000D00160097
:103850001F0002E0012001F0D3FA94F84B00012888
:10386000F8D0012084F84B000022A189A068FDF760
:10387000FDFF0B212000FFF72EFC94F824000928FF
:1038800005DB3100090EC9B22000FFF724FC31002E
:10389000090CC9B22000FFF71EFC3100090AC9B2A9
:1038A0002000FFF718FC3100C9B22000FFF713FC1D
:1038B00000212000FFF70FFC4FF4FA633A0092B2A8
:1038C00029006068FEF75EFF0122A189A068FDF76C
:1038D000CDFF012001F094FA002084F84B00F1BDE7
:1038E0007047B1F5807F02D34FF0FF307047017011
:1038F000012070470078401E8041C043C00F7047D0
:1039000078B585B005000B98002807D1502080F3CA
:103910001188BFF34F8FBFF36F8FFEE70C9C002C15
:1039200007D1502080F31188BFF34F8FBFF36F8F03
:10393000FEE754260096009E542E07D0502080F3B8
:103940001188BFF34F8FBFF36F8FFEE7002C13D0AA
:10395000002811D02063022084F851000020039039
:10396000029404A801900A980090280000F042F800
:10397000200000F094F801E000200490049806B0C4
:1039800070BD2DE9F84384B00700884616009946BB
:10399000300080B2800001F06DFF0500002D0BD0DB
:1039A000542001F067FF0400002C01D0256304E0DF
:1039B000280001F0E9FF00E00024002C15D00020D1
:1039C00084F851000020039002940D9801900C9807
:1039D00000904B46B6B232004146380000F00AF87B
:1039E000200000F05CF8012001E05FF0FF3005B03E
:1039F000BDE8F0832DE9F84305001E000A9F386BEF
:103A000000EB8200B0F104085FEAD8085FEAC8085A
:103A100018F00700002807D0502080F31188BFF36A
:103A20004F8FBFF36F8FFEE7002200E0521C102A79
:103A300007D2885C07EB020383F83400885C002817
:103A4000F4D1DDF82090002087F84300B9F1070F8A
:103A500001D35FF00609099CC7F82C90C7F8449081
:103A60000020B864381D02F044F817F1180002F085
:103A700040F83F61D9F10709C7F818907F6200202C
:103A8000F864002087F8500032002900404602F018
:103A90006DF83860002C00D02760BDE8F18338B5A0
:103AA000040002F0F3F8DFF8C0130868401C086057
:103AB000DFF8B8532868002806D12C600868012870
:103AC0000DD100F0EDF90AE0DFF8C8030068002826
:103AD00005D1E06A2968C96A884200D32C60DFF802
:103AE000B8030168491C0160DFF8B0130A680123BC
:103AF000E06A83401A430A60211DDFF8F423E36A79
:103B00001420434302EB030001F0F6FF02F0D8F863
:103B1000DFF88003006800280DD02868C06AE16AD9
:103B2000884208D25FF08050DFF878140860BFF355
:103B30004F8FBFF36F8F31BD10B504000020002CF4
:103B400014D0DFF85C040068002807D0502080F310
:103B50001188BFF34F8FBFF36F8FFEE700F059F866
:103B60000021200000F038FA00F059F8002808D1B0
:103B70005FF08050DFF82C140860BFF34F8FBFF365
:103B80006F8F10BD10B586B0002004900020039008
:103B900005AA03A904A8FCF7F7FADFF8144404986F
:103BA000029003980190002000900023059ADFF80E
:103BB00004140FF2BD20FFF7A3FE20602068002848
:103BC00001D0012000E00020012817D1502080F30F
:103BD0001188BFF34F8FBFF36F8F5FF0FF30DFF8B7
:103BE000DC1308600120DFF8AC1208600020DFF869
:103BF000D013086001F0E3FF06B010BD10F1010F13
:103C0000FAD1502080F31188BFF34F8FBFF36F8F2D
:103C1000FEE7DFF88C030168491C0160704770B54E
:103C200000240025DFF878633068002807D1502091
:103C300080F31188BFF34F8FBFF36F8FFEE702F061
:103C400025F83068401E30603068002855D1DFF814
:103C500018020068002826D14FE0C868C46814F133
:103C6000180001F070FF201D01F06DFFDFF82C122D
:103C70000A680123E06A83401A430A60211DDFF8C5
:103C80007022E36A1420434302EB030001F034FF87
:103C9000E06ADFF8D8110968C96A884203D30120B5
:103CA000DFF830130860DFF8101308680028D4D15B
:103CB000002C01D000F05FF9DFF808633468002CB5
:103CC0000CD000F01EF8002803D00120DFF8041308
:103CD0000860641E002CF4D100203060DFF8F4028C
:103CE0000068002809D001255FF08050DFF8B41289
:103CF0000860BFF34F8FBFF36F8F01F0E1FF280023
:103D000070BDF8B50025DFF898020068002867D17B
:103D1000DFF8AC020468641C0460002C1AD1DFF8E0
:103D2000A81208680068002807D0502080F3118886
:103D3000BFF34F8FBFF36F8FFEE70868DFF88C2269
:103D400013680B601060DFF888020168491C01608D
:103D500000F011F9DFF864623068844230D322E069
:103D6000381D01F0F0FEB86A002803D017F11800E2
:103D700001F0E9FEDFF824110A680123F86A8340A4
:103D80001A430A60391DDFF86821FB6A1420434397
:103D900002EB030001F0B0FEF86A34490968C96A11
:103DA000884200D30125DFF8201208680068002847
:103DB00012D00868C068C76878688442D0D2306082
:103DC0002A480068DFF82811C26A14204243885844
:103DD00002280AD3012508E05FF0FF303060EFE7EA
:103DE000DFF8E0010168491C0160DFF8E8010068C4
:103DF000002800D001252800F2BDDFF8A4010068EA
:103E0000002804D00120DFF8CC1108602AE000204F
:103E1000DFF8C011086021480068B0FA80F1D1F1E4
:103E20001F011422324B02FB01F01858002807D161
:103E3000502080F31188BFF34F8FBFF36F8FFEE7E1
:103E4000514303EB0100416849684160416810F14A
:103E50000802914202D14168496841604068C068E7
:103E600002490860704700003C5F00202C5F002082
:103E700080B500F03FF81E4800680228F9D35FF0D3
:103E80008050DFF828110860BFF34F8FBFF36F8FAA
:103E9000EFE70000485F0020585F0020445F0020EB
:103EA00038B5002407E01248142101FB04F108444E
:103EB00001F010FE641C072CF5D3DFF898412000B8
:103EC00001F008FEDFF89051280001F003FEDFF852
:103ED000E80001F0FFFD154801F0FCFD324801F05B
:103EE000F9FDDFF8E4000460DFF87001056031BD22
:103EF0007856002038B514E001F0C8FE0B48C068C1
:103F0000C468201D01F01FFEDFF840010168491E52
:103F100001602868401E286001F0D2FE200000F0F9
:103F200009F8034D28680028E6D131BDA85E0020BD
:103F3000385F002010B5040094F85100002806D125
:103F4000206B01F021FD200001F01EFD10BD94F852
:103F50005100012803D1200001F016FDF6E794F886
:103F600051000228F2D0502080F31188BFF34F8F08
:103F7000BFF36F8FFEE7DFF8501008680068002875
:103F800005D15FF0FF30DFF83410086006E0086804
:103F9000C068C0684068DFF82410086070470000FF
:103FA000645F002004ED00E0BC5E002004ED00E052
:103FB000605F002078B50008945E00205C5F002000
:103FC000405F00204C5F0020305F0020345F002005
:103FD000545F0020505F0020F8B505000C001A481F
:103FE00006681B4F3868001D01F0ADFD002807D1A1
:103FF00038681B490A680123C06A83409A430A60F3
:1040000015F1010F07D1002C05D03868011D1548A6
:1040100001F072FD16E0AD1938684560B54206D270
:104020003868011D0D48006801F072FD0AE038682B
:10403000011D0D48006801F06BFD0C4801688D42C0
:1040400000D20560F1BD0000405F00203C5F002011
:104050002C5F00206C5E0020805E0020345F00201A
:10406000445F0020BC5E0020305F00205C5F0020C9
:1040700018B589B00C22002106A801F079FE18229B
:104080000021684601F074FEDFF8F8455FF0A040BB
:104090002060002060600020A060012020610120DD
:1040A0006076002084F820000020E0620120A062F9
:1040B0000020E0600A20E061012084F83000082040
:1040C000606100202076002060632000FDF7ECFB9B
:1040D000002801D001F0ACFF0020069006A92000C6
:1040E000FEF754F8002801D001F0A2FF062000904E
:1040F00001200190002003900720029000200490EE
:104100000020059069462000FDF722FE002801D01E
:1041100001F08EFF072000900220019069462000E8
:10412000FDF716FE002801D001F082FF0820009064
:104130000320019069462000FDF70AFE002801D007
:1041400001F076FF092000900420019069462000CC
:10415000FDF7FEFD002801D001F06AFF0A20009063
:104160000520019069462000FDF7F2FD002801D0EE
:1041700001F05EFF012000900620019069462000BA
:10418000FDF7E6FD002801D001F052FF022000906B
:104190000720019069462000FDF7DAFD002801D0D4
:1041A00001F046FF0320009008200190694620009E
:1041B000FDF7CEFD002801D001F03AFF0420009069
:1041C0000920019069462000FDF7C2FD002801D0BA
:1041D00001F02EFF052000900A2001906946200082
:1041E000FDF7B6FD002801D001F022FF0AB010BD96
:1041F00010B586B018220021684601F0B9FDDFF83D
:104200008844DFF888042060002060600020A060FF
:104210000120206101206076002084F82000002029
:10422000E0620120A0620020E0600220E061012045
:1042300084F8300008206061002020760020606350
:104240002000FDF731FB002801D001F0F1FE012034
:104250000090012001900020039007200290002090
:1042600004900020059069462000FDF771FD0028AC
:1042700001D001F0DDFE022000900220019069468D
:104280002000FDF765FD002801D001F0D1FE06B049
:1042900010BD10B586B018220021684601F068FDF7
:1042A000DFF8EC43DFF8EC032060002060600020C2
:1042B000A0600120206101206076002084F82000A9
:1042C0000020E0620120A0620020E0600D20E0619B
:1042D000012084F830000820606100202076002052
:1042E00060632000FDF7E0FA002801D001F0A0FE95
:1042F00006200090012001900020039007200290EA
:10430000002004900020059069462000FDF720FD64
:10431000002801D001F08CFE0120009002200190C5
:1043200069462000FDF714FD002801D001F080FE51
:10433000022000900320019069462000FDF708FD4F
:10434000002801D001F074FE0320009004200190A9
:1043500069462000FDF7FCFC002801D001F068FE52
:10436000042000900520019069462000FDF7F0FC34
:10437000002801D001F05CFE05200090062001908D
:1043800069462000FDF7E4FC002801D001F050FE52
:104390000C2000900720019069462000FDF7D8FC12
:1043A000002801D001F044FE0D200090082001906B
:1043B00069462000FDF7CCFC002801D001F038FE52
:1043C000072000900920019069462000FDF7C0FCFD
:1043D000002801D001F02CFE082000900A20019056
:1043E00069462000FDF7B4FC002801D001F020FE52
:1043F000092000900B20019069462000FDF7A8FCE1
:10440000002801D001F014FE0A2000900C20019039
:1044100069462000FDF79CFC002801D001F008FE51
:104420000B2000900D20019069462000FDF790FCC4
:10443000002801D001F0FCFD06B010BD38B586B0F3
:10444000040014220021684601F092FC2068B0F1BB
:10445000A04F68D190480168491C0160006801289C
:1044600009D18E48016851F080510160006810F058
:104470008050059005988948016851F40021016039
:10448000016811F4002105910599016851F480013A
:104490000160016811F4800105910599016851F4EA
:1044A00000310160006810F40030059005980F207D
:1044B0000090032001900020029069467848FDF7A3
:1044C0005DF81420009003200190002002906946BE
:1044D0007448FDF753F80F2000900320019000204E
:1044E000029069465FF09040FDF748F86E4D6F48C6
:1044F0002860002068600020A8608020E8604FF4F9
:10450000807028614FF4806068612020A8610020DD
:10451000E861280000F0DAF8002801D001F088FDF9
:10452000A5636C62ACE020685849884242D15A4881
:104530000168491C01600068012809D157480168D9
:1045400051F080510160006810F08050059005988E
:104550005248016851F400310160006810F40030E5
:1045600005900598302000900320019000200290D3
:1045700069465FF09040FDF701F84D4D4D482860C9
:10458000002068600020A8608020E8604FF4807000
:1045900028614FF4806068612020A8610020E861F4
:1045A000280000F093F8002801D001F041FDA56338
:1045B0006C6265E020683749884261D137480168FC
:1045C00051F000510160016811F000510591059909
:1045D000016851F400110160016811F400110591A6
:1045E0000599016851F480210160016811F480216E
:1045F00005910599016851F480110160006810F47B
:104600008010059005984FF44140009003200190E0
:104610000020029069462848FCF7B0FF4FF4504054
:104620000090032001900020029069462348FCF787
:10463000A5FF4FF4FE40009003200190002002905F
:1046400069461F48FCF79AFF1E4D1F48286000204E
:1046500068600020A8608020E8604FF480702861C6
:104660004FF4806068612020A8610020E861280084
:1046700000F02CF8002801D001F0DAFCA5636C6290
:1046800007B030BD285900207859002000010050A3
:10469000C859002000050050D85E002014100240C8
:1046A0000008004800140048105D00200800024087
:1046B000545D002008040240001000480004004837
:1046C000000C0048985D00201C04024010B5040056
:1046D0000020002C01D1012022E0022084F82100DA
:1046E000206801686FF30D116268A0680243E068FA
:1046F00002432069024360690243A0690243E06902
:104700000243114320680160200000F012F90020EC
:10471000A063012084F82100002084F820000020FC
:1047200010BD70B50400002594F82000012801D1C7
:10473000022037E0012084F8200094F821000128AD
:104740002AD1022084F821000020A063206800689C
:104750004008400026683060200000F0D4F8E06A8D
:10476000002806D02068006850F00E00216808601C
:104770000BE02068006850F00A002168086020689B
:10478000006830F00400216808602068006850F07C
:1047900001002168086003E0002084F82000022561
:1047A0002800C0B270BD90F82110022906D0042163
:1047B0008163002180F82010012017E0016809685A
:1047C00031F00E010268116001680968490849006A
:1047D000026811600122016C8A40C16B4A600121AC
:1047E00080F82110002180F820100020704710B5BB
:1047F000002490F82110022903D0042181630124B0
:104800001BE00168096831F00E010268116001685F
:10481000096849084900026811600122016C8A4058
:10482000C16B4A60012180F82110002180F820101E
:10483000416B002901D0416B88472000C0B210BDF8
:1048400010B5C16B0B6801680C680422016C12FA88
:1048500001F10B4215D0610713D50168096889067B
:1048600005D40168096831F0040103681960016C1E
:104870008A40C16B4A60C16A002943D0C16A884737
:1048800040E00222016C12FA01F10B421BD0A10799
:1048900019D501680968890608D40168096831F0EA
:1048A0000A0103681960012180F82110016C8A4017
:1048B000C16B4A60002180F82010816A002921D054
:1048C000816A88471EE00822016C8A40134219D091
:1048D000210717D50168096831F00E0102681160DF
:1048E0000122016C8A40C16B4A6001218163012170
:1048F00080F82110002180F82010016B002901D0E0
:10490000016B884710BD30B40125046CA540C46B11
:104910006560046863604368102B04D103689A6083
:104920000068C16003E0036899600068C26030BC41
:10493000704701680C4A91420AD202680B498A18F2
:104940001421B2FBF1F1890001640949C16309E056
:10495000026808498A181421B2FBF1F18900016448
:104960000549C1637047000008040240F8FFFDBF1D
:1049700000000240F8FBFDBF000402407047704792
:1049800001480068704700BF285F002080B5534889
:10499000534901604FF482714160002181604FF4FE
:1049A000E061C16000210161002141614FF40071AB
:1049B00081611821C16180210162002141620021D1
:1049C00081620721C1620021016308214163FDF773
:1049D00063FD002801D001F02BFB01BD80B54148EB
:1049E000414901604FF482714160002181604FF4C0
:1049F000E061C16000210161002141614FF400715B
:104A000081610821C1610021016200214162002110
:104A100081620721C1620021016308214163FDF722
:104A20003BFD002801D001F003FB01BD10B586B0AD
:104A3000040014220021684601F09AF920682849F0
:104A4000884222D12948016851F4805101600068F0
:104A500010F48050059005982548016851F4802194
:104A60000160006810F480200590059828200090CF
:104A70000220019000200290032003900520049062
:104A800069461C48FCF77AFD26E0206816498842F2
:104A900022D11948016851F400410160006810F406
:104AA0000040059005981248016851F4002101600A
:104AB000006810F40020059005984FF4E050009035
:104AC0000220019000200290032003900620049011
:104AD00069460A48FCF752FD06B010BD0C5800208C
:104AE0000030014070580020003C00401810024087
:104AF00014100240000400481C1002400008004846
:104B000038B508001400002572B6DBB20822210077
:104B1000C0B201F0BCFA012801D003250FE044F631
:104B20000130844201D3232003E09A486100B0FBA6
:104B3000F1F080B201F00CFB012800D0032562B631
:104B40002800C0B232BD80B572B60020924908700C
:104B50000021012001F06EFA01F021FB62B601BDD7
:104B600080B572B60021002001F064FA01F020FB4C
:104B700062B601BD2DE9F84304000D0016000020C7
:104B8000002772B6DFF81482B8F80000B0F5807F15
:104B900006DBA1228249834801F01AFBAFF30080B3
:104BA000B8F80000042814DBDFF8FC91B8F8001016
:104BB000484601F01FFB00280BD199F80000207037
:104BC000B8F80000C01E308019F1010028600120F3
:104BD00000E0052762B63800C0B2BDE8F28338B500
:104BE000002472B66C4B1B78012B23D16F4B491EEE
:104BF00019606F4D012129801968087028881218E2
:104C00002A802988186801F0F5FA29884A1C2A8028
:104C1000654A89B2505429884B1C2B8080B2000A07
:104C200089B250540120634908700121002001F02D
:104C300001FA00E0052462B62000C0B232BD1CB506
:104C400000245C480078002806D0EB2254495A48DA
:104C500001F0BEFAAFF30080684601F06EFA4E48EC
:104C60000178002905D0022919D008D3032903D0DF
:104C700027E001F094FA24E001F091FA21E047499D
:104C800000220A800A88531C0B809DF80010464BB6
:104C900092B299540221017001F081FA11E03F496A
:104CA0000A88B2F5807F08DA0888421C0A809DF8DD
:104CB00000103D4A80B2115401E00321017001F05F
:104CC0006EFA2000C0B216BD70B5002432480078DC
:104CD000012807D04FF493723149384801F078FA2F
:104CE000AFF30080334E3078002802D0012805D081
:104CF0001EE00021012001F09DF919E02C4D2888CB
:104D000000280BD0294E3068007801F007FA30688F
:104D1000401C30602888401E288009E0032000F0F5
:104D200056F804000021012001F084F900203070C1
:104D30002000C0B270BD38B50024174D2878002877
:104D400004D0022807D003280AD00AE0002000F08F
:104D50003EF8040016E0012000F039F8040011E0EC
:104D600010E0287800280DD0287802280AD028786A
:104D7000032807D04FF4B0720949114801F028FA0E
:104D8000AFF3008001F014FA012028702000C0B2B7
:104D900032BD0000A07F17007F5F0020725F0020FF
:104DA00060B100085CB3000878550020205F002047
:104DB000705F00207E5F0020A8B20008C4B2000827
:104DC000FCB0000800200C49087001207047012148
:104DD000094A11700949087001207047020000203B
:104DE000054B1978002905D0044800781070002080
:104DF00018700120C0B27047825F0020815F0020E0
:104E000038B50400FFF7BCFD050014F1010F02D016
:104E1000044800782418FFF7B3FD401BA042FAD3E2
:104E200031BD00BF1501002010B50400002C01D1D8
:104E3000012035E0A0690028FFD1A06F002805D12E
:104E4000002084F87400200001F033FA2420A067C9
:104E5000206800684008400021680860200000F0D9
:104E60002AFA012801D101201AE0606A002802D044
:104E7000200000F059FB2068406830F49040216821
:104E800048602068806830F02A00216888602068C7
:104E9000006850F0010021680860200000F0B1FBBC
:104EA00010BD10B50400002C01D1012020E0242009
:104EB000A067206800684008400021680860002062
:104EC000216808600020216848600020216888600F
:104ED000200001F04FFA0020C4F880000020A067F5
:104EE0000020E06700202066002084F87400002085
:104EF00010BD2DE9FC4106000D0014001F00B06F2D
:104F000020285BD1002D03D0200080B2002801D1E1
:104F1000012054E096F87400012801D102204EE0EF
:104F2000012086F874000020C6F880002120B067B8
:104F3000FFF726FD8046A6F85040A6F85240B0681C
:104F4000B0F5805F04D13069002801D1002401E070
:104F50002C000025002086F8740011E020783168CC
:104F60000885641C07E0002CF8D12888C005C00D16
:104F700031680885AD1CB6F85200401EA6F85200F4
:104F8000B6F8520000280AD000974346002280213C
:104F9000300000F06DFB0028E5D003200FE0009703
:104FA000434600224021300000F062FB002801D07F
:104FB000032004E02020B067002000E00220BDE8CC
:104FC000F68138B504002068C1692068026820684D
:104FD000836840F60F00084000280AD18D0608D5E6
:104FE000950606D5606E002802D02000616E8847C5
:104FF0005FE1002800F0A280D80704D4DFF80405A0
:10500000024200F09B8011F00100C0B200280AD0DB
:10501000D00508D5012025682862D4F8800050F01A
:105020000100C4F8800088070DD513F00100C0B25C
:10503000002808D0022025682862D4F8800050F0AB
:105040000400C4F8800048070DD513F00100C0B279
:10505000002808D0042025682862D4F8800050F089
:105060000200C4F8800008070FD5900604D413F09E
:105070000103DBB2002B08D0082023681862D4F8A3
:10508000800050F00800C4F8800008050BD55001DE
:1050900009D54FF4006023681862D4F8800050F0FE
:1050A0002000C4F88000D4F88000002845D088068D
:1050B00007D5900605D5606E002802D02000616EED
:1050C0008847D4F8800021688968490602D410F026
:1050D000280F2CD0200000F03AFB206880684006A2
:1050E00021D52068083050E8001F31F040012068C9
:1050F00010F1080242E800100028F2D1206F0028C9
:105100000DD00FF2A160216F4863206FFFF76FFB96
:10511000002812D0206F216F496B88470DE02000D6
:1051200001F05AF909E0200001F056F905E02000ED
:1051300001F052F90020C4F88000BAE0206E012886
:1051400040F09880C80640F19580D00640F19280EA
:1051500010202168086220688068400651D5206FC1
:1051600000684168080080B2002849D00800B4F8FF
:10517000582080B2904243D2A4F85A10206F806920
:10518000202834D0206850E8001F31F48071226854
:1051900042E800100028F5D12068083050E8001FD0
:1051A00049084900206810F1080242E80010002870
:1051B000F2D12068083050E8001F31F0400120682B
:1051C00010F1080242E800100028F2D12020E06728
:1051D00000202066206850E8001F31F0100122688E
:1051E00042E800100028F5D1206FFFF7DCFAB4F890
:1051F0005810B4F85A00091A89B2200001F0EDF8ED
:1052000057E0B4F85800B4F85A10411AB4F85A00EC
:1052100000282ED0080080B200282AD0206850E84C
:10522000002F32F49072236843E800200028F5D163
:105230002068083050E8002F52085200206810F112
:10524000080343E800200028F2D12020E067002076
:10525000206600206066206850E8002F32F01002BF
:10526000236843E800200028F5D189B2200001F02E
:10527000B4F81EE0C80209D5580207D55FF48010C3
:1052800021680862200001F0F1F812E0080608D554
:10529000100606D5A06E002802D02000A16E884717
:1052A00007E0480605D5500603D5200000F085FA32
:1052B000FFE731BD000038B504000025A168206972
:1052C000014360690143E0690143206802688E4838
:1052D00002401143206801602068416831F4405168
:1052E000E068014320684160A169206A01432068A9
:1052F000806830F430600143206881602068834911
:10530000884215D18248006810F00300002805D0BB
:10531000022809D006D3032802D007E0012080E04C
:1053200002207EE004207CE008207AE0102078E073
:1053300020687849884219D17548006810F44030D7
:10534000002809D0B0F5803F0AD0B0F5003F09D061
:10535000B0F5403F02D007E0002062E0022060E0AC
:1053600004205EE008205CE010205AE020686A49D2
:10537000884219D16648006810F44020002809D0FE
:10538000B0F5802F0AD0B0F5002F09D0B0F5402F2E
:1053900002D007E0002044E0022042E0042040E088
:1053A00008203EE010203CE020685C49884219D18A
:1053B0005748006810F44010002809D0B0F5801F4D
:1053C0000AD0B0F5001F09D0B0F5401F02D007E0A9
:1053D000002026E0022024E0042022E0082020E033
:1053E00010201EE020684E49884219D148480068C4
:1053F00010F44000002809D0B0F5800F0AD0B0F5B5
:10540000000F09D0B0F5400F02D007E0002008E0FF
:10541000022006E0042004E0082002E0102000E062
:105420001020E169B1F5004F35D1C0B2002808D095
:10543000012809D002280AD004280AD008280BD055
:105440000DE001F064FC0CE001F071FC09E035486E
:1054500007E001F025FC04E04FF4004001E00020EB
:105460000125002846D06168490811EB40016068B9
:10547000B1FBF0F080B24FF6F071B0F110028A4249
:1054800007D20140C0F34200014389B22068C160E5
:1054900030E001252EE0C0B2002808D0012809D054
:1054A00002280AD004280AD008280BD00DE001F009
:1054B0002EFC0CE001F03BFC09E01A4807E001F08B
:1054C000EFFB04E04FF4004001E00020012500283C
:1054D00010D0616810EB51006168B0FBF1F080B250
:1054E000B0F110014FF6F072914202D22168C8600B
:1054F00000E00125002060660020A0662800C0B200
:1055000032BD000020010004F369FFFF00380140B4
:10551000301002400044004000480040004C004071
:105520000050004000127A0090F82410C90707D5F7
:1055300001684A6832F40032816A0A4301684A60AD
:1055400090F82410890707D501684A6832F4803240
:10555000C16A0A4301684A6090F82410490707D5D8
:1055600001684A6832F48022016B0A4301684A608C
:1055700090F82410090707D501684A6832F4004200
:10558000416B0A4301684A6090F82410C90607D5A8
:1055900001688A6832F48052816B0A4301688A602C
:1055A00090F82410890607D501688A6832F4005201
:1055B000C16B0A4301688A6090F82410490613D52C
:1055C00001684A6832F48012016C0A4301684A603B
:1055D000016CB1F5801F07D101684A6832F4C0023E
:1055E000416C0A4301684A6090F82410090607D507
:1055F00001684A6832F40022816C0A430068426004
:10560000704738B504000020C4F88000FFF7B8F9EF
:1056100005002068006800070DD57FF07E400090EF
:105620002B0000225FF40011200000F021F8002878
:1056300001D003201BE02068006840070DD57FF0F3
:105640007E4000902B0000225FF48001200000F0DB
:105650000FF8002801D0032009E02020A0672020B7
:10566000E06700202066002084F87400002032BD2E
:105670002DE9F04105000E0090461F00069C2868A9
:10568000C0693040B04201D1012000E00020414615
:10569000C9B2884258D114F1010FF0D0FFF770F968
:1056A000C01B844201D3002C1FD1286850E8001F82
:1056B00031F4D0712A6842E800100028F5D128683A
:1056C000083050E8001F49084900286810F1080216
:1056D00042E800100028F2D12020A8672020E867C7
:1056E000002085F8740003202FE028680068400738
:1056F000C5D52868C0690005C1D54FF40060296888
:105700000862286850E8001F31F4D0712A6842E826
:1057100000100028F5D12868083050E8001F49081B
:105720004900286810F1080242E800100028F2D170
:105730002020A8672020E8672020C5F880000020EE
:1057400085F87400032000E00020BDE8F0810168C6
:1057500051E8002F32F49072036843E800210029D9
:10576000F5D10168083151E8002F52085200016854
:1057700011F1080343E800210029F2D1016E01294B
:1057800009D1016851E8002F32F01002036843E8A4
:1057900000210029F5D12021C167002101660021E7
:1057A0004166704780B5406A0021A0F85A10002178
:1057B000A0F8521000F010FE01BD80B5016851E85C
:1057C000002F32F04002036843E800210029F5D1A0
:1057D000202181670021816601F0F8FA01BD82680D
:1057E000521C8260426832B10268531C036011701F
:1057F0004168491E4160704708B438B585B009ACAE
:1058000000250494039500290EBF01950190491EBF
:105810000291009504AB01A9074878441A3001F0C1
:10582000D7FA019901B10D70002858BF039806B04E
:1058300030BC5DF808FB00BFA7FFFFFF00F10103CC
:10584000810704D010F8011B820781B1FAD10268E8
:10585000A2F10131914311F0803104BF50F8042FBF
:10586000F6E709BAB1FA81F100EBD100401CC01A89
:1058700070472E002DE9F84304000025FEF7C9F912
:10588000DFF83492D9F80000002801D100F0B5F813
:105890008A4F3868044266D1002C15D088480068C9
:1058A000041914F0070F0FD014F1080014F00704C6
:1058B000041B14F0070F07D0502080F31188BFF3AA
:1058C0004F8FBFF36F8FFEE7002C4CD0DFF8F481D1
:1058D000D8F80000A04246D37B480100066801E0EA
:1058E000310036687068A04202D230680028F7D1D3
:1058F000D9F80000864236D071480A68036802EB86
:10590000030532680A60006840007168091B88421C
:1059100014D206EB040111F00700002807D0502034
:1059200080F31188BFF34F8FBFF36F8FFEE770686E
:10593000001B48607460080000F08EF8D8F8001072
:105940007068091AC8F800106048D8F8001002689A
:10595000914202D2D8F800100160716838680143A2
:10596000716000203060FEF75AF915F0070000283A
:1059700007D0502080F31188BFF34F8FBFF36F8F94
:10598000FEE72800BDE8F28310B50100002833D0FF
:105990004B480068404201EB0004484960680A68CF
:1059A000104207D1502080F31188BFF34F8FBFF30F
:1059B0006F8FFEE72068002807D0502080F3118801
:1059C000BFF34F8FBFF36F8FFEE760680A68104226
:1059D00012D0206800280FD1626808688243626094
:1059E000FEF717F937490A68606882180A602000D4
:1059F00000F032F8FEF713F910BD10B44FF4A042D6
:105A00003348010011F0070F04D0C91DC908C900AF
:105A1000521A82182C48016000234360521828480B
:105A20000068121AD208D2002348026000230468DA
:105A30006360002304682360521A4A6000680860AB
:105A40004868224A106048681E4908605FF00040BC
:105A50001A49086010BC704710B41B4A00E0126875
:105A600011688142FBD3110053681944814204D16B
:105A700051684068411851601000010043681944A2
:105A80001368994210D10C4913680C68A34208D0DE
:105A9000436811684968CB18436011680968016060
:105AA00004E00968016001E011680160824200D0F1
:105AB000106010BC70470000E85E0020F45E00201B
:105AC00080B50008EC5E0020D05E0020F05E002073
:105AD0001801002010F1080141605FF0FF31816082
