:020000040800F2
:10000000006500208D6E0008056D0008076D000872
:10001000096D00080B6D00080D6D00080000000060
:10002000000000000000000000000000AD640008B7
:100030000F6D00080000000055640008F961000819
:10004000E56E0008E96E0008ED6E0008F16E00082C
:10005000F56E0008F96E0008FD6E0008016F0008DB
:10006000056F0008096F00080D6F0008116F000888
:10007000156F0008196F00081D6F0008216F000838
:10008000256F0008296F00082D6F0008316F0008E8
:10009000356F0008396F00083D6F0008416F000898
:1000A000456F0008496F00084D6F0008516F000848
:1000B000556F0008596F00085D6F0008616F0008F8
:1000C000656F0008696F00086D6F0008716F0008A8
:1000D000756F0008116D0008796F00087D6F0008CA
:1000E000816F0008856F0008896F00088D6F000818
:1000F000916F0008956F0008996F00089D6F0008C8
:10010000000000000000000000000000A16F0008D7
:10011000A56F0008A96F0008AD6F00081B6D0008EF
:10012000B16F0008B56F0008B96F0008BD6F000817
:10013000C16F0008C56F000800000000000000004B
:10014000C96F0008CD6F0008D16F000800000000E3
:10015000000000000000000000000000000000009F
:100160000000000000000000D56F0008D96F0008F3
:10017000DD6F00080000000000000000000000002B
:1001800000000000E16F000818B595B00C220021B6
:10019000684600F09BFD1C22002103A800F096FD9C
:1001A0002C2200210AA800F091FDDFF8BC4ADFF8FC
:1001B000BC0A2060002060600020A0600020E06099
:1001C00000202061002060610020A061200000F07C
:1001D00033FE002801D001F06BFA002000900020CF
:1001E0000190002002906946200001F06FFA00287B
:1001F00001D001F05DFA60200390002004900020FF
:100200000590002006900020079000200890002014
:100210000990002203A9200000F015FF002801D05A
:1002200001F046FA042203A9200000F00CFF002888
:1002300001D001F03DFA082203A9200000F003FFDD
:10024000002801D001F034FA0C2203A9200000F0AC
:10025000FAFE002801D001F02BFA00200A900020BD
:100260000B9000200C9000200D9000200E904FF479
:1002700000500F9000201090002011905FF000704F
:10028000129000201390002014900AA9200001F081
:1002900066FA002801D001F00BFA200000F0A3FB61
:1002A00016B010BD10B58AB00C220021684600F0CF
:1002B0000DFD1C22002103A800F008FDDFF8B04965
:1002C0005FF080402060002060600020A06000207F
:1002D000E060002020610020A061200000F0ACFD63
:1002E000002801D001F0E4F90020009000200290E5
:1002F0006946200001F0EAF9002801D001F0D8F9A0
:1003000060200390002004900020059000200790BA
:10031000002203A9200000F096FE002801D001F081
:10032000C7F9042203A9200000F08DFE002801D0A7
:1003300001F0BEF9082203A9200000F084FE002885
:1003400001D001F0B5F90C2203A9200000F07BFEDA
:10035000002801D001F0ACF9200000F044FB0AB005
:1003600010BD10B58AB00C220021684600F0AEFC2A
:100370001C22002103A800F0A9FCDFF8F848DFF8F0
:10038000F8082060002060600020A0600020E0608D
:10039000002020610020A061200000F04DFD002819
:1003A00001D001F085F900200090002002906946FC
:1003B000200001F08BF9002801D001F079F96020CC
:1003C0000390002004900020059000200790002258
:1003D00003A9200000F037FE002801D001F068F9E1
:1003E000042203A9200000F02EFE002801D001F015
:1003F0005FF9082203A9200000F025FE002801D0A3
:1004000001F056F90C2203A9200000F01CFE002880
:1004100001D001F04DF9200000F0E5FA0AB010BD5E
:1004200010B58AB00C220021684600F04FFC1C2257
:10043000002103A800F04AFCDFF84048DFF840083C
:100440002060002060600020A0600020E0600020AC
:1004500020610020A061200000F0EEFC002801D007
:1004600001F026F90020009000200290694620004B
:1004700001F02CF9002801D001F01AF96020039056
:10048000002004900020059000200790002203A97E
:10049000200000F0D8FD002801D001F009F9042265
:1004A00003A9200000F0CFFD002801D001F000F9E1
:1004B000082203A9200000F0C6FD002801D001F0A9
:1004C000F7F80C2203A9200000F0BDFD002801D0A0
:1004D00001F0EEF8200000F086FA0AB010BD1FB55A
:1004E0000C220021684600F0F1FBDFF89847DFF8A6
:1004F00098072060002060600020A0600020E0607D
:100500000020A061200000F0EBFB002801D001F0EA
:10051000CFF800200090002002906946200001F0F2
:10052000D5F8002801D001F0C3F81FBD18B595B06B
:100530000C220021684600F0C9FB1C22002103A800
:1005400000F0C4FB2C2200210AA800F0BFFBDFF85A
:100550003C47DFF83C072060002060600020A0607E
:100560000020E06000202061002060610020A06188
:10057000200000F061FC002801D001F099F8002073
:10058000009000200190002002906946200001F0B8
:100590009DF8002801D001F08BF860200390002026
:1005A0000490002005900020069000200790002075
:1005B000089000200990002203A9200000F043FDCC
:1005C000002801D001F074F8042203A9200000F0F3
:1005D0003AFD002801D001F06BF8082203A92000A1
:1005E00000F031FD002801D001F062F80C2203A9CF
:1005F000200000F028FD002801D001F059F800206B
:100600000A9000200B9000200C9000200D900020FC
:100610000E904FF400500F90002010900020119089
:100620005FF00070129000201390002014900AA92F
:10063000200001F094F8002801D001F039F82000E2
:1006400000F0D1F916B010BD18B595B00C220021FC
:1006500007A800F03BFB1C220021684600F036FB97
:100660002C2200210AA800F031FBDFF82846DFF831
:1006700028062060002060600020A0600020E0606C
:1006800000202061002060610020A061200000F0B7
:10069000D3FB002801D001F00BF8002007900020C8
:1006A000099007A9200001F011F8002801D000F0FE
:1006B000FFFF6020009000200190002002900020A9
:1006C0000390002004900020059000200690002256
:1006D0006946200000F0B7FC002801D000F0E8FFD8
:1006E00004226946200000F0AEFC002801D000F092
:1006F000DFFF00200A9000200B9000200C900020CB
:100700000D9000200E904FF400500F90002010909C
:10071000002014900AA9200001F021F8002801D03F
:1007200000F0C6FF200000F05EF916B010BD10B555
:1007300092B01C2200210BA800F0C8FA2C22002144
:10074000684600F0C3FADFF85445DFF8540520602E
:10075000002060600020A0600020E0600020206198
:10076000002060610020A061200000F0B9FA00289C
:1007700001D000F09DFF200000F05EFB002801D0BA
:1007800000F096FF60200B9000200C9000200D9050
:1007900000200E9000200F9000201090002011905B
:1007A00000220BA9200000F04EFC002801D000F030
:1007B0007FFF002000900020019000200290002088
:1007C0000390002004904FF4005005900020069004
:1007D00000200A906946200000F0C1FF002801D0E7
:1007E00000F066FF200000F0FEF812B010BD10B55A
:1007F00092B01C2200210BA800F068FA2C220021E4
:10080000684600F063FADFF89C44DFF89C0420603F
:10081000002060600020A0600020E06000202061D7
:10082000002060610020A061200000F059FA00283B
:1008300001D000F03DFF200000F0FEFA002801D0BA
:1008400000F036FF60200B9000200C9000200D90EF
:1008500000200E9000200F9000201090002011909A
:1008600000220BA9200000F0EEFB002801D000F0D0
:100870001FFF002000900020019000200290002027
:100880000390002004904FF4005005900020069043
:1008900000200A906946200000F061FF002801D086
:1008A00000F006FF200000F09EF812B010BD81B0ED
:1008B0000168DFF8B82391420BD1DFF8F00301683B
:1008C00051F400610160006810F40060009000982D
:1008D00052E00168B1F1804F0BD1DFF8D403016819
:1008E00051F001010160006810F0010000900098D3
:1008F00042E00168DFF8802391420BD1DFF8B003BA
:10090000016851F002010160006810F002000090DF
:10091000009831E00168DFF8682391420BD1DFF8DD
:100920009003016851F004010160006810F00400B8
:100930000090009820E00168DFF8542391420BD129
:10094000DFF86803016851F400510160006810F499
:100950000050009000980FE00068DFF83C138842D8
:100960000AD1DFF84803016851F480310160006862
:1009700010F480300090009801B0704781B0016899
:10098000DFF8042391420BD1DFF82403016851F012
:1009900010010160006810F010000090009820E045
:1009A0000168DFF8FC2291420BD1DFF800030168F7
:1009B00051F400310160006810F40030009000989C
:1009C0000FE00068DFF8E01288420AD1DFF8DC02AD
:1009D000016851F480210160006810F480200090CB
:1009E000009801B0704710B586B0040014220021B1
:1009F000684600F06BF920689C49884233D1DFF8E3
:100A0000B402016851F400110160016811F4001191
:100A100005910599016851F400310160006810F4F6
:100A20000030059005984FF4285000900220019066
:100A300000200290002003900220049069469E4806
:100A400000F0E0FE4FF400600090022001900020D2
:100A50000290002003900B20049069465FF09040C4
:100A600000F0D0FEFEE02068B0F1804F30D1914818
:100A7000016851F480210160016811F48021059121
:100A80000599016851F480110160006810F480102C
:100A9000059005984FF440600090022001900020DE
:100AA000029000200390012004906946834800F0E2
:100AB000A9FE182000900220019000200290002042
:100AC00003900220049069467D4800F09BFEC9E037
:100AD00020686949884218D17648016851F40011AC
:100AE0000160006810F40010059005983C2000900B
:100AF0000220019000200290002003900220049028
:100B000069466D4800F07EFEACE020685C49884292
:100B100031D16848016851F480110160016811F415
:100B2000801105910599016851F4802101600068E8
:100B300010F48020059005984FF4004000900220AA
:100B4000019000200290002003900220049069464A
:100B50005B4800F057FE4FF4E070009002200190D7
:100B60000020029000200390022004906946534820
:100B700000F048FE76E020684549884219D14D488A
:100B8000016851F400210160006810F40020059014
:100B900005984FF4707000900220019000200290A0
:100BA00000200390042004906946464800F02AFE85
:100BB00058E020683849884219D13E48016851F40C
:100BC00080010160006810F48000059005984FF4E2
:100BD000C06000900220019000200290002003904D
:100BE000032004906946384800F00CFE3AE0206883
:100BF0002B49884219D12F48016851F40031016016
:100C0000006810F400300590059840200090022004
:100C1000019000200290002003900120049069467A
:100C20005FF0904000F0EEFD1CE020681E49884215
:100C300018D12048016851F400310160006810F4B7
:100C4000003005900598802000900220019000203F
:100C50000290002003900120049069465FF09040CC
:100C600000F0D0FD06B010BD24590020002C01403A
:100C700070590020BC59002000040040085A002090
:100C800000080040545A002000100040A05A0020E4
:100C900000340140EC5A002000400140385B002045
:100CA00000440140845B00200048014018100240CD
:100CB0001C100240141002400010004800040048BC
:100CC000000C0048000800480014004810B5044615
:100CD00010460A460146204600F084FE204610BD1C
:100CE00010B50400002C01D1012035E094F83D003E
:100CF000002805D1002084F83C002000FFF73EFECC
:100D0000022084F83D00211D206800F047FA0120F0
:100D100084F84800012084F83E00012084F83F0058
:100D2000012084F84000012084F84100012084F86B
:100D30004200012084F84300012084F8440001208F
:100D400084F84500012084F84600012084F847001B
:100D5000012084F83D00002010BD90F83D100129CD
:100D600001D001203DE0022180F83D100168C968F2
:100D700051F001010268D1600168DFF8A4209142BE
:100D800017D00168B1F1804F13D00168DFF89420CB
:100D900091420ED00168DFF89020914209D001689D
:100DA000DFF88820914204D00168DFF88420914266
:100DB00010D101688A68DFF87C100A40062A0FD03B
:100DC000B2F5803F0CD00168096851F0010100685C
:100DD000016005E00168096851F0010100680160E7
:100DE000002070470168C968490849000268D1605D
:100DF0000168096A41F2111211420BD10168096AB6
:100E000040F24442114205D101680968490849008D
:100E100002681160012180F83D1000207047000039
:100E2000002C014000040040000800400034014054
:100E3000004001400700010010B50400002C01D162
:100E4000012035E094F83D00002805D1002084F809
:100E50003C002000FFF72BFD022084F83D00211DFF
:100E6000206800F09BF9012084F84800012084F8F4
:100E70003E00012084F83F00012084F8400001205A
:100E800084F84100012084F84200012084F84300E6
:100E9000012084F84400012084F84500012084F8F2
:100EA0004600012084F84700012084F83D0000201E
:100EB00010BD10B504002068006980071AD52068AD
:100EC000C068800716D57FF0020021680861012004
:100ED00020772068806910F0030F03D0200000F015
:100EE000B4FD05E0200000F0B1FD200000F0AFFDF2
:100EF000002020772068006940071AD52068C06864
:100F0000400716D57FF00400216808610220207791
:100F10002068806910F4407F03D0200000F095FD28
:100F200005E0200000F092FD200000F090FD002080
:100F300020772068006900071AD52068C06800077C
:100F400016D57FF00800216808610420207720680A
:100F5000C06910F0030F03D0200000F076FD05E01B
:100F6000200000F073FD200000F071FD00202077CC
:100F700020680069C0061AD52068C068C00616D56A
:100F80007FF0100021680861082020772068C06980
:100F900010F4407F03D0200000F057FD05E0200052
:100FA00000F054FD200000F052FD00202077206862
:100FB0000069C0070AD52068C068C00706D57FF061
:100FC000010021680861200000F064FB20680069CE
:100FD00000060AD52068C068000606D57FF08000AC
:100FE00021680861200000F033FD20680069C00519
:100FF0000AD52068C068000606D57FF48070216895
:101000000861200000F025FD2068006940060AD52F
:101010002068C068400606D57FF04000216808615E
:10102000200000F017FD2068006980060AD52068BE
:10103000C068800606D57FF0200021680861200086
:1010400000F009FD10BD38B504000D0094F83C0017
:10105000012801D10220A0E0012084F83C00002AF0
:101060000AD0042A1FD0082A35D00C2A4AD0102AC8
:1010700060D0142A75D08CE02900206800F0E9F8CF
:101080002068806950F008002168886120688069C4
:1010900030F0040021688861206881692869014373
:1010A0002068816175E02900206800F020F920683F
:1010B000806950F40060216888612068806930F49C
:1010C00080602168886120688069296950EA012070
:1010D000216888615DE02900206800F04CF92068F3
:1010E000C06950F008002168C8612068C06930F00C
:1010F00004002168C8612068C1692869014320682B
:10110000C16146E02900206800F075F92068C069D7
:1011100050F400602168C8612068C06930F48060C4
:101120002168C8612068C069296950EA01202168E6
:10113000C8612EE02900206800F08CF92068406D1D
:1011400050F00800216848652068406D30F00400C8
:10115000216848652068416D286901432068416520
:1011600017E02900206800F0A1F92068406D50F4D4
:101170000060216848652068406D30F48060216817
:1011800048652068406D296950EA0120216848655A
:10119000FFE7002084F83C00002032BD10B4046852
:1011A000DFF8643398420ED0B0F1804F0BD0DFF8F7
:1011B0005C23904207D0DFF85823904203D0DFF839
:1011C0005423904203D134F070044A681443984287
:1011D0001AD0B0F1804F17D0DFF83023904213D0EF
:1011E000DFF82C2390420FD0DFF8282390420BD059
:1011F000DFF82423904207D0DFF82023904203D069
:10120000DFF81C23904203D134F44074CA681443BD
:1012100034F080044A69144304608A68C2620A6830
:10122000826298420FD0DFF8EC2290420BD0DFF8B8
:10123000E822904207D0DFF8E422904203D0DFF8A2
:10124000E022904201D1096901630121416110BC92
:10125000704770B4026A520852000262056A43681D
:101260008469DFF8C0221440A408A4000A6814436B
:1012700035F002058A681543DFF88C62B0420FD062
:10128000DFF8902290420BD0DFF88C22904207D0FA
:10129000DFF88822904203D0DFF88422904205D103
:1012A00035F00805CA68154335F00405B0420FD083
:1012B000DFF8602290420BD0DFF85C22904207D02A
:1012C000DFF85822904203D0DFF85422904207D131
:1012D00033F4807333F400734A6913438A69134308
:1012E0004360846149684163056270BC704770B4B3
:1012F000026A32F010020262056A43688469DFF80C
:101300002822144034F440740A6854EA022435F068
:1013100020058A6855EA0215DFF8EC21904203D0D7
:10132000DFF8F061B04206D135F08005CE6855EAAD
:10133000061535F0400590420CD0DFF8D8219042D8
:1013400008D0754A904205D0744A904202D0744A3F
:10135000904209D133F4806333F400634A6953EA5D
:1013600082038A6953EA8203436084614968816326
:10137000056270BC704770B4026A32F48072026217
:10138000056A4368C469674A1440A408A4000A684F
:10139000144335F400758A6855EA02255A4A90428A
:1013A00002D05C4EB04206D135F40065CE6855EAF5
:1013B000062535F4806590420BD0564A904208D0FD
:1013C000554A904205D0554A904202D0544A904224
:1013D00009D133F4805333F400534A6953EA0213BA
:1013E0008A6953EA02134360C4614968C1630562B4
:1013F00070BC7047000030B4026A32F4805202625E
:10140000036A4568C469484A144034F440740A6861
:1014100054EA022433F400538A6853EA02333A4A06
:1014200090420BD03B4A904208D03B4A904205D0B4
:101430003A4A904202D03A4A904204D135F480456B
:101440004A6955EA82154560C461496801640362CE
:1014500030BC704730B4026A32F480320262036AF0
:101460004568446D2F4A14400A68144333F400332E
:101470008A6853EA0243244A90420BD0254A90429C
:1014800008D0254A904205D0244A904202D0244AEE
:10149000904204D135F480354A6955EA0225456009
:1014A000446549688165036230BC704730B4026AA4
:1014B00032F480120262036A4568446D1A4A14408D
:1014C0000A6854EA022433F400138A6853EA025388
:1014D0000D4A90420BD00F4A904208D00E4A9042DB
:1014E00005D00E4A904202D00D4A904204D135F404
:1014F00080254A6955EA8225456044654968C16589
:10150000036230BC70470000002C01400004004022
:101510000008004000340140004001400044014008
:10152000004801408FFFFEFFFF8FFFFE2DE9F843CB
:10153000EEB000F091FA00F069F800F09FFA00F0C8
:1015400033FB00F0C8FBFEF71FFEFEF7ABFEFEF715
:1015500008FFFEF765FFFEF7E9FFFEF7C0FF00F0AA
:10156000E5FC00F075FB00F091FD00F0B7FDFFF722
:101570006BF8FFF7DCF8FFF73AF900F0F8FC63A826
:1015800000F021FF474D00BF4EA105F5CC7463A8C4
:10159000C4F80400D1E900230FF2201045A1D0E9DE
:1015A0000067CDE90323D1E90089CDE90167CDF8D2
:1015B0000090434600223C4963A800F021FE606889
:1015C000294600F072FE2868D0B9012100200143AD
:1015D000207801430FD04FF4E1360D2783B02E6001
:1015E0006F60294668464FF4CC7200F017FF0EBCBE
:1015F000606800F07AFE00F079FF01F00CF8FEE779
:10160000002110F1010FE1D10120E0E780B59EB08B
:101610002822002105A8FFF759FB14220021684663
:10162000FFF754FB3C2200210FA8FFF74FFB4FF4BC
:1016300080310022069107920D91012005900990BA
:1016400002224FF4E0110C920E9105A801F022F84D
:10165000022101910F204FF480610090002203913C
:10166000029204920221684601F04EFB0021119182
:10167000129143F283104FF4807118910F904FF440
:101680000052002119921B911C910FA801F0B0FC8F
:101690001FB000BD00680549884208BF01F0D0BDF9
:1016A00070470000EC5200208457002000140040D6
:1016B00070470000000C00480400000000100048C3
:1016C00001000000000400480002000070B490F81F
:1016D0003C20012A01D102203FE0012280F83C2079
:1016E000022280F83D200268546802689368404DE9
:1016F0000268AA4203D00268404EB24203D134F4D9
:1017000070044A68144334F070040A681443026891
:1017100054600268AA4213D00268B2F1804F0FD021
:101720000268344CA2420BD00268334CA24207D06C
:101730000268324CA24203D00268314CA24205D169
:1017400033F0800389680B4301688B60012180F8C6
:101750003D10002180F83C10002070BC704710B490
:10176000002390F83C20012A01D102203EE0012212
:1017700080F83C201B0A1B02CA68134333F44073F1
:101780008A68134333F480634A68134333F4006375
:101790000A68134333F480530A69134333F4005344
:1017A0004A69134333F480438A6A134333F4702342
:1017B0008A6953EA024302680D4CA24203D00268D0
:1017C0000E4CA2420CD133F470034A6A53EA02531E
:1017D00033F08073CA69134333F00073096A0B4313
:1017E00001684B64002180F83C10002010BC704759
:1017F000002C01400004004000080040003401407B
:1018000000400140F8B40200002433E0052704E062
:10181000DFF8A8319A42F9D1042714F00303DBB2B0
:101820009B009F403E4323009B0845F82360DFF860
:1018300090512B6883434E68F60300D503432B6019
:10184000604D2B6883434E68B60300D503432B607D
:101850005D4D2B6883434E68F60200D503432B6031
:101860005A4D2B6883434E68B60201D518430300D6
:101870002B60641C0868E040002800F0948001257B
:10188000086815FA04F318400028F2D04B68012BC1
:1018900008D04B68022B05D04B68112B02D04B6847
:1018A000122B16D1966803272300DBB25B009F4002
:1018B000BE43CF682300DBB25B009F403E4396608F
:1018C0005368A540AB434D68C5F30015A5402B43B5
:1018D0005360D66803252300DBB25B0015FA03F3DF
:1018E0009E438F682300DBB25B009F403E43D6607F
:1018F0004B68022B02D04B68122B17D12300DB0858
:1019000002EB83031E6A0F2714F00703DBB29B0070
:101910009F40BE430F6914F00703DBB29B009F405A
:101920003E432300DB0802EB83031E62166823009C
:10193000DBB25B009D40AE430D7915F0030523003B
:10194000DBB25B009D402E4316604B68DB0090D5F8
:101950001F4B1D6855F001051D601B6813F0010346
:101960000093009B1B4D23009B0855F823600F2715
:1019700014F00303DBB29B009F40BE43B2F1904FD3
:1019800001D1002749E7144B9A4201D1012744E7CE
:10199000124B9A4201D102273FE7114B9A427FF442
:1019A00037AF032739E7F1BC7047D2B2002A02D023
:1019B00089B2816101E089B28162704700100048FC
:1019C0000004014004040140080401400C040140EB
:1019D00018100240080001400004004800080048B8
:1019E000000C004862F30F2262F31F42401810F00F
:1019F000030308D0C91A1FD3DB0748BF00F8012D25
:101A000028BF20F8022D130030B4144615461039B3
:101A100028BF20E93C00FAD8490728BF20E90C007C
:101A200048BF40F8042D890028BF20F8022D48BF88
:101A300000F8012D30BC7047C91818BF00F8012DFF
:101A4000CB0728BF00F8012D7047704770477047DB
:101A5000704770477047704780B50748016851F07C
:101A600010010160032001F047FC002001F068FC38
:101A700001F0A6FC002002BD0020024070B586B037
:101A8000142200216846FFF721F94348016851F408
:101A900000110160016811F40011059105990168B8
:101AA00051F480010160016811F4800105910599EC
:101AB000016851F400210160016811F400210591D1
:101AC0000599016851F400310160016811F4003199
:101AD00005910599016851F480210160016811F4B4
:101AE000802105910599016851F480110160006819
:101AF00010F480100590059800224FF400415FF02B
:101B00009040FFF752FF254C002284212000FFF770
:101B10004CFF234D00224FF404712800FFF745FFCE
:101B2000204E002201213000FFF73FFF4FF400401C
:101B3000009001200190002002900020039069464F
:101B40005FF09040FFF75EFE84200090012001903E
:101B5000002002900020039069462000FFF752FE0B
:101B60004FF40470009001200190002002900020AA
:101B7000039069462800FFF745FE012000900120F0
:101B80000190002002900020039069463000FFF78A
:101B900039FE06B070BD00BF14100240000C0048B2
:101BA000000400480010004818B589B00C2200213C
:101BB00006A8FFF78BF8182200216846FFF786F881
:101BC000DFF838435FF0A040206000206060002014
:101BD000A0600020206100206076002084F82000B2
:101BE0000020E0620120A0620020E0600120E061AE
:101BF000002084F83000042060610020207600205E
:101C00006063200001F0FCFB002801D0FFF750FDCD
:101C10000020069006A9200001F08AFF002801D0CC
:101C2000FFF746FD01200090012001900020039065
:101C300000200290002004900020059069462000BA
:101C400001F058FD002801D0FFF732FD0AB010BDA9
:101C500010B586B0182200216846FFF737F8A84C67
:101C6000A8482060002060600020A0600020206163
:101C700000206076002084F820000020E06201202F
:101C8000A0620020E0600120E061002084F83000C4
:101C9000042060610020207600206063200001F0B5
:101CA000AFFB002801D0FFF703FD012000900120C9
:101CB000019000200390002002900020049000205A
:101CC00005906946200001F015FD002801D0FFF7BE
:101CD000EFFC06B010BD10B586B018220021684692
:101CE000FEF7F4FF884C89482060002060600020E7
:101CF000A0600020206100206076002084F8200091
:101D00000020E0620120A0620020E0600120E0618C
:101D1000002084F83000042060610020207600203C
:101D20006063200001F06CFB002801D0FFF7C0FCCD
:101D300001200090012001900020039000200290DB
:101D400000200490002005906946200001F0D2FC9C
:101D5000002801D0FFF7ACFC06B010BD10B586B06E
:101D60000400142200216846FEF7B0FF2068B0F19D
:101D7000A04F4CD166480168491C016000680128E9
:101D800009D16448016851F080510160006810F089
:101D90008050059005985F48016851F4002101606A
:101DA000016811F4002105910599016851F4800141
:101DB0000160016811F4800105910599016851F4F1
:101DC00000310160006810F40030059005980F2084
:101DD0000090032001900020029069464E48FFF7D2
:101DE00011FD14200090032001900020029069460C
:101DF0004A48FFF707FD0F200090032001900020C4
:101E0000029069465FF09040FFF7FCFC74E02068A8
:101E10003C49884226D13E480168491C016000685F
:101E2000012809D13B48016851F0805101600068E8
:101E300010F08050059005983648016851F4003143
:101E40000160006810F40030059005983020009083
:101E5000032001900020029069465FF09040FFF758
:101E6000D1FC49E020682949884245D129480168C8
:101E700051F000510160016811F000510591059980
:101E8000016851F400110160016811F4001105911D
:101E90000599016851F480210160016811F48021E5
:101EA00005910599016851F480110160006810F4F2
:101EB0008010059005984FF4414000900320019058
:101EC0000020029069461648FFF79CFC4FF45040F2
:101ED0000090032001900020029069461148FFF70E
:101EE00091FC4FF4FE4000900320019000200290EE
:101EF00069460D48FFF786FC06B010BDE857002084
:101F0000385800200001005088580020000500507B
:101F1000645C0020141002400008004800140048CF
:101F20000010004800040048000C004880B54F48ED
:101F30004F4901604FF4164141600021816000214A
:101F4000C160002101610C214161002181610021FA
:101F5000C1610021016200214162002300220021B1
:101F600001F0EEFE002801D0FFF7A2FB01BD80B515
:101F70004048414901604FF41641416000218160B1
:101F80000021C160002101610C21416100218161BA
:101F90000021C161002101620021416201F01AFFAC
:101FA000002801D0FFF784FB01BD10B586B0040006
:101FB000142200216846FEF789FE20682C498842D9
:101FC0002CD12E48016851F480410160006810F462
:101FD0008040059005982A48016851F4003101605D
:101FE000006810F40030059005984FF4B050009050
:101FF000022001900020029003200390072004900B
:1020000069465FF09040FFF7FDFB00220521252087
:1020100001F076F9252001F084F925E020681649C1
:10202000884221D11748016851F4003101600068ED
:1020300010F40030059005981148016851F48011A2
:102040000160006810F480100590059860200090F1
:1020500002200190002002900320039007200490AA
:1020600069460948FFF7CEFB06B010BD18560020A0
:10207000003801409C5600200044004018100240E7
:10208000141002401C100240000C004880B5534858
:10209000534901604FF482714160002181604FF427
:1020A000E061C16000210161002141614FF40071D4
:1020B00081611821C161002101620021416200217A
:1020C00081620721C162002101630821416302F09E
:1020D000DDFA002801D0FFF7EBFA01BD80B54148D9
:1020E000414901604FF482714160002181604FF4E9
:1020F000E061C16000210161002141614FF4007184
:1021000081610821C1610021016200214162002139
:1021100081620721C162002101630821416302F04D
:10212000B5FA002801D0FFF7C3FA01BD10B586B09B
:102130000400142200216846FEF7C8FD20682849E3
:10214000884222D12948016851F480510160006819
:1021500010F48050059005982548016851F48021BD
:102160000160006810F480200590059828200090F8
:10217000022001900020029003200390052004908B
:1021800069461C48FFF73EFB26E020681649884256
:1021900022D11948016851F400410160006810F42F
:1021A0000040059005981248016851F40021016033
:1021B000006810F40020059005984FF4E05000905E
:1021C000022001900020029003200390062004903A
:1021D00069460A48FFF716FB06B010BD20570020DD
:1021E0000030014084570020003C0040181002409D
:1021F00014100240000400481C100240000800486F
:1022000008B4FCB50C00DDE90967C0E90667DDE943
:102210000767C0E90467DDE90B67C0E90867C460C8
:10222000026001A96F4A13680B6069466E4A136821
:102230000B600100002208E08B5C00EB02056B7173
:102240008B5C00EB02056B72521C032AF4DB01224B
:10225000BDF828100998FFF7A8FB0122BDF830103F
:102260000B98FFF7A2FB0122BDF820100798FFF79B
:102270009CFB0022BDF820100798FFF796FB0A236D
:10228000012201A9200002F083FA0A2301226946F3
:10229000200002F071FB0122BDF820100798FFF723
:1022A00084FB0120F6BC5DF808FB70B504000D004E
:1022B0004FF4CC760022A18A2069FFF776FB0A232F
:1022C0000422211DE06802F063FA0A23320092B270
:1022D0002900E06802F050FB05000122A18A206974
:1022E000FFF763FB84F8285070BD0EB47EB5040080
:1022F0004FF4CC7507AE3D4800788DF801003C489E
:1023000000788DF800000522002101A8FEF7DEFC10
:102310000022A18A2069FFF748FB0A2301226946AF
:10232000E06802F035FA0A23022201A9E06802F00F
:1023300023FB0122A18A2069FFF737FB0022A18A33
:102340002069FFF732FB0A2301220DF10101E06849
:1023500002F01EFA0122A18A2069FFF726FB002263
:10236000A18A2069FFF721FB0A2301226946E06860
:1023700002F00EFA0A23022201A9E06802F0FCFA38
:102380000122A18A2069FFF710FB0022A18A20699F
:10239000FFF70BFB0A23042214F10801E06802F0A6
:1023A000F7F90A232A0092B23100E06802F0F0F94E
:1023B00005000122A18A2069FFF7F7FA84F8285066
:1023C00077BC5DF810FB10B50400201D09490422FC
:1023D00000F014F814F108000749042200F00EF888
:1023E000200010BDD86E0008DC6E0008D23D000849
:1023F000D33D0008D06E0008D46E000862B38B078E
:1024000008D0521E11F8013B00F8013B00F0248077
:102410008B07F6D1830740F0208000BF103A07D326
:1024200030B4B1E83810103AA0E83810F9D230BC16
:10243000530724BFB1E80810A0E8081044BF51F8C2
:10244000043B40F8043BD20724BF31F8022B20F8AC
:10245000022B44BF0B7803707047121F17D35B0029
:1024600009D151F8043B20F8023B1B0C121F20F845
:10247000023BF6D20BE051F8043B00F8013B1B0A8B
:1024800020F8023B1B0C121F00F8013BF3D238BFAF
:10249000121D521E24BF11F8013B00F8013BF8D871
:1024A000704730B4002513E050F8042BD30744BF25
:1024B000A9F101039A18091F042942F8045BFAD212
:1024C00013468C0744BF15809B1CC90748BF1D706D
:1024D00050F8041B0029E7D130BC70472E4B036035
:1024E00003F15400086080211160704710B58EB070
:1024F0000DF11C0034A1294C1C22FFF78FFF002195
:1025000007A800F08DF820601C22684635A1FFF76F
:1025100085FF0021684600F083F860600EB010BDB2
:1025200038B500BF27A31E481C6800940122102163
:10253000FFF73BFA002280211A481B4C1B4DFFF786
:1025400034FA28680028FCD0002129606423042282
:102550006946204602F01CF901224FF400414FF079
:102560009040FFF722FA012000F089F800224FF492
:1025700000414FF09040E2E780B500210C4803682D
:10258000009103224168C9B2002002F06BFD02F005
:10259000B6FD02F0C4FDFCE798500020545C00201A
:1025A00000040048000C00482057002000000020D4
:1025B000EC52002000207047002070470120704737
:1025C00001207047FF0000009C6E000821250008D4
:1025D00000000000000000000002000000000000F9
:1025E00000000000A86E0008792500080000000027
:1025F00000000000000200000000000000000000D9
:10260000010000200A0012B2842A03D009B2C91CBA
:1026100009180800704780B502F066FF002002BD6F
:1026200038B584B004000D006069002815D0A06999
:10263000002812D0B4F90800FFF7E2FFA169029167
:102640006169019100902B0022692168606802F0A5
:1026500009FE0390039805B030BDB4F90800FFF7F8
:10266000CFFF03A9019100902B00226992B221684B
:10267000606802F038FE0128ECD00020EBE780B55E
:102680000121B0FBF1F0002800D1012002F006FF8B
:10269000002002BD2DE9F8430400002C01D10120E7
:1026A00030E32078C00740F1BE80DFF80009016800
:1026B00011F00C0104290AD0016811F00C0108295D
:1026C00028D1006810F48030B0F5803F22D14FF45B
:1026D0008040B0FA80F151F02001C9B249090129C6
:1026E00003D1DFF8C418096806E0B0FA80F1B0FA47
:1026F00080F1DFF8D0180968B0FA80F010F01F0000
:10270000C140C80740F18F806068002840F08B808E
:102710000120F7E26068B0F5803F06D1DFF8880855
:10272000016851F48031016026E0606800280AD118
:10273000DFF87408016831F480310160016831F418
:102740008021016018E06068B0F5A02F0AD1DFF8A1
:102750005808016851F480210160016851F480310A
:10276000016009E0DFF84008016831F48031016060
:10277000016831F480210160DFF840180A6812090D
:102780001201A06802430A606068002825D003F0A7
:1027900021F905004FF48040B0FA80F151F020019A
:1027A000C9B24909012903D1DFF8FC17096806E01D
:1027B000B0FA80F1B0FA80F1DFF808180968B0FAD1
:1027C00080F010F01F00C140C8072CD403F002F9BC
:1027D000401B6528DED3032094E203F0FBF80500DC
:1027E0004FF48040B0FA80F151F02001C9B249099C
:1027F000012903D1DFF8B017096806E0B0FA80F1CB
:10280000B0FA80F1DFF8BC170968B0FA80F010F078
:102810001F00C140C80706D503F0DCF8401B65283F
:10282000DED303206EE2207880073CD5DFF87C07FA
:10283000016811F00C0F07D0016811F00C01082994
:1028400060D10068C0035DD45FF08040B0FA80F1D1
:1028500051F02001C9B24909012903D1DFF8481715
:10286000096806E0B0FA80F1B0FA80F1DFF8541799
:102870000968B0FA80F010F01F00C140C80704D505
:102880002069012801D001203CE2DFF81C07016823
:102890005FF0F852B2FA82F231F0F801636913FA8C
:1028A00002F2114301602078000740F1C480A06962
:1028B000002800F09A8001205FF00041B1FA81F118
:1028C000DFF8FC2612EB8102106003F083F80500AC
:1028D0005FF08040B0FA80F1B0FA80F1B0FA80F198
:1028E000DFF8E0160968B0FA80F010F01F00C14070
:1028F000C80700F1A08003F06DF8401B0328E7D360
:102900000320FFE1206900283ED001205FF0004154
:10291000B1FA81F1DFF8B02612EB8102106003F00A
:1029200059F805005FF08040B0FA80F151F02001C5
:10293000C9B24909012903D1DFF86C16096806E01C
:10294000B0FA80F1B0FA80F1DFF878160968B0FAD1
:1029500080F010F01F00C140C80706D403F03AF819
:10296000401B0328DED30320CCE1DFF83C060168DE
:102970005FF0F852B2FA82F231F0F801636913FAAB
:1029800002F2114301608EE700205FF00041B1FACE
:1029900081F1DFF8342612EB8102106003F01AF89F
:1029A00005005FF08040B0FA80F151F02001C9B21B
:1029B0004909012903D1DFF8F015096806E0B0FAEA
:1029C00080F1B0FA80F1DFF8FC150968B0FA80F008
:1029D00010F01F00C140C8077FF565AF02F0FAFF95
:1029E000401B0328DDD303208CE100205FF0004171
:1029F000B1FA81F1DFF8C82512EB8102106002F014
:102A0000E9FF05005FF08040B0FA80F1B0FA80F194
:102A1000B0FA80F1DFF8AC150968B0FA80F010F078
:102A20001F00C140C80706D502F0D4FF401B032891
:102A3000E8D3032066E12078400740F1B18000260A
:102A4000DFF888552868C00009D4286850F0805005
:102A50002860286810F08050009000980126DFF868
:102A600070753868C00511D4386850F480703860CB
:102A700002F0B0FF80463868C00507D402F0AAFF14
:102A8000B0EB08006528F6D303203BE1E06801289D
:102A900006D1DFF84005016851F00101016025E031
:102AA000E06800280AD1DFF82C05016849084900D0
:102AB0000160016831F00401016017E0E068052859
:102AC0000AD1DFF81005016851F0040101600168C6
:102AD00051F00101016009E0DFF8F80401684908DC
:102AE00049000160016831F004010160E0680028DC
:102AF00027D002F06FFF07005FF08040B0FA80F14E
:102B0000B0FA80F151F04001C9B24909022903D15C
:102B1000DFF8C014096804E0B0FA80F1DFF8A4140B
:102B20000968B0FA80F010F01F00C140C80730D427
:102B300002F050FFC01B41F289318842DCD30320F0
:102B4000E0E002F047FF07005FF08040B0FA80F15C
:102B5000B0FA80F151F04001C9B24909022903D10C
:102B6000DFF87014096804E0B0FA80F1DFF854145B
:102B70000968B0FA80F010F01F00C140C80708D5FE
:102B800002F028FFC01B41F289318842DCD30320C8
:102B9000B8E0F6B2012E03D1286830F080502860EA
:102BA000E069002800F0AD80DFF80064306810F0C4
:102BB0000C00082800F09380E069022861D180278A
:102BC000DFF804840020B7FA87F118EB8101086070
:102BD00002F000FF81464025B5FA85F050F0200054
:102BE000C0B24009012803D1DFF8BC03006806E049
:102BF000B5FA85F0B5FA85F0DFF8C8030068B5FAD4
:102C000085F111F01F01C840C00707D502F0E2FEB0
:102C1000B0EB09000328DED3032073E0316831F400
:102C20007411606A0143206A014331600120B7FAE0
:102C300087F118EB8108C8F8000002F0CBFE040011
:102C4000B5FA85F050F02000C0B24009012803D148
:102C5000DFF85403006806E0B5FA85F0B5FA85F0B0
:102C6000DFF860030068B5FA85F111F01F01C84074
:102C7000C00746D402F0AEFE001B0328E0D30320B9
:102C800040E000208021B1FA81F1DFF83C2312EB13
:102C90008102106002F09EFE04004020B0FA80F134
:102CA00051F02001C9B24909012903D1DFF8F81216
:102CB000096806E0B0FA80F1B0FA80F1DFF8041399
:102CC0000968B0FA80F010F01F00C140C80718D59D
:102CD00002F080FE001B0328DFD3032012E0E0692E
:102CE000012801D101200DE0306810F48031226A02
:102CF000914204D110F47010616A884201D0012021
:102D000000E00020BDE8F2832DE9F04104000D0051
:102D10000020002C01D10120D2E0DFF8BC62306835
:102D200010F00700A8420BD23068C008C00028434A
:102D30003060306810F00700A84201D00120BFE0E9
:102D40002078800707D5DFF864120A6832F0F002B5
:102D5000A06802430A602078C00776D56068012821
:102D60001DD14FF48040B0FA80F151F02001C9B27A
:102D70004909012903D1DFF83012096806E0B0FAE9
:102D800080F1B0FA80F1DFF83C120968B0FA80F007
:102D900010F01F00C140C8073CD4012090E06068DB
:102DA00002281BD14020B0FA80F151F02001C9B2B5
:102DB0004909012902D17C49096806E0B0FA80F18D
:102DC000B0FA80F1DFF8FC110968B0FA80F010F079
:102DD0001F00C140C8071DD4012071E05FF0804092
:102DE000B0FA80F151F02001C9B24909012902D19C
:102DF0006D49096805E0B0FA80F1B0FA80F17149D7
:102E00000968B0FA80F010F01F00C140C80701D473
:102E1000012055E0654F39688908890060680143E1
:102E2000396002F0D7FD8046386810F00C00616808
:102E3000B0EB810F09D002F0CDFDB0EB080041F2FC
:102E400089318842F0D303203AE0306810F007005F
:102E500085420BD23068C008C0002843306030681B
:102E600010F00700A84201D0012029E02078400797
:102E700006D54E490A6832F4E062E06802430A600F
:102E80002078000707D54948016831F4605122696C
:102E900051EAC201016000F015F8444909684F4A3F
:102EA00011F0F0015FF07063B3FA83F3D940515C25
:102EB000C840404908604048006800F041FA0020DE
:102EC000BDE8F08110B40020002000200020002088
:102ED0003648016811F00C00042802D0082802D0FE
:102EE00021E0334820E03E4811F470124FF4705353
:102EF000B3FA83F3DA40805C304A1268394B12F03F
:102F00000F025FF07044B4FA84F4E2409A5CC903A3
:102F100006D52749B1FBF2F201001000484301E059
:102F20003149484300E0224810BC704721480068FE
:102F3000704780B5FFF7FAFF1C4909682B4A11F466
:102F4000E0615FF46003B3FA83F3D940515CC84099
:102F500002BD80B5FFF7EAFF14490968234A11F45E
:102F600060515FF4E013B3FA83F3D940515CC84079
:102F700002BD0F2202600D4A136813F00303436081
:102F8000136813F0F0038360136813F4E063C36005
:102F90001268D20812F4E06202610F48006810F073
:102FA0000700086070470000001002400410024053
:102FB00000127A00900000208C0000202C100240AB
:102FC0008004424224100240000042421C10024091
:102FD0000070004020100240002002407C6E00087B
:102FE0005C6E00086C6E000800093D00C06E0008B1
:102FF0002DE9FC4104000020002000262068C003C9
:103000007CD5DFF81C522868C00009D4286850F02D
:1030100080502860286810F08050009000980126A9
:10302000DFF800723868C00511D4386850F4807039
:10303000386002F0CFFC80463868C00507D402F043
:10304000C9FCB0EB08006528F6D30320E6E0DFF802
:10305000D871386810F44070002842D0616811F4CB
:10306000407188423DD0386830F44070DFF8BC11C0
:103070004FF400420123B2FA82FC11EB8C0CCCF825
:1030800000300023B2FA82F211EB82010B6038604B
:10309000C00726D502F09EFC80465FF08040B0FA63
:1030A00080F1B0FA80F151F04001C9B2490902291A
:1030B00001D1396804E0B0FA80F1DFF874110968D1
:1030C000B0FA80F010F01F00C140C80709D402F028
:1030D00081FCB0EB080041F289318842DDD3032046
:1030E0009CE0396831F44071606801433960F6B2A0
:1030F000012E03D1286830F0805028602078C00766
:1031000007D5DFF830110A6892089200A0680243E0
:103110000A602078800707D5DFF818110A6832F4B2
:103120004032E06802430A602078400707D5DFF8A4
:1031300004110A6832F44022206902430A602078B0
:10314000800607D5DFF8EC100A6832F01002E0695B
:1031500002430A602068800307D5DFF8DC100A68A4
:1031600032F48002A06B02430A602078400607D543
:10317000DFF8C0100A6832F02002206A02430A60B9
:103180002078000707D5DFF8AC100A6832F4401247
:10319000606902430A602078C00607D5DFF8941002
:1031A0000A6832F44002A06902430A602068800580
:1031B00007D5DFF884100A6832F40002E06A02439F
:1031C0000A602078000607D5DFF870100A6832F42C
:1031D000F872606A02430A602068C00507D5DFF80C
:1031E0005C100A6832F47852A06A02430A602068D0
:1031F000C00407D5DFF83C100A6832F48072206BF7
:1032000002430A602068800407D5DFF828100A68A6
:1032100032F40072606B02430A600020BDE8F68160
:103220001C10024000700040201002400004424286
:103230002410024030100240041002402C100240C2
:1032400003480168034A127889180160704700BF7B
:10325000A45C00209500002010F00700334B1A6892
:103260004FF6FF010A40324951EA00210A431A6031
:1032700070472E480068C0F302207047010049B231
:10328000002908D4012210F01F018A40294940B2C8
:10329000400941F820207047020052B2002A04D4AD
:1032A0000901254A40B2115407E00901234A40B2FE
:1032B00010F00F00104400F8041C704710B410F018
:1032C0000700D0F10703052B01D3042301E0D0F15F
:1032D0000703041D072C01D2002000E0C01E0124BA
:1032E00014FA03F35B1E1940814014FA00F0401EEB
:1032F0001040084310BC704780B5FFF7ADFF01BD1B
:1033000070B504000D0016000020FFF7B2FF320078
:103310002900FFF7D3FF0100200040B2FFF7BCFFF8
:1033200070BD80B540B2FFF7A9FF01BD0CED00E014
:103330000000FA0500E100E000E400E018ED00E024
:1033400018B587B001000020002000223720FFF7C9
:10335000D7FF3720FFF7E5FF1548016851F020013E
:103360000160006810F020000090009801A902A8F8
:10337000FFF7FFFDFFF7DDFD40000E49B0FBF1F068
:10338000401E0D4C0D49216040F2E731E160606064
:10339000002020610020A0602000FDF7A1FC002893
:1033A00003D12000FDF7D9FC00E0012008B010BDDA
:1033B0001C10024040420F00D8580020001400406A
:1033C00080B50D48016851F001010160006810F0FE
:1033D0000100009000980948016851F08051016097
:1033E000006810F080500090009800220F217FF0BC
:1033F0000100FFF785FF01BD181002401C100240BC
:1034000078B595B004000025002600200090002C1F
:1034100001D101205AE12069002802D094F820004F
:103420000028206CC00653D4206C00283DD1002019
:1034300060640020E0640020A064002084F83C0068
:103440002000FEF78BFC20688068C0002DD420008F
:1034500000F028FC0500206CC00626D42800C0B26D
:10346000002822D1206C30F4885050F002002064F3
:103470002068806830F0405021688860206880684B
:1034800050F0805021688860DFF844020068DFF85F
:103490004412B0FBF1F10A204143009102E0009890
:1034A000401E009000980028F9D120688068C00074
:1034B00003D52068806880000AD5206C30F00200B7
:1034C00050F010002064606C50F001006064012531
:1034D000206CC00600F1F1802800C0B2002840F046
:1034E000EC8020688068400700F1E780206C30F4B1
:1034F000807050F0020020642068B0F1A04F04D02A
:103500002068DFF8D411884202D1DFF8D01101E041
:10351000DFF8CC112068B0F1A04F04D1DFF8B8017A
:10352000019001981EE02068DFF8AC21904204D1A0
:103530005FF0A0400190019814E0DFF8A801226834
:10354000824204D1DFF8A001019001980AE02268CC
:10355000DFF894319A4202D10190019802E00020F4
:10356000019001982068806810F00300012804D1C0
:103570002068006810F0010000E00020002816D14B
:10358000019800280DD00198806810F003000128F0
:1035900004D10198006810F0010000E0002000282C
:1035A00005D18A6832F44032606802438A60606BF9
:1035B000012802D04FF4805100E00021607E51EAE2
:1035C0004031E0680143A06801430E4394F82000B5
:1035D000012813D1607E002806D1606A401E400495
:1035E00050F48030064309E0206C30F0020050F0C7
:1035F00020002064606C50F001006064A06A012823
:1036000024D02068DFF8DC10884204D02068DFF87E
:10361000D810884216D1A06AB0F5307F02D14FF49D
:10362000E07110E0A06AB0F5807F02D14FF43071F4
:1036300009E0A06AB0F5E07F02D14FF4807102E0AA
:10364000A16A00E0A16AE06A01430E432068806835
:1036500010F00C0F0DD12068C168DFF89000014018
:103660002068C160207E94F83010490051EA803112
:103670000E432068C168DFF8780001400E432068DF
:10368000C6602069012809D12068006B000900018B
:10369000E169491E08432168086305E02068006B62
:1036A000000900012168086300206064206C30F08C
:1036B000020050F00100206406E0206C30F00200AF
:1036C00050F01000206401252800C0B216B070BD73
:1036D0009000002040420F00000100500003005005
:1036E000000700500004005000050050FDBFFFFF20
:1036F00007C0F0FF70B495B002000B00002100205D
:103700000090D8680128FFD192F83C00012801D12F
:10371000022003E2012082F83C0010688068400724
:1037200000F1F2815868052811D206201468246B34
:103730001F255E684643B540AC431D685E6800FBCC
:1037400006F015FA00F020431468206340E0586842
:103750000A2813D206241068456B1F265868401F9C
:1037600010FB04F08640B5431E685868401F10FBEC
:1037700004F0864035431068456329E058680F28F7
:1037800013D206241068856B1F2658680A3810FB70
:1037900004F08640B5431E6858680A3810FB04F0F0
:1037A000864035431068856312E006241068C56BB7
:1037B0001F2658680F3810FB04F08640B5431E687A
:1037C00058680F3810FB04F0864035431068C56315
:1037D0001068806810F00C0F40F0AB8018680A2861
:1037E00014D310688469072518680A38032610FB6B
:1037F00006F08540AC439D6818680A38032610FB24
:1038000006F085402C43106884610FE0106844691D
:1038100007251E6803204643B540AC439D681E68DB
:1038200003204643B5402C4310684461586914682E
:10383000E468C4F3C104E4B2640010FA04F4186943
:10384000012806D03DD303281FD010D304282AD046
:1038500037E01068056EDFF840040540186855EA47
:1038600080652C4354F000441068046661E01068E1
:10387000456EDFF824040540186855EA80652C433E
:1038800054F000441068446653E01068856EDFF819
:1038900008040540186855EA80652C4354F000443C
:1038A0001068846645E01068C56EDFF8EC030540DB
:1038B000186855EA80652C4354F000441068C466CB
:1038C00037E01068006E10F0F8401C68B0EB846FB1
:1038D00005D11068006E20F0004014682066106862
:1038E000406E10F0F8401C68B0EB846F05D1106892
:1038F000406E20F00040146860661068806E10F022
:10390000F8401C68B0EB846F05D11068806E20F021
:1039100000401468A0661068C06E10F0F8401C6883
:10392000B0EB846F05D11068C06E20F000401468C1
:10393000E0661068806810F00300012804D1106868
:10394000006810F0010000E00020002840F0E18055
:10395000D86801280AD01068D0F8B040012518684E
:103960008540AC431068C0F8B04035E01068D0F82E
:10397000B0400125186885402C431068C0F8B0405D
:1039800018680A2814D3106884690725186809384C
:10399000032610FB06F08540AC439D681868093883
:1039A000032610FB06F085402C431068846113E069
:1039B0001068446907251868401C032610FB06F0B0
:1039C0008540AC439D681868401C032610FB06F038
:1039D00085402C43106844611068B0F1A04F03D0BB
:1039E0001068504CA04202D1DFF8B04201E0DFF88D
:1039F000B0421868102802D1A06800020CD51868DF
:103A0000112802D1A068C00106D51868122840F01C
:103A10008080A06840027CD41068B0F1A04F03D130
:103A20004048019001981AE010683E4DA84204D128
:103A30005FF0A0400190019811E03B481568854275
:103A400003D13A480190019809E01568374EB54214
:103A500002D10190019802E00020019001981068C5
:103A6000806810F00300012804D11068006810F08D
:103A7000010000E00020002840D1019800280DD06E
:103A80000198806810F00300012804D101980068B3
:103A900010F0010000E0002000282FD11868102845
:103AA00018D11068B0F1A04F14D1A06850F40000F4
:103AB000A060DFF874020068DFF87032B0FBF3F347
:103AC0000A20434300930098002822D00098401E0B
:103AD0000090F8E71868112808D11068B0F1A04FDD
:103AE00004D1A06850F08070A06012E0186812281D
:103AF0000FD1A06850F48000A0600AE0106C50F074
:103B000020001064012104E0106C50F020001064CB
:103B10000121002082F83C000800C0B215B070BC42
:103B200070470000000100500004005000050050E4
:103B300030B494B000220B68002B0368B3F1A04F9F
:103B400004D1DFF8F4310093009B1EE00368DFF836
:103B5000E841A34204D15FF0A0430093009B14E02E
:103B6000DFF8CC3104689C4204D1DFF8C8310093FF
:103B7000009B0AE00468DFF8BC51AC4202D100931C
:103B8000009B02E000230093009B009B002B01D1CF
:103B900001207DE090F83C30012B01D1022077E03C
:103BA000012380F83C3003689B685B0766D4009B68
:103BB0009B685B0762D40368B3F1A04F04D003682D
:103BC000DFF87441A34201D1344C00E0344C0B685F
:103BD000002B2ED0A56835F460454B681D4390F846
:103BE000303055EA4335A56003689B6813F0030342
:103BF000012B04D103681B6813F0010300E00023CC
:103C0000002B40D1009B9B6813F00303012B04D1D0
:103C1000009B1B6813F0010300E00023002B32D14E
:103C2000A568464B1D400B681D4389680D43A56080
:103C300029E0A16831F46041A1600168896811F050
:103C40000301012904D10168096811F0010100E0B4
:103C50000021002917D10099896811F00301012979
:103C600004D10099096811F0010100E00021002948
:103C700009D1A36831490B40A36004E0016C51F005
:103C8000200101640122002180F83C101000C0B224
:103C900014B030BC7047000000F0FF8300030050F8
:103CA0000007005038B5040000202068806810F03C
:103CB0000300012804D12068006810F0010000E032
:103CC000002000282ED02068806810F00D00012808
:103CD0001ED12068806850F00200216888600320AF
:103CE0002168086001F076FE050020688068C00742
:103CF00018D501F06FFE401B0328F6D3206C50F05E
:103D000010002064606C50F00100606401200AE043
:103D1000206C50F010002064606C50F00100606472
:103D2000012000E0002032BD9000002040420F0042
:103D3000000400500005005000010050E0F0FFFFBB
:103D4000F8B504000D0016001F00002C01D1012061
:103D50003DE0A06F002805D1002084F87400200009
:103D6000FEF723F92420A06720680068400840007F
:103D700021680860200000F01CFA012801D1012010
:103D800025E0606A002802D0200000F04BFB20688C
:103D9000806850F48040216888602068806830F432
:103DA0000040054320688560760556EA074620688E
:103DB00000686FF3194006432068066020680068B9
:103DC00050F0010021680860200000F098FBF2BD6F
:103DD0007047060510B50400002C01D1012035E024
:103DE000A0690028FFD1A06F002805D1002084F829
:103DF00074002000FEF7D9F82420A067206800682E
:103E00004008400021680860200000F0D2F9012835
:103E100001D101201AE0606A002802D0200000F0E1
:103E200001FB2068406830F49040216848602068B9
:103E3000806830F02A00216888602068006850F0AF
:103E4000010021680860200000F059FB10BD2DE939
:103E5000FC4106000D0014001F00B06F20285BD14C
:103E6000002D03D0200080B2002801D1012054E0B1
:103E700096F87400012801D102204EE0012086F856
:103E800074000020C6F880002120B06701F0A2FD78
:103E90008046A6F85040A6F85240B068B0F5805F62
:103EA00004D13069002801D1002401E02C00002554
:103EB000002086F8740011E0207831680885641CC1
:103EC00007E0002CF8D12888C005C00D31680885AE
:103ED000AD1CB6F85200401EA6F85200B6F85200CB
:103EE00000280AD00097434600228021300000F0CD
:103EF0003DFB0028E5D003200FE000974346002259
:103F00004021300000F032FB002801D0032004E003
:103F10002020B067002000E00220BDE8F68138B51F
:103F200004002068C169206802682068836840F640
:103F30000F00084000280AD18D0608D5950606D541
:103F4000606E002802D02000616E884730E10028B2
:103F500000F09B80D80704D4DFF8A404024200F0EC
:103F6000948011F00100C0B200280AD0D00508D515
:103F7000012025682862D4F8800050F00100C4F8C0
:103F8000800088070DD513F00100C0B2002808D0CA
:103F9000022025682862D4F8800050F00400C4F89C
:103FA000800048070DD513F00100C0B2002808D0EA
:103FB000042025682862D4F8800050F00200C4F87C
:103FC000800008070FD5900604D413F00103DBB27C
:103FD000002B08D0082023681862D4F8800050F025
:103FE0000800C4F8800008050BD5500109D54FF42E
:103FF000006023681862D4F8800050F02000C4F8F4
:104000008000D4F8800000283ED0880607D59006AE
:1040100005D5606E002802D02000616E8847D4F874
:10402000800021688968490602D410F0280F25D045
:10403000200000F0F4FA2068806840061AD5206855
:10404000806830F0400021688860206F00280DD023
:104050000FF20560216F4863206F01F0E5FC002836
:1040600012D0206F216F496B88470DE0200001F0CE
:1040700004FD09E0200001F000FD05E0200001F052
:10408000FCFC0020C4F8800092E0206E012870D172
:10409000C8066ED5D0066CD510202168086220684D
:1040A000806840063BD5206F00684168080080B2F8
:1040B000002833D00800B4F8582080B290422DD2A6
:1040C000A4F85A10206F806920281ED0206800684C
:1040D00030F48070216808602068806840084000E3
:1040E000216888602068806830F04000216888601E
:1040F0002020E067002020662068006830F0100073
:1041000021680860206F01F06BFCB4F85810B4F817
:104110005A00091A89B2200001F0B0FC48E0B4F856
:104120005800B4F85A10411AB4F85A0000281FD0A9
:10413000080080B200281BD02068006830F490701E
:104140002268106020688068400840002268906003
:104150002020E0670020206600206066206800685C
:1041600030F010002268106089B2200001F086FC57
:104170001EE0C80209D5580207D55FF480102168F7
:1041800008622000FFF724FE12E0080608D510069A
:1041900006D5A06E002802D02000A16E884707E057
:1041A000480605D5500603D5200000F060FAFFE769
:1041B00031BD38B504000025A1682069014360695C
:1041C0000143E0690143206802688E4802401143C0
:1041D000206801602068416831F44051E068014383
:1041E00020684160A169206A01432068806830F43A
:1041F000306001432068816020688349884215D17E
:104200008248006810F00300002805D0022809D079
:1042100006D3032802D007E0012080E002207EE0E0
:1042200004207CE008207AE0102078E020687849BB
:10423000884219D17548006810F44030002809D030
:10424000B0F5803F0AD0B0F5003F09D0B0F5403F4F
:1042500002D007E0002062E0022060E004205EE07F
:1042600008205CE010205AE020686A49884219D191
:104270006648006810F44020002809D0B0F5802F6F
:104280000AD0B0F5002F09D0B0F5402F02D007E0DA
:10429000002044E0022042E0042040E008203EE00C
:1042A00010203CE020685C49884219D157480068DA
:1042B00010F44010002809D0B0F5801F0AD0B0F5E6
:1042C000001F09D0B0F5401F02D007E0002026E013
:1042D000022024E0042022E0082020E010201EE03C
:1042E00020684E49884219D14848006810F44000BF
:1042F000002809D0B0F5800F0AD0B0F5000F09D022
:10430000B0F5400F02D007E0002008E0022006E0F0
:10431000042004E0082002E0102000E01020E16901
:10432000B1F5004F35D1C0B2002808D0012809D01E
:1043300002280AD004280AD008280BD00DE0FEF786
:10434000F8FD0CE0FEF705FE09E0354807E0FEF752
:10435000B9FD04E04FF4004001E0002001250028F1
:1043600046D06168490811EB40016068B1FBF0F08C
:1043700080B24FF6F071B0F110028A4207D20140CC
:10438000C0F34200014389B22068C16030E00125DA
:104390002EE0C0B2002808D0012809D002280AD097
:1043A00004280AD008280BD00DE0FEF7C2FD0CE06F
:1043B000FEF7CFFD09E01A4807E0FEF783FD04E0B1
:1043C0004FF4004001E000200125002810D0616872
:1043D00010EB51006168B0FBF1F080B2B0F1100158
:1043E0004FF6F072914202D22168C86000E00125C8
:1043F000002060660020A0662800C0B232BD000028
:1044000020010004F369FFFF003801403010024032
:104410000044004000480040004C00400050004074
:1044200000127A0090F82410C90707D501684A687D
:1044300032F40032816A0A4301684A6090F824101D
:10444000890707D501684A6832F48032C16A0A4395
:1044500001684A6090F82410490707D501684A6846
:1044600032F48022016B0A4301684A6090F82410FC
:10447000090707D501684A6832F40042416B0A43D4
:1044800001684A6090F82410C90607D501688A6857
:1044900032F48052816B0A4301688A6090F82410DC
:1044A000890607D501688A6832F40052C16B0A4355
:1044B00001688A6090F82410490613D501684A689B
:1044C00032F48012016C0A4301684A60016CB1F554
:1044D000801F07D101684A6832F4C002416C0A4368
:1044E00001684A6090F82410090607D501684A68F7
:1044F00032F40022816C0A4300684260704738B58C
:1045000004000020C4F8800001F064FA050020686F
:10451000006800070DD57FF07E4000902B00002240
:104520005FF40011200000F021F8002801D00320E2
:104530001BE02068006840070DD57FF07E400090AA
:104540002B0000225FF48001200000F00FF800280B
:1045500001D0032009E02020A0672020E067002090
:104560002066002084F87400002032BD2DE9F0415F
:1045700005000E0090461F00069C2868C069304068
:10458000B04201D1012000E000204146C9B288427A
:1045900042D114F1010FF0D001F01CFAC01B84428B
:1045A00001D3002C14D12868006830F4D070296839
:1045B00008602868806840084000296888602020DA
:1045C000A8672020E867002085F87400032024E015
:1045D000286800684007D0D52868C0690005CCD598
:1045E0004FF40060296808622868006830F4D070D1
:1045F0002968086028688068400840002968886049
:104600002020A8672020E8672020C5F8800000202F
:1046100085F87400032000E00020BDE8F081016807
:10462000096831F49071026811600168896849086D
:10463000490002689160016E012905D1016809688D
:1046400031F01001026811602021C167002101666C
:10465000002141667047000080B5406A0021A0F843
:104660005A100021A0F8521001F007FA01BD80B5E0
:104670000168096831F040010268116020218167FA
:104680000021816601F0FBF901BD000010B50400B6
:10469000002C01D101207AE0606A002806D1606810
:1046A000B0F5827F06D00020E06103E000202061A9
:1046B000002060610020A06294F85D00002805D110
:1046C000002084F85C002000FDF730FD022084F813
:1046D0005D002068006830F0400021680860E068F4
:1046E00040F20171884201D3002001E04FF4805074
:1046F000E168B1F5706F05D0E168B1F5E06F01D008
:104700000021A162616811F48271A26812F404426E
:104710001143227C12F002021143227D12F00102A9
:104720001143A26912F400721143227F12F0380281
:10473000114394F8202012F080021143A26A12F46F
:104740000052114322681160A169090C11F00401A3
:1047500094F8242012F01002114394F8342012F03F
:1047600008021143E26812F47062114310F48050A1
:104770000843216848602068C06930F400602168FF
:10478000C86100202066012084F85D00002010BD73
:104790002DE9F84306000D0091461C00002796F80D
:1047A0005C00012801D10220E4E0012086F85C00D1
:1047B00001F010F98046494696F85D00012801D0C5
:1047C0000227CFE0002D03D0484680B2002801D157
:1047D0000127C7E0032086F85D0000203066B5633E
:1047E000A6F83C90A6F83E90002030640020A6F881
:1047F00044000020A6F84600002030650020F06448
:10480000B068B0F5004F0BD13068006830F0400060
:10481000326810603068006850F480403268106080
:1048200030680068400605D43068006850F04000E9
:1048300032681060F06840F2017290422ED37068C6
:10484000002802D089B2012914D1B06B00883168E8
:10485000C860B06B801CB063F08F401EF08709E029
:10486000B06B00883168C860B06B801CB063F08F9B
:10487000401EF087F08F00285BD03068806880078A
:10488000EED401F0A7F8B0EB0800A04202D314F177
:10489000010F01D1002CEDD1032763E070680028DF
:1048A00002D089B2012922D1F08F02280AD3B06B3D
:1048B00000883168C860B06B801CB063F08F801EC8
:1048C000F08714E0B06B007831680873B06B401C5F
:1048D000B063F08F401EF08709E0B06B008831684C
:1048E000C860B06B801CB063F08F801EF087F08FC3
:1048F00000281ED03068806880070DD5F08F022810
:10490000EBD2B06B007831680873B06B401CB063B9
:10491000F08F401EF087EAE701F05CF8B0EB08008A
:10492000A04202D314F1010F01D1002CDFD10327E3
:1049300018E042462100300000F05FFB002801D063
:1049400020203066B068002808D100200090306830
:10495000C06800903068806800900098306E002831
:1049600000D00127012086F85D00002086F85C0059
:104970003800C0B2BDE8F2832DE9F84306000D000F
:1049800091461C0000277068B0F5827F0ED1B06898
:1049900000280BD1042086F85D0000944B469BB2A2
:1049A0002A002900300000F0B8F8B4E096F85C0066
:1049B000012801D10220AEE0012086F85C0001F060
:1049C00009F8804696F85D00012801D002279AE098
:1049D000002D03D0484680B2002801D1012792E083
:1049E000042086F85D00002030663564A6F8449007
:1049F000A6F846900020B0630020B0870020F08722
:104A00000020F0640020306540F20170F1688142BE
:104A100006D33168496831F480513268516005E04D
:104A20003168496851F4805132685160B168B1F51C
:104A3000004F0BD13168096831F0400132681160D4
:104A40003168096831F48041326811603168096861
:104A5000490605D43168096851F040013268116097
:104A6000F16881422DD20BE03068007B316C087018
:104A7000306C401C3064B6F84600401EA6F8460074
:104A8000B6F84600002831D030688068C007EBD403
:104A900000F0A0FFB0EB0800A04202D314F1010F18
:104AA00001D1002CECD103272DE03068C068316CB7
:104AB0000880306C801C3064B6F84600401EA6F8B2
:104AC0004600B6F84600002810D030688068C0075D
:104AD000EBD400F07FFFB0EB0800A04202D314F14A
:104AE000010F01D1002CECD103270CE0424621003C
:104AF000300000F03FFA002801D020203066306EF0
:104B0000002800D00127012086F85D00002086F8EB
:104B10005C003800C0B2BDE8F2832DE9F047050023
:104B20008A4614005FF00108002695F85C00012811
:104B300001D1022048E19946012085F85C0000F08F
:104B400049FF070095F85D1068684A464B468C4659
:104B50005FFA8CFCBCF1010F0AD0B0F5827F05D161
:104B6000A868002802D1C9B2042901D0022623E195
:104B70005146002906D02000002803D04C46A4B29C
:104B8000002C01D1012617E195F85D40042C02D0DC
:104B9000052485F85D4000242C662864A5F846901D
:104BA000A5F84490A963A5F83E90A5F83C90002094
:104BB000E8640020286540F20170E968814202D271
:104BC0009BB2022B06D32968496831F480512B68C7
:104BD000596005E02968496851F480512B68596093
:104BE00029680968490605D42968096851F0400117
:104BF0002B681960089CE96881424DD368680028D9
:104C000002D092B2012A09D1A86B00882968C86035
:104C1000A86B801CA863E88F401EE887E88F0028F7
:104C200004D1B5F84600002800F0BC8028688068F0
:104C3000800711D5E88F00280ED0B8F1010F0BD1F5
:104C4000A86B00882968C860A86B801CA863E88FDF
:104C5000401EE8875FF0000828688068C00711D50B
:104C6000B5F8460000280DD02868C068296C088077
:104C7000286C801C2864B5F84600401EA5F8460044
:104C80005FF0010800F0A6FEC01BA042C6D314F1DD
:104C9000010FC3D003268FE06868002802D092B2CB
:104CA000012A17D1E88F02280AD3A86B0088296847
:104CB000C860A86B801CA863E88F801EE88709E0A5
:104CC000A86B007829680873A86B401CA863E88F5C
:104CD000401EE887E88F002803D1B5F84600002879
:104CE00060D02868806880071FD5E88F00281CD016
:104CF000B8F1010F19D1E88F02280AD3A86B0088F8
:104D00002968C860A86B801CA863E88F801EE887AC
:104D100009E0A86B007829680873A86B401CA86399
:104D2000E88F401EE8875FF0000828688068C007A9
:104D30002CD5B5F84600002828D0B5F84600022842
:104D400016D32868C068296C0880286C801C2864E9
:104D5000B5F84600801EA5F84600B5F846000228C2
:104D600012D22868406850F48050296848600BE0EF
:104D70002868007B296C0870286C401C2864B5F8F2
:104D80004600401EA5F846005FF0010800F022FE34
:104D9000C01BA04202D314F1010F01D1002C99D104
:104DA000032609E03A002100280000F026F9002837
:104DB00002D0012620202866012085F85D00002011
:104DC00085F85C003000C0B2BDE8F0872DE9F843FB
:104DD00005000E0017009846089C00F0FBFDB8EB9C
:104DE0000000241800F0F6FD81466148006840018B
:104DF000000D00FB04F0009006E00098002800D1B0
:104E000000240098401E0090286880683040B0421E
:104E100001D1012000E000203900C9B288423AD017
:104E200018F1010FF0D000F0D5FDB0EB0900A04261
:104E300001D2002CE1D12868406830F0E0002968F8
:104E400048606868B0F5827F0DD1A868B0F5004F62
:104E500003D0A868B0F5806F05D12868006830F0ED
:104E6000400029680860A86AB0F5005F0BD1286887
:104E7000006830F40050296808602868006850F421
:104E8000005029680860012085F85D00002085F841
:104E90005C00032000E00020BDE8F2832DE9F84328
:104EA00006000F0014009846089D00F093FDB8EB33
:104EB00000002D1800F08EFD81462D48016823204A
:104EC0004143090D01FB05F1009106E0009800281F
:104ED00000D100250098401E00903068806838405E
:104EE000A04241D0B7F5C06F03D1002C01D130688A
:104EF000007B18F1010FF0D000F06CFDB0EB090061
:104F0000A84201D2002DE1D13068406830F0E000C5
:104F1000316848607068B0F5827F0DD1B068B0F537
:104F2000004F03D0B068B0F5806F05D130680068DD
:104F300030F0400031680860B06AB0F5005F0BD116
:104F40003068006830F400503168086030680068EC
:104F500050F4005031680860012086F85D000020A0
:104F600086F85C00032000E00020BDE8F28300002A
:104F7000900000207CB504000D0016006068B0F5BC
:104F8000827F0DD1A068B0F5004F03D0A068B0F5C6
:104F9000806F05D12068006830F04000216808600B
:104FA00000962B00002280212000FFF70FFF002831
:104FB00005D0206E50F02000206603201CE06068C1
:104FC000B0F5827F17D1A068B0F5004F03D0A0687C
:104FD000B0F5806F0FD100962B0000224FF4C06116
:104FE0002000FFF75BFF002805D0206E50F0200066
:104FF0002066032000E0002076BD7CB504000D0093
:10500000160000962B0000224FF4C0512000FFF73D
:1050100045FF002805D0206E50F0200020660320B8
:105020001FE000962B00002280212000FFF7CEFE1B
:10503000002805D0206E50F020002066032010E0EC
:1050400000962B0000224FF4C0612000FFF726FFDE
:10505000002805D0206E50F020002066032000E0DC
:10506000002076BD70B5050014001A00002008006D
:10507000C0B2002807D00800C0B2002803D0080042
:10508000C0B2F82801DB022436E05E4E3170280001
:10509000C0B2002820D1049B5B485C4908605C4892
:1050A0005C4908605C485D4908605D485D4908608E
:1050B00000205D4908605D485D4908605D485E49C3
:1050C00008605E485E490860DBB22100C9B23078F2
:1050D00000F0D6FC040000E002242000C0B200284A
:1050E0000AD100F02FFE002801D1032404E0554826
:1050F00005700120544908702000C0B270BD38B559
:105100000024514D2878012805D140480068804787
:105110000020287000E006242000C0B232BD7CB51B
:10512000002049480078002801D0062068E0684641
:1051300000F014FE012862D19DF80000002805D07F
:1051400002281AD003D3032859D058E057E0404C26
:10515000404A41492000334B1B689847C0B20028A1
:105160000AD1207827490978884202D0207800287F
:1051700002D1022000F0EBFD41E0384C364D2868AA
:1051800000782070364E01203070002205E013F8C0
:1051900032002178884208D0521C102A0CDA2B4B9E
:1051A00013F832000028F2D106E02A49286803EB00
:1051B000C2025268904730702548007800281DD000
:1051C0003078002812D0234800210180217851F046
:1051D00080012A680388D1540188491C01803178F4
:1051E0002A680388D1540188491C01801948028823
:1051F000296804480078094B1B689847FFE700209E
:1052000076BD0000F05C0020C75A00087C5C0020DE
:10521000E15A0008805C00205F5B0008785C002099
:10522000F55A0008845C0020885C0020BF5B000801
:105230008C5C0020495C0008905C0020B75C000892
:10524000945C0020F15C0020940000200400002009
:10525000F25C0020E45C0020985C0020F35C0020FD
:10526000F45C002078B585B005000B98002807D1C4
:10527000502080F31188BFF34F8FBFF36F8FFEE78D
:105280000C9C002C07D1502080F31188BFF34F8F66
:10529000BFF36F8FFEE754260096009E542E07D072
:1052A000502080F31188BFF34F8FBFF36F8FFEE75D
:1052B000002C13D0002811D02063022084F8510064
:1052C00000200390029404A801900A9800902800FE
:1052D00000F042F8200000F094F801E00020049073
:1052E000049806B070BD2DE9F84384B007008846E5
:1052F00016009946300080B2800000F041FD0500A4
:10530000002D0BD0542000F03BFD0400002C01D0F8
:10531000256304E0280000F0BDFD00E00024002C1F
:1053200015D0002084F851000020039002940D98BD
:1053300001900C9800904B46B6B2320041463800BE
:1053400000F00AF8200000F05CF8012001E05FF0B6
:10535000FF3005B0BDE8F0832DE9F84305001E00DD
:105360000A9F386B00EB8200B0F104085FEAD808AE
:105370005FEAC80818F00700002807D0502080F323
:105380001188BFF34F8FBFF36F8FFEE7002200E05D
:10539000521C102A07D2885C07EB020383F8340002
:1053A000885C0028F4D1DDF82090002087F84300C5
:1053B000B9F1070F01D35FF00609099CC7F82C90DB
:1053C000C7F844900020B864381D00F018FE17F1AB
:1053D000180000F014FE3F61D9F10709C7F81890D2
:1053E0007F620020F864002087F850003200290016
:1053F000404600F041FE3860002C00D02760BDE838
:10540000F18338B5040000F0C7FEDFF8C013086868
:10541000401C0860DFF8B8532868002806D12C60CB
:10542000086801280DD100F0EDF90AE0DFF8C803A3
:105430000068002805D1E06A2968C96A884200D35B
:105440002C60DFF8B8030168491C0160DFF8B01375
:105450000A680123E06A83401A430A60211DDFF8CD
:10546000F423E36A1420434302EB030000F0CAFD77
:1054700000F0ACFEDFF88003006800280DD028683B
:10548000C06AE16A884208D25FF08050DFF8781481
:105490000860BFF34F8FBFF36F8F31BD10B50400AD
:1054A0000020002C14D0DFF85C040068002807D02E
:1054B000502080F31188BFF34F8FBFF36F8FFEE74B
:1054C00000F059F80021200000F038FA00F059F8F7
:1054D000002808D15FF08050DFF82C140860BFF37B
:1054E0004F8FBFF36F8F10BD10B586B000200490B2
:1054F0000020039005AA03A904A8FCF7EFFFDFF83A
:105500001444049802900398019000200090002316
:10551000059ADFF804140FF2BD20FFF7A3FE206008
:105520002068002801D0012000E00020012817D1C8
:10553000502080F31188BFF34F8FBFF36F8F5FF060
:10554000FF30DFF8DC1308600120DFF8AC120860E0
:105550000020DFF8D013086000F0B7FD06B010BDE2
:1055600010F1010FFAD1502080F31188BFF34F8F53
:10557000BFF36F8FFEE7DFF88C030168491C016001
:10558000704770B500240025DFF878633068002884
:1055900007D1502080F31188BFF34F8FBFF36F8F77
:1055A000FEE700F0F9FD3068401E306030680028EA
:1055B00055D1DFF818020068002826D14FE0C868EE
:1055C000C46814F1180000F044FD201D00F041FDF6
:1055D000DFF82C120A680123E06A83401A430A604C
:1055E000211DDFF87022E36A1420434302EB03001D
:1055F00000F008FDE06ADFF8D8110968C96A88423E
:1056000003D30120DFF830130860DFF810130868B7
:105610000028D4D1002C01D000F05FF9DFF8086336
:105620003468002C0CD000F01EF8002803D00120B4
:10563000DFF804130860641E002CF4D100203060F1
:10564000DFF8F4020068002809D001255FF08050DF
:10565000DFF8B4120860BFF34F8FBFF36F8F00F015
:10566000B5FD280070BDF8B50025DFF89802006888
:10567000002867D1DFF8AC020468641C0460002CC9
:105680001AD1DFF8A81208680068002807D0502057
:1056900080F31188BFF34F8FBFF36F8FFEE7086869
:1056A000DFF88C2213680B601060DFF88802016855
:1056B000491C016000F011F9DFF86462306884422F
:1056C00030D322E0381D00F0C4FCB86A002803D0B3
:1056D00017F1180000F0BDFCDFF824110A6801235F
:1056E000F86A83401A430A60391DDFF86821FB6AB3
:1056F0001420434302EB030000F084FCF86A3449B1
:105700000968C96A884200D30125DFF820120868B9
:105710000068002812D00868C068C76878688442AA
:10572000D0D230602A480068DFF82811C26A1420FD
:105730004243885802280AD3012508E05FF0FF3071
:105740003060EFE7DFF8E0010168491C0160DFF835
:10575000E8010068002800D001252800F2BDDFF82C
:10576000A4010068002804D00120DFF8CC110860F3
:105770002AE00020DFF8C011086021480068B0FA74
:1057800080F1D1F11F011422324B02FB01F01858B5
:10579000002807D1502080F31188BFF34F8FBFF34B
:1057A0006F8FFEE7514303EB010041684968416098
:1057B000416810F10802914202D141684968416094
:1057C0004068C0680249086070470000B85C00206B
:1057D000A85C002080B500F03FF81E480068022851
:1057E000F9D35FF08050DFF828110860BFF34F8FC6
:1057F000BFF36F8FEFE70000C45C0020D45C002093
:10580000C05C002038B5002407E01248142101FBD9
:1058100004F1084400F0E4FB641C072CF5D3DFF826
:105820009841200000F0DCFBDFF89051280000F0E8
:10583000D7FBDFF8E80000F0D3FB154800F0D0FB01
:10584000324800F0CDFBDFF8E4000460DFF87001BF
:10585000056031BD8C55002038B514E000F09CFC8B
:105860000B48C068C468201D00F0F3FBDFF840015E
:105870000168491E01602868401E286000F0A6FCEF
:10588000200000F009F8034D28680028E6D131BD5A
:105890002C5C0020B45C002010B5040094F851008A
:1058A000002806D1206B00F0F5FA200000F0F2FA93
:1058B00010BD94F85100012803D1200000F0EAFA4D
:1058C000F6E794F851000228F2D0502080F31188B6
:1058D000BFF34F8FBFF36F8FFEE7DFF850100868FC
:1058E0000068002805D15FF0FF30DFF83410086051
:1058F00006E00868C068C0684068DFF824100860E7
:1059000070470000E05C002004ED00E0405C0020F7
:1059100004ED00E0DC5C0020C86E0008185C00208C
:10592000D85C0020BC5C0020C85C0020AC5C00207F
:10593000B05C0020D05C0020CC5C0020F8B50500F5
:105940000C001A4806681B4F3868001D00F081FBE8
:10595000002807D138681B490A680123C06A8340C0
:105960009A430A6015F1010F07D1002C05D0386861
:10597000011D154800F046FB16E0AD19386845607A
:10598000B54206D23868011D0D48006800F046FB9C
:105990000AE03868011D0D48006800F03FFB0C4824
:1059A00001688D4200D20560F1BD0000BC5C0020A2
:1059B000B85C0020A85C0020F05B0020045C0020A4
:1059C000B05C0020C05C0020405C0020AC5C00208B
:1059D000D85C002001480068704700BFA45C00202C
:1059E00090F82110022906D004218163002180F85B
:1059F0002010012017E00168096831F00E010268EB
:105A000011600168096849084900026811600122B3
:105A1000016C8A40C16B4A60012180F8211000218D
:105A200080F820100020704710B5002490F8211055
:105A3000022903D00421816301241BE00168096865
:105A400031F00E01026811600168096849084900D7
:105A5000026811600122016C8A40C16B4A60012119
:105A600080F82110002180F82010416B002901D01E
:105A7000416B88472000C0B210BD70477047704727
:105A800038B508001400002572B6DBB208222100E8
:105A9000C0B200F020FC012801D003250FE044F63D
:105AA0000130844201D3232003E09A486100B0FB17
:105AB000F1F080B200F05CFC012800D0032562B652
:105AC0002800C0B232BD80B572B60020924908707D
:105AD0000021012000F0D2FB00F071FC62B601BD94
