:020000040800F2
:1000000080650020CDA30008D99F0008DB9F000871
:10001000DD9F0008DF9F0008E19F0008000000004E
:10002000000000000000000000000000A997000888
:10003000E39F00080000000051970008E1940008C9
:1000400051A4000855A4000859A400085DA40008A4
:1000500061A4000865A4000869A400086DA4000854
:1000600071A4000875A4000879A40008E59F0008A1
:100070007DA4000881A4000885A4000889A40008C4
:100080008DA4000891A4000895A4000899A4000874
:100090009DA40008A1A40008A5A40008A9A4000824
:1000A000ADA40008B1A40008B5A40008B9A40008D4
:1000B000BDA40008C1A40008C5A40008C9A4000884
:1000C000CDA40008D1A40008D5A40008D9A4000834
:1000D000DDA40008EF9F0008E1A40008E5A40008E3
:1000E000E9A40008EDA40008F1A40008F5A40008A4
:1000F000F9A40008FDA4000801A5000805A5000852
:1001000000000000000000000000000009A5000839
:100110000DA5000811A5000815A50008F99F000805
:1001200003A000080DA0000819A500081DA50008DF
:1001300021A5000825A5000800000000000000001F
:1001400029A500082DA5000831A500080000000021
:10015000000000000000000000000000000000009F
:10016000000000000000000035A5000839A50008C7
:100170003DA5000800000000000000000000000095
:100180000000000041A500082DE9F14FB2B09946EA
:10019000924600230691CDE900333C9A0F930DF16E
:1001A0004A0114914A7011E0329E57462C4617F8C6
:1001B000011B0698B0470028069000F026810F9892
:1001C000401C641E0F90F2D13296AA449AF80000A7
:1001D000252808D10021002209910A920B910C9246
:1001E0000D910E920FE06A464FF0FF31504601F03C
:1001F0007FF8050002D10F9800F066BED4D5012526
:10020000E3E741F001011AF8010F2028F9D0232873
:100210000CD02B2804D02D2805D0302809D00BE095
:1002200041F00201EFE741F00401ECE741F0080181
:10023000E9E741F01001E6E72A280FD1D9F80020BC
:1002400052F8040BC9F800200028119003D5404251
:10025000119041F004010AF1010A14E01192DFF853
:10026000EC3B0AE01198984205DA00EB800402EBBF
:100270004402303A11920AF1010A9AF80020A2F1E0
:1002800030000A28EED39AF800002E2803D04FF051
:10029000FF32109229E01AF8010F2A2809D1D9F863
:1002A000000050F8042BC9F8000010920AF1010A6E
:1002B0001BE02D280CBF0AF1010A00200022109239
:1002C000DFF8882B0BE040B9109B934205DA03EB73
:1002D000830504EB4504303C10940AF1010A9AF8B6
:1002E0000040A4F130030A2BEDD3ADF848100FF60F
:1002F00060309AF8001001F005F808B11AF8010B07
:100300008DF84A009DF84A00682805D19AF8000047
:1003100068280CD1622106E06C2804BF9AF800001E
:100320006C2804D171218DF84A100AF1010A1FA826
:1003300008901AF801BBBBF125012DD01C3900F043
:100340006181091F022940F25D810E392AD0491FBF
:1003500000F0B384093900F05581891E00F0498509
:10036000491E00F0F584491E022940F24B81091F05
:1003700000F0EE84491F00F0BA80491E00F09D8411
:10038000491E65D0C91E21D0891E00F09684C91E61
:1003900000F0938400F04CBD25238DF87C300121C2
:1003A00009912AE06C208DF84A00D9F8000050F835
:1003B000042BC9F80000002A43D11499487800287A
:1003C0003DD04FF0FF340FF6902012E09DF84A0028
:1003D0006C28EAD0D9F8000050F8044BC9F80000A6
:1003E0000794D4B91499487898B14FF0FF340FF6B8
:1003F000842000F0A1FF201A07D132981FAA04A977
:1004000000F065FD00287FF5E1AE4FF0FF3000F011
:100410005BBD0FF67C200790EFE7109D002D04D503
:10042000204600F0A9FF044607E02A46204600F0D7
:10043000CBFF002814BF041B2C460A94DDE70FF6FF
:100440005422329804A900F0C8FD0028D5D5DCE775
:10045000D9F8001051F8040BC9F8001020F000047E
:10046000002121F0FF351FABCDE904450793DDE9FD
:10047000042308993C2413B90AB9109898B102F0E2
:100480000F053035641EEEB23A2EA8BF273512098B
:1004900042EA03721B090D5508BF002A03D00798D2
:1004A0000D19A842EBD308190790C4F13C0210982B
:1004B0000A92824209DABDF84810821A4FF6EF70AC
:1004C00001400C92ADF8481097E7002895D59DF8AB
:1004D000480000F0140010288FD1119B09990C9846
:1004E0005B1A1B1A9A1A002A87DD0C9285E7149969
:1004F000487820B14FF0FF340FF69C1079E79DF853
:100500004A00622862D0682819D06A2840D06C2836
:1005100006D071284DD074282DD07A281ED064E0E2
:10052000D9F8001051F8040BC9F8001020B94FF0A9
:10053000FF340FF67C105CE70F9901605DE7D9F896
:10054000001051F8040BC9F8001020B94FF0FF3427
:100550000FF65C104DE70F9901804EE7D9F80010B7
:1005600051F8040BC9F800100028E5D14FF0FF3412
:100570000FF63C103DE7D9F8001051F8040BC9F80C
:1005800000100028D8D14FF0FF340FF6241030E7C8
:10059000D9F8001051F8040BC9F8001020B94FF039
:1005A000FF340FF60C1024E70F9AD317C0E900238D
:1005B00023E7D9F8001051F8040BC9F800100028FF
:1005C000F2D14FF0FF340FF6E80012E7D9F800102F
:1005D00051F8040BC9F8001020B94FF0FF340FF6A2
:1005E000D00006E70F99017007E7D9F8001051F81D
:1005F000040BC9F8001000289ED14FF0FF340FF60D
:10060000B000F6E6D9F80020D21D22F00702C9F8A2
:100610000020D2E900010832C9F80020CDE9040128
:10062000C80F02D009982D210AE0BDF848008107C3
:1006300002D509982B2103E0C00705D50998202190
:100640001FAA1154401C0990DDE9042309991FA831
:10065000CDE92E2308444BF020016129079015AC09
:100660000BD01099002902D50621109105E001BF99
:100670004BF02001672901221092DDE90423590083
:100680004915491C10D11A030ED0ABF161050321A5
:100690001A2D0A9102D20FF6A43101E00FF6A03113
:1006A000032200F0BDFEA8E659004915491C0AD1F5
:1006B0001A0308D1ABF1610503211A2D0A9116D353
:1006C0000FF68431ECE7DDE90401CDE93001DDE925
:1006D000302323F00047B7F5801F22F000060DD22B
:1006E0000022002F08BF002E029203D116E00FF661
:1006F0005431D5E702AA00F0E7FE0FE0DFF8EC0A7C
:10070000DFF8EC1A00EB17500290DDE930234FF0D0
:10071000FF301940DFF8DC7A10403943CDE904019D
:100720004BF0200061280DD1079830210170821C08
:10073000BBF1610F07920CBF7821582141700998D5
:10074000801C0990DDE9040120F0000231F0004333
:1007500008BF002A02D10026002571E14BF02008D5
:10076000B8F1610F40F0BE801098002847BF2121EA
:100770000391401C0390039FDDE92E017F1C0022A2
:100780000023DDE9044500F0D7FE02998DF85420DE
:1007900038BF85F00045091F002F02910DF1550665
:1007A0005DDDDFF8541ACDE9302140F2FF732E935E
:1007B000204629460022002300F0D6FE4FD24800F2
:1007C000400D00F11C0215D0002A13DD2E9B9A4229
:1007D0000ADBDDE9300121F0004205F00040024370
:1007E000DDE93001114611E06FF31E5141EA02517B
:1007F00020460BE024F0000035F0004108BF00283F
:100800000FBF29461C22294600F0C6FE04460D46AD
:1008100000F060FFFF1F002F804609DD00F078FF29
:1008200002460B462046294600F084FF04460D464A
:10083000F01D0721B8F1000F0CDD491E5EBF08F066
:100840000F0200F8012D4FEA2818F3D502E000222C
:1008500000F8012D491EFAD5C61D002FA8DC0DF1A8
:100860005500361A03988642D8BF304600280DF14D
:10087000550430D4B04206DA0DF155010A5C082A5D
:10088000A8BF0F2100DA0021024615AB134400E097
:10089000401E13F80159521E8D42F9D00F2904D180
:1008A0000DF155018B5C5B1C8B54002A04D5029919
:1008B000091D15AC401C0291411E0CD46218ABF10D
:1008C0003A0613783033DDB23A2DA8BFF318491E2B
:1008D00002F80139F5D51099002940F1AF80421E88
:1008E0001092ABE00299DFF8142947F29750414388
:1008F00091FBF2F2DDE92E45029225F00045D2F19E
:10090000070204DD2046294600F04CFC0BE0524271
:100910000020DFF8EC1800F045FC02460B462046AC
:10092000294600F079FF0446B8F1660F109806BF1B
:10093000029F0A3706273F18142FC8BF14273020FC
:100940008DF854000D460020DFF8B818CDE92E01CF
:100950000DF15506002F33DD2046294601F080F8C1
:1009600001460A4606F1080304200A26B2FBF6F601
:1009700006EB860EA2EB4E02303203F8012C0A225F
:10098000B6FBF2F202EB820EA6EB4E063036401EAC
:1009900003F8026DE9D1083F002F03F10806D9DD05
:1009A000084601F071F802460B462046294600F041
:1009B000C1FEDDE92E2301F075F804460D46CBE7B4
:1009C0000DF15500361A0DF1550404E00298401E51
:1009D000761E0290641C20783028F7D0B8F1660F9C
:1009E00002D10299491C04E0B8F1650F0CBF012146
:1009F0000021109808188642B8BF701E00281DD428
:100A0000B04204DA215C3429C8BF392100DC30212E
:100A10000246631E9D1800E0401E15F80169521E33
:100A20008E42F9D0392902D1A15C491CA154002A77
:100A300004D50299491C1C46401C02910646029DA1
:100A400000F05AFC406A0778DDF8408030B2002898
:100A500002DC01260FF2F4744BF02000662808BF78
:100A60006D1C16D0672846D128B210F1040F48DB60
:100A7000404546DA9DF848006D1C010703D430B2AA
:100A80004045B8BF804628B2B8EB000848BF4FF0D9
:100A900000080FFA85FB07980A99BBF1000F00F3D5
:100AA000B2804A1C0A9230234354B8F1000F03DC91
:100AB0009DF84800010704D50A98411C0A9107993E
:100AC0000F5418EB0B0FB8BFC8F100052DB26842E8
:100AD0000D90A84432B29045B8BF4646079B0A988D
:100AE00036B20B9632462146184400F099FCA8EB2A
:100AF00006000E90CBE0BBF1610F17D14FF0700BE9
:100B000019E030B2404504DA9DF848100A0758BF92
:100B10008046B8F1010848BF4FF00008BBF1670FED
:100B200014BF4FF0450B4FF0650B04E0BBF1410FD4
:100B300008BF4FF0500B0A98411C0A91B8F1000F02
:100B4000079914F8012B0A5403DC9DF848000107AB
:100B50001AD50A98411C0A91B8F1000F07990F5451
:100B600012DD761E30B2804507980A9BB8BF464614
:100B700032B22146184400F053FC0A9936B271187B
:100B80000A91A8EB06000D9007980A9908442AB22A
:100B9000002A80F800B003D42B224270811C04E0AC
:100BA0002D2141701546811C6D4200202EAA0A2479
:100BB00009E02B4693FBF4F505EB8506A3EB460312
:100BC00002F8013B401C2DB2002DF2DC012806DCAE
:100BD0004BF02002652A04BF302201F8012B0028C7
:100BE0002EAA08D1302001F8010B06E0401E135C4C
:100BF000303301F8013B0028F8DC079A0A981044CA
:100C0000091A0B9143E0084431B22AB2914219DA31
:100C100032B2214600F004FC0A9936B27118ABEBEF
:100C20000606B8F1000F0A910D9603DC9DF8480006
:100C3000020704D5079847540B99491C0B91CDF82E
:100C4000388024E0214600F0EBFB0A98761B5844DC
:100C5000B8F1000F0A9003DC9DF848100A0703D58D
:100C6000411C0A9107990F5430B2804507980A9B9E
:100C7000B8BF464632B204EB0B01184400F0D0FB7B
:100C80000A9836B230180A90A8EB06000D909DF82D
:100C9000480000F0140010287FF4AFAB099A0A99BD
:100CA0000D988A180B9982180E988A188218119834
:100CB0008242BFF6A2AB821A17E49DF84A0062286E
:100CC00008D068280ED06A2814D06C281FD071284C
:100CD00010D01CE0D9F8001051F8040BC9F800102E
:100CE000C0B21AE0D9F8001051F8040BC9F800108E
:100CF00080B212E0D9F80020D21D22F00702C9F814
:100D00000020D2E900010832C9F8002006E0D9F835
:100D1000001051F8040BC9F800100021CDE90401BE
:100D20009DF8480001075AD5DDE90423002B08BFD0
:100D3000002A54D04BF02000782850D109981FA9E0
:100D400030220A54401C431C099301F800B046E0CD
:100D50009DF84A00622808D068280ED06A2814D06E
:100D60006C281FD0712810D01CE0D9F8001051F861
:100D7000040BC9F8001040B21AE0D9F8001051F87D
:100D8000040BC9F8001000B212E0D9F80020D21DFF
:100D900022F00702C9F80020D2E900010832C9F8A0
:100DA000002006E0D9F8001051F8040BC9F8001033
:100DB000C117CDE90401002902D509982D210AE0C7
:100DC000BDF84800810702D509982B2103E0C00730
:100DD00005D5099820211FAA1154401C09901FA86D
:100DE00009990144079104A8594600F056F9FFF704
:100DF00004BB9DF84A006C280BD001210991D9F859
:100E0000000050F8041BC9F800008DF87C10FFF7B3
:100E1000F4BAD9F8000050F8041BC9F80000159185
:100E20004FF0FF3210920021169115AAFFF709BB6F
:100E300025210122BBF1000F8DF87C1009923FF4AF
:100E4000DCAA8DF87DB00221FFF7AABACBCCCC0C7E
:100E5000686A6C747A4C00007072696E74665F73B5
:100E60003A2062616420256C7320617267756D653C
:100E70006E7400007072696E74665F733A2062610E
:100E80006420257320617267756D656E74000000C3
:100E900000000000000000007072696E74665F73ED
:100EA0003A20256E20646973616C6C6F776564000D
:100EB0007072696E74663A2062616420256E2061EA
:100EC0007267756D656E740033B0BDE8F08F2DE903
:100ED000FC410F46064690467A6B7869396ABC6ACF
:100EE000121AB869521A796A121AF869521A121A41
:100EF00097F83800141B41070FD42020002C8DF8E0
:100F000000000ADD254601236A463946304600F0D6
:100F10007DF900285DD16D1EF5D17B6942463946C9
:100F2000304600F073F9002853D130208DF80000CE
:100F30003D6A002D09DD01236A463946304600F03E
:100F400065F9002845D16D1EF5D1BB69FA683946AF
:100F5000304600F05BF900283BD130208DF80000CE
:100F60007D6A002D08DD01236A463946304600F0CF
:100F70004DF970BB6D1EF6D1F868B969FB6942186E
:100F80003946304600F042F918BB30208DF8000099
:100F9000BD6A002D08DD01236A463946304600F05F
:100FA00035F9B0B96D1EF6D197F8380041070DD567
:100FB0002020002C8DF8000008DD01236A46394608
:100FC000304600F023F920B9641EF6D10020BDE8B8
:100FD000F6814FF0FF30BDE8F6812DE9F8470D4668
:100FE000A3B02F6B002F8246904648BF6FF000479A
:100FF00000F029FE696B401801AA0021C2E9001126
:10100000812828BF4FF0FF3044D289461EE0A74216
:1010100030DB6869201881280BD30021696303AA9B
:1010200029465046FFF753FF5FEA000922D400200B
:10103000686103AB6E6922466946981900F0F0F9C1
:10104000A6196E6158F8040BA0B13F1B002F11DDEB
:10105000D8F8001001AA684600F04CF90446002CAC
:1010600005D4D8F800000028D1D1641ECFD54FF0A8
:10107000FF390EE0B9F1000F504604D103AA29460A
:10108000FFF725FF8146B9F1000F02D1002068610A
:101090006863484624B0BDE8F0872DE9FC43074665
:1010A0006F293E6908BF082405D041F02000782848
:1010B00014BF0A2410243C25D7E90023642918BF53
:1010C00069299046994605D1002B03D5D8F100082F
:1010D00069EB4909B9F1000F08BFB8F1000F0CD155
:1010E000386B50B9082C39D197F83800010735D53D
:1010F00030203B2586F83B0030E08DF8001040465C
:1011000049462246E31700F0A3FD3032D0B26D1EEF
:101110003A28019504DB9DF80000A0F151018A18DE
:101120007255404649462246E31700F091FD80463D
:101130005FEA010908BFB8F1000F03D0F868711920
:101140008842DCD3082C09D197F83800010705D56F
:10115000705D302802D06D1E30207055C5F13C0204
:10116000BA617119F960386B824208DA821A3A6200
:101170004FF6EF70398F01403987BDE8F3830028BF
:101180000ED597F8380000F01400102808D17B6BBA
:101190007969386A5B1A1B1A9A1A002AC8BF3A6220
:1011A000BDE8F3832DE9D04306460F4614464FF0C1
:1011B0000008DFF8549012E0E00707D542464B469E
:1011C0003046394600F06EFC06460F46404649461A
:1011D00042464B4600F066FC641080468946002C6F
:1011E000EAD130463946BDE8D083000002FCFFFF5B
:1011F000FFFF0F800000E03F0000F07FA0860100AD
:101200000000F03F84D7974100002440F8B5054620
:101210000E4617461C4600205CB117F8011BB0684B
:10122000A847B06030B1F06A401CF0620020641E34
:10123000F3D1F2BD4FF0FF30F2BD00006E616E00E1
:101240004E414E00696E6600494E4600300030B493
:10125000002513E050F8042BD30744BFA9F1010384
:101260009A18091F042942F8045BFAD213468C0726
:1012700044BF15809B1CC90748BF1D7050F8041B54
:101280000029E7D130BC70471C48704770B45368E0
:10129000D41801E05B1C491E042B08DA00291FBF8B
:1012A000057804F8015B10F8016B002EF2D1536051
:1012B00070BC704738B514461D4661B1FFF7E6FFB4
:1012C00061686A6B204690476FF00102811A02D074
:1012D000491E01D001E003E005E00021616032BD5C
:1012E0006FF0010032BD4FF0FF3032BDDA6B1047B6
:1012F000024BDFE7014BF9E701487047CC000020C3
:1013000094000020C9B202788A421AB11CBF10F8BA
:10131000012FF9E718BF00207047B1F5807F02D395
:101320004FF0FF3070470170012070470078401E79
:101330008041C043C00F704780B500B906A0054981
:101340000B681BB122220021984701E000F098FDB4
:10135000222002BD605D0020636F6E73747261694C
:101360006E742068616E646C65723A2062616420FC
:101370006D6573736167650000F10103810704D037
:1013800010F8011B820781B1FAD10268A2F1013184
:10139000914311F0803104BF50F8042FF6E709BAE9
:1013A000B1FA81F100EBD100401CC01A704782688D
:1013B000521C8260426832B10268531C0360117093
:1013C0004168491E41607047C9B2830706D0521E6A
:1013D00022D310F8013B9942F7D11FE0083A13D30A
:1013E00002F1040241EA012141EA014150F8043BC3
:1013F000121F21BF4B40A3F1013C2CEA030C1CF04F
:10140000803FF3D0C9B2001F083210F8013B521ED2
:1014100028BF91EA030FF8D818BF0120401E70477B
:1014200062B38B0708D0521E11F8013B00F8013B54
:1014300000F024808B07F6D1830740F0208000BFA6
:10144000103A07D330B4B1E83810103AA0E8381099
:10145000F9D230BC530724BFB1E80810A0E8081047
:1014600044BF51F8043B40F8043BD20724BF31F895
:10147000022B20F8022B44BF0B7803707047121F19
:1014800017D35B0009D151F8043B20F8023B1B0C39
:10149000121F20F8023BF6D20BE051F8043B00F893
:1014A000013B1B0A20F8023B1B0C121F00F8013BFA
:1014B000F3D238BF121D521E24BF11F8013B00F8B1
:1014C000013BF8D870472E0010B5144600F002F822
:1014D000226010BDC1F30A5343B14A0012F5001F48
:1014E00028D2A3F2FE32A1EB0251704750EA410C20
:1014F00020D001F0004C31EA0C01B1FA81F204BFB6
:10150000B0FA80F3D2180B3AB2F120032CBF00FAE4
:1015100003F1914041EA0C013EBFC2F1200C20FAD8
:101520000CF319439040524240F2FD33D21A01EBC2
:1015300003517047002270474FF4001C1CEB410F11
:1015400094BF1CEB430F09E041EA030C50EA4C0C3A
:1015500052EA0C0C03D2994208BF9042704714BF64
:101560008B428242704743004FF4001C1CEB410F3A
:1015700094BF1CEB430F09E041EA030C50EA4C0C0A
:1015800052EA0C0C03D28B4208BF8242704714BF50
:101590009942904270470000124254D440F2FF7CBE
:1015A0001CEA11530FD0634531D09B1863453CBFF3
:1015B00001EB0251704701F0004141EA0C5100205B
:1015C000AFF30080704750EA410320D001F0004C97
:1015D00091EA0C011CD0B1FA81F30B3B9A420DD970
:1015E000D21A994051EA0C01C3F1200C20FA0CFCEC
:1015F00061449840531C40F2FF7CD7E7914041EA98
:101600000C01C2F1200C20FA0CF3194390407047F2
:10161000B0FA80F31533202BE0D3202AEED3203A02
:10162000203B9A4209D9D21A00FA03F141EA0C018F
:101630000020531C40F2FF7CB8E700FA02F141EAB7
:101640000C0100207047524240F2FF7C1CEA11530B
:101650000DD06345DBD0B2EB030C3CBFA1EB0251D4
:1016600070470CF1010221EA035141F4801150EA64
:10167000410CCCD001F0004C352A27DC30B481EA93
:101680000C01B2F1200309DAC2F12003044601FA89
:1016900003F5D0402843D1409C400CE0C3F1200228
:1016A000450020FA03F418BF44F0010421FA03F0C6
:1016B00091400C43002174F1004550F1000051EBC2
:1016C0000C01244230BC7FF47BAF704761460020A0
:1016D00076E70000C1F30A5340F2FE329B1A14DD94
:1016E000D3F120034FEAE17208DDC90241EA50510B
:1016F00041F00040D84080185040704703F2E1307C
:1017000010B1D24382F000407047002070470000C3
:10171000C11768B14840401AB0FA80F29040D21C1C
:10172000C907C2F5846241EA025202EBD0214005AA
:101730007047000070B44FF0004591EA030F40F18C
:10174000A3836B40841A71EB030603D2001BB141E3
:10175000121973414FF4001C1CEB410F34BF7CEB9A
:10176000430442E00C0DA4EB1356352E4FDC45EA42
:10177000C323DB0A45EAC121C912B6F120050DDDFC
:1017800063FA05F6EB4086EA0305124218BF45F0FE
:101790000105C01851F100010CD213E062FA06F500
:1017A000F2405540F3415A40B340F3405A4080184C
:1017B000594107D349085FEA30005FEA350528BF81
:1017C00045F0010501F58011420875F1004250F124
:1017D000000041EB04514E0016F5001F70BC38BFED
:1017E00070470020090D090570471CEB410F10D20E
:1017F00052EA43060BD0BCEB410F05D80C0DAB43AE
:10180000661E342EB6DD02E0AB438018594170BC31
:10181000704770BC70470000F0B540F2FF7581EA78
:10182000030C0CF0004C15EA11541DBF15EA1357B8
:10183000AC42AF42E5E0BC41C1F31301C3F3130373
:10184000801A994143F4801304D2641E4000494138
:1018500080185941C90241EA5051B1FBF3F603FB2C
:101860001611A2FB0675D7EBC020A94102D2761E45
:1018700080185941C90241EA5051B1FBF3FE03FB04
:101880001E11A2FB0E75D7EBC020A94103D2AEF109
:10189000010E80185941890241EA9051760546EAC5
:1018A0008E2EB1FBF3F603FB1611A2FB0675D7EBE8
:1018B0008020A94102D2761E80185941C90241EA0E
:1018C00050514EEA060EB1FBF3F603FB1611A2FBD4
:1018D0000675D7EBC020A94102D2761E8018594167
:1018E000C90241EA5051B1FBF3F703FB1711A2FB08
:1018F0000735D3EBC020A94167F100070CBF0042B8
:1019000047F0010766F3D5274FEA1E31B80814F5F2
:10191000806412DDBD0775F1004250EB0E5051EBB3
:10192000045111F5801F5CBF41EA0C01F0BD4CF081
:101930007F6141F0E0410020F0BDBD076D0840EA45
:101940000E5041F48011D4F10104B4F120060ADAFA
:10195000C4F120060200E04001FA06F3E14018431A
:10196000B24015430EE0342C13DCC6F1200445EAE6
:1019700040056D0820FA06F2154321FA06F0A14051
:101980000D43002175F1004250F1000051EB0C01B4
:10199000F0BD00205FEA0C01F0BDCFB992185B41A9
:1019A000B3FA83F704BFB2FA82F6BF190B3FB7F15F
:1019B00020062FBF02FA06F3BB40C7F1200622FA29
:1019C00006F638BF3343BA401CB1E419641E33E74E
:1019D0007F4231F00041B1FA81F404BFB0FA80F6E1
:1019E000A4190B3CB4F120062FBF00FA06F1A14068
:1019F000C4F1200620FA06F638BF3143A0403C1B54
:101A00001AE7AC421ABF05EA1357AF4212E050EA98
:101A100041061CBF52EA4306BFE750EA4107304681
:101A200061461CBF41EA0551F0BD52EA430C08BFB4
:101A3000C143F0BD00204FF4001616EB410F98BFD4
:101A400016EB430F08BF16EB410F24BFC14305E05F
:101A500016EB430F0CBF61464CEA0551F0BD000088
:101A6000400D491840EA81200CD2490DA1F5806152
:101A7000491C40F0004005DBD1F11F0154BFC840B4
:101A8000C017704700207047014648B1B0FA80F196
:101A90008840C91CC1F58461090501EBD0214005CE
:101AA00070470000B0B581EA030C0CF0004C40F226
:101AB000FF7515EA11541DBF15EA1357AC42AF422A
:101AC00039E0E41923EA455343F48013C90241F095
:101AD000004141EA505EC7021100A7FB0202002844
:101AE0004FF00000EEFB01204FF00001E3FB072167
:101AF00018BF42F00102401800214941E3FB0E01EA
:101B0000A4F580640F0302D252004041494154F1D0
:101B100001046CDD470872F1004250F1000051EB06
:101B20000451A1F580115CBF41EA0C01B0BD4CEA43
:101B300005510020B0BD05EA1357AC4214BFAF42B7
:101B400041E050EA410E1CBF52EA430E02E06146FA
:101B50000020B0BD24423C441BD15FEA070EF6D002
:101B6000090302BF01460020AEF1140EB1FA81F75D
:101B7000AEEB070401FA07FE0C37C7F1200100FAAB
:101B800007F7C8404EEA000E23EA455343F480139A
:101B9000A2E733F00043B3FA83F704BFB2FA82FE40
:101BA00077440B3FE41BB7F1200E2FBF02FA0EF370
:101BB000BB40C7F1200E22FA0EFE38BF43EA0E03E7
:101BC000BA40641C82E750EA410E14BF52EA430E49
:101BD0006FF000014FF4001717EB430F8ABF19464F
:101BE00017EB410FB5E74CEA05510020B0BDD4F129
:101BF0000104B4F120070FDAC4F12007520828BF0E
:101C000042F0010210FA07F501FA07F7E1BF2A4393
:101C1000E0403843E1400FE0352C98DCC7F1200468
:101C200052EA400220FA07F218BF42F0010231FAEC
:101C300007F0A1400A43002172F1004250F1000078
:101C400051EB0C01B0BD80B5FFF71EFB006C02BD6F
:101C5000BBBBE1B1B2F5803F80F07E80022A1ED985
:101C60008C46B1FBF2F102FB11C31B0443EA1043A3
:101C7000B3FBF2FC02FB1C3380B240EA0343B3FB2C
:101C8000F2F002FB103240EA0C4000237047022AB7
:101C900005D98446B0FBF2F002FB10C270474AB18E
:101CA00005D100F0010249085FEA300070470022C8
:101CB0000023704700F09EB90B00020000210020B5
:101CC0007047904271EB030CF6D3B3F5803F2FD2EF
:101CD000F0B5B3FA83F7B1FA81F4A7F10F0E3D1B0B
:101CE0005340CEF1200602FA0EF2F3415340B5F113
:101CF0000F0746D80F3C2C444140C4F12006A040B9
:101D0000F1414140B1FBF3F603FB1611A2FB06457E
:101D1000001BA94102D2761E8018594180EA0102B7
:101D200021FA0EF362FA0EF200215A403046F0BD5D
:101D300030B4B1FBF3FC03FB1C11A2FB0C45001BF0
:101D4000A94103D2ACF1010C8018594130BC0246C4
:101D50000B46604600217047B2F1807F65D3F0B535
:101D6000B2FA82F7B1FA81F4C7F10F063D1B22FAED
:101D700006F307F1110EF24120355A40B5F10F0775
:101D8000B8D94140C4F12006A040F1414140B1FB27
:101D9000F3FC03FB1C11A2FB0C45001BA94103D261
:101DA000BCF1010C801859410F2F12D30F3FC9030A
:101DB00041EA5041B1FBF3F603FB1611A2FB0645C5
:101DC000D4EBC030A94102D2761E8018594146EAB0
:101DD000CC3C07B34140C7F12006B840F141414037
:101DE000B1FBF3F603FB1611A2FB0645001BA9414C
:101DF00002D2761E8018594180EA010221FA0EF3C0
:101E0000C7F1200462FA0EF20CFA07F05A402CFADD
:101E100004F13043F0BD80EA010221FA0EF3002103
:101E200062FA0EF260465A40F0BD8C46B1FBF2F108
:101E300002FB11C31B0243EA1063B3FBF2FC02FB7B
:101E40001C331B024CEA002043EA1063B3FBF2FC94
:101E500002FB1C331B024CEA002043EA1063B3FB75
:101E6000F2FC02FB1C331B024CEA002043EA106325
:101E7000B3FBF2FC02FB1C324CEA0020002370474B
:101E8000012000F0B9B80000841A71EB030604D2F7
:101E90006E40001BB141121973414FF4001C1CEB42
:101EA000410F34BF7CEB430683E00C0DA4EB1356CB
:101EB000362E00F37C80012E45EAC32341DC43EA41
:101EC000525312BFD20292025B08240545EAC12197
:101ED00041EA5051D2EBC020994125D407D1B0FA44
:101EE00080F610FA06F162D00020203608E0B1FA40
:101EF00081F6B140C6F1200220FA02F21143B0404F
:101F00004FEAF474B4EB465434F001064FEA74041B
:101F10000AD8D6F50016760D04F00044F04061FAB8
:101F200006F25040F1404840C00A40EA415021F0DA
:101F3000004128BF5FEA500550F1000044EBD12179
:101F400035E0DB0A45EAC121C90AB6F120050EDDFC
:101F500042EA0242120CC5F1200603FA06F6EB40F3
:101F600042EA06056D42984161F100010DE062FA16
:101F700006F5F240554063FA06FC82EA0C02F34093
:101F80005A406D42904161EB030111F4801F05D16D
:101F9000641E620502D06D004041494121F4801168
:101FA000430875F1004350F1000041EB045170BC4F
:101FB00070471CEB410F15D223F0004352EA430651
:101FC0000BD04FEA4C0CBCEB410F04D80C0D661E35
:101FD000342EB7DDEBE7801A994150EA410608BF7D
:101FE0000021E4E708BF1CEB430F28BF6FF000019E
:101FF000DDE700007047000080B5AFF30080024AC3
:1020000011001820ABBEFBE72600020078B595B0A2
:1020100004000025002600200090002C01D10120A2
:102020005AE12069002802D094F820000028206C92
:10203000C00653D4206C00283DD1002060640020ED
:10204000E0640020A064002084F83C00200000F040
:10205000B3FF20688068C0002DD4200000F078FD18
:102060000500206CC00626D42800C0B2002822D16A
:10207000206C30F4885050F00200206420688068A2
:1020800030F04050216888602068806850F08050AF
:1020900021688860DFF844020068DFF84412B0FB72
:1020A000F1F10A204143009102E00098401E0090A7
:1020B00000980028F9D120688068C00003D5206806
:1020C000806880000AD5206C30F0020050F01000CB
:1020D0002064606C50F0010060640125206CC00633
:1020E00000F1F1802800C0B2002840F0EC802068A8
:1020F0008068400700F1E780206C30F4807050F079
:10210000020020642068B0F1A04F04D02068DFF8FE
:10211000D411884202D1DFF8D01101E0DFF8CC11F0
:102120002068B0F1A04F04D1DFF8B8010190019808
:102130001EE02068DFF8AC21904204D15FF0A0409F
:102140000190019814E0DFF8A8012268824204D1CE
:10215000DFF8A001019001980AE02268DFF89431CD
:102160009A4202D10190019802E00020019001986A
:102170002068806810F00300012804D120680068FE
:1021800010F0010000E00020002816D1019800287E
:102190000DD00198806810F00300012804D1019847
:1021A000006810F0010000E00020002805D18A68D6
:1021B00032F44032606802438A60606B012802D0CA
:1021C0004FF4805100E00021607E51EA4031E06828
:1021D0000143A06801430E4394F82000012813D165
:1021E000607E002806D1606A401E400450F48030B2
:1021F000064309E0206C30F0020050F0200020641B
:10220000606C50F001006064A06A012824D020684E
:10221000DFF8DC10884204D02068DFF8D81088424C
:1022200016D1A06AB0F5307F02D14FF4E07110E012
:10223000A06AB0F5807F02D14FF4307109E0A06A46
:10224000B0F5E07F02D14FF4807102E0A16A00E0B6
:10225000A16AE06A01430E432068806810F00C0F09
:102260000DD12068C168DFF81C0201402068C16000
:10227000207E94F83010490051EA80310E432068E6
:10228000C168DFF8040201400E432068C66020697F
:10229000012809D12068006B00090001E169491E8D
:1022A00008432168086305E02068006B000900010D
:1022B0002168086300206064206C30F0020050F058
:1022C0000100206406E0206C30F0020050F01000A5
:1022D000206401252800C0B216B070BD9000002017
:1022E00040420F0000010050000300500007005062
:1022F0000004005000050050F8B504000D00160061
:10230000002020688068400700F1B78094F83C0006
:10231000012801D10220B3E0012084F83C002068AC
:10232000B0F1A04F04D02068DFF87411884204D1C6
:102330005748006810F01F0003E05648006810F08E
:102340001F00002840F09480200000F0C2FB07002E
:102350003800C0B2002840F08780216C4B48014013
:1023600051F4807121642068B0F1A04F04D020683E
:10237000DFF82C11884204D14548006810F01F0096
:1023800003E04448006810F01F00002808D02068CF
:10239000B0F1A04F04D02068DFF8081188420ED1B8
:1023A000206C30F4801020642068C068800124D53F
:1023B000206C30F4005050F4805020641DE0206CFC
:1023C00050F4801020642068B0F1A04F04D0206841
:1023D000DFF8CC10884204D12F48006810F000705C
:1023E00003E02E48006810F00070002805D0206C33
:1023F00030F4005050F480502064206CC00404D5A8
:10240000606C30F00600606401E000206064002031
:1024100084F83C00DFF89000A16B8862DFF88C0044
:10242000A16BC862DFF88800A16B08631C202168DB
:1024300008602068406850F01000216848602068FB
:10244000C06850F001002168C86033002A0020688D
:1024500010F14001A06B00F022FF2068806850F06E
:1024600004002168886009E0002084F83C0005E051
:102470000127002084F83C0000E002273800C0B2A9
:10248000F2BD0000FDBFFFFF07C0F0FFFEF1FFFF40
:1024900008030050080700500C0000500C040050C6
:1024A0000001005000040050652A0008AF2A00080F
:1024B000B92A000870B495B002000B00002100207A
:1024C0000090D8680128FFD192F83C00012801D182
:1024D000022003E2012082F83C0010688068400777
:1024E00000F1F2815868052811D206201468246B87
:1024F0001F255E684643B540AC431D685E6800FB1F
:1025000006F015FA00F020431468206340E0586894
:102510000A2813D206241068456B1F265868401FEE
:1025200010FB04F08640B5431E685868401F10FB3E
:1025300004F0864035431068456329E058680F2849
:1025400013D206241068856B1F2658680A3810FBC2
:1025500004F08640B5431E6858680A3810FB04F042
:10256000864035431068856312E006241068C56B09
:102570001F2658680F3810FB04F08640B5431E68CC
:1025800058680F3810FB04F0864035431068C56367
:102590001068806810F00C0F40F0AB8018680A28B3
:1025A00014D310688469072518680A38032610FBBD
:1025B00006F08540AC439D6818680A38032610FB76
:1025C00006F085402C43106884610FE01068446970
:1025D00007251E6803204643B540AC439D681E682E
:1025E00003204643B5402C43106844615869146881
:1025F000E468C4F3C104E4B2640010FA04F4186996
:10260000012806D03DD303281FD010D304282AD098
:1026100037E01068056EDFF840040540186855EA99
:1026200080652C4354F000441068046661E0106833
:10263000456EDFF824040540186855EA80652C4390
:1026400054F000441068446653E01068856EDFF86B
:1026500008040540186855EA80652C4354F000448E
:102660001068846645E01068C56EDFF8EC0305402D
:10267000186855EA80652C4354F000441068C4661D
:1026800037E01068006E10F0F8401C68B0EB846F03
:1026900005D11068006E20F00040146820661068B4
:1026A000406E10F0F8401C68B0EB846F05D11068E4
:1026B000406E20F00040146860661068806E10F074
:1026C000F8401C68B0EB846F05D11068806E20F074
:1026D00000401468A0661068C06E10F0F8401C68D6
:1026E000B0EB846F05D11068C06E20F00040146814
:1026F000E0661068806810F00300012804D11068BB
:10270000006810F0010000E00020002840F0E180A7
:10271000D86801280AD01068D0F8B04001251868A0
:102720008540AC431068C0F8B04035E01068D0F880
:10273000B0400125186885402C431068C0F8B040AF
:1027400018680A2814D3106884690725186809389E
:10275000032610FB06F08540AC439D6818680938D5
:10276000032610FB06F085402C431068846113E0BB
:102770001068446907251868401C032610FB06F002
:102780008540AC439D681868401C032610FB06F08A
:1027900085402C43106844611068B0F1A04F03D00D
:1027A0001068504CA04202D1DFF8B04201E0DFF8DF
:1027B000B0421868102802D1A06800020CD5186831
:1027C000112802D1A068C00106D51868122840F06F
:1027D0008080A06840027CD41068B0F1A04F03D183
:1027E0004048019001981AE010683E4DA84204D17B
:1027F0005FF0A0400190019811E03B4815688542C8
:1028000003D13A480190019809E01568374EB54266
:1028100002D10190019802E0002001900198106817
:10282000806810F00300012804D11068006810F0DF
:10283000010000E00020002840D1019800280DD0C0
:102840000198806810F00300012804D10198006805
:1028500010F0010000E0002000282FD11868102897
:1028600018D11068B0F1A04F14D1A06850F4000046
:10287000A060DFF860030068DFF85C33B0FBF3F3BF
:102880000A20434300930098002822D00098401E5D
:102890000090F8E71868112808D11068B0F1A04F2F
:1028A00004D1A06850F08070A06012E0186812286F
:1028B0000FD1A06850F48000A0600AE0106C50F0C6
:1028C00020001064012104E0106C50F0200010641E
:1028D0000121002082F83C000800C0B215B070BC95
:1028E0007047000000010050000400500005005037
:1028F00030B494B000220B68002B0368B3F1A04FF2
:1029000004D1DFF8E0320093009B1EE00368DFF89B
:10291000D442A34204D15FF0A0430093009B14E093
:10292000DFF8B83204689C4204D1DFF8B432009377
:10293000009B0AE00468DFF8A852AC4202D1009381
:10294000009B02E000230093009B009B002B01D121
:1029500001207DE090F83C30012B01D1022077E08E
:10296000012380F83C3003689B685B0766D4009BBA
:102970009B685B0762D40368B3F1A04F04D003687F
:10298000DFF86042A34201D1344C00E0344C0B68C4
:10299000002B2ED0A56835F460454B681D4390F898
:1029A000303055EA4335A56003689B6813F0030394
:1029B000012B04D103681B6813F0010300E000231E
:1029C000002B40D1009B9B6813F00303012B04D123
:1029D000009B1B6813F0010300E00023002B32D1A1
:1029E000A568814B1D400B681D4389680D43A56098
:1029F00029E0A16831F46041A1600168896811F0A3
:102A00000301012904D10168096811F0010100E006
:102A10000021002917D10099896811F003010129CB
:102A200004D10099096811F0010100E0002100299A
:102A300009D1A3686C490B40A36004E0016C51F01C
:102A4000200101640122002180F83C101000C0B276
:102A500014B030BC7047000000F0FF83000300504A
:102A60000007005080B5416A0A6C12F0500F1AD16D
:102A7000086C50F4007008640868C06810F4406F77
:102A80000DD1487E00280AD1086C30F480700864AB
:102A9000086CC00403D4086C50F0010008640800FE
:102AA00000F09EFD02E0896B096B884701BD80B58F
:102AB000406A01F0EFF801BD80B5406A016C51F049
:102AC00040010164416C51F00401416401F0E3F8FC
:102AD00001BD38B5040000202068806810F00300B4
:102AE000012804D12068006810F0010000E00020F7
:102AF00000282BD1206880686FF39E10002809D031
:102B0000206C50F010002064606C50F00100606494
:102B100001201CE02068806850F001002168886076
:102B200001F0BAF8050020680068C0070ED401F073
:102B3000B3F8401B0328F6D3206C50F0100020643B
:102B4000606C50F001006064012000E0002032BDA4
:102B500038B5040000202068806810F003000128C8
:102B600004D12068006810F0010000E00020002877
:102B70002ED02068806810F00D0001281ED120683A
:102B8000806850F002002168886003202168086096
:102B900001F082F8050020688068C00718D501F0B0
:102BA0007BF8401B0328F6D3206C50F01000206403
:102BB000606C50F00100606401200AE0206C50F06D
:102BC00010002064606C50F001006064012000E09F
:102BD000002032BD9000002040420F000004005051
:102BE0000005005000010050E0F0FFFF18B589B06B
:102BF0000C22002106A801F055F818220021684691
:102C000001F050F8DFF8F8455FF0A04020600020A8
:102C100060600020A060012020610120607600201B
:102C200084F820000020E0620120A0620020E06023
:102C30000A20E061012084F8300008206061002053
:102C40002076002060632000FFF7E0F9002801D023
:102C500001F010F90020069006A92000FFF748FEB9
:102C6000002801D001F006F9062000900120019013
:102C7000002003900720029000200490002005907F
:102C800069462000FFF716FC002801D001F0F2F899
:102C9000072000900220019069462000FFF70AFCFF
:102CA000002801D001F0E6F80820009003200190F0
:102CB00069462000FFF7FEFB002801D001F0DAF89A
:102CC000092000900420019069462000FFF7F2FBE4
:102CD000002801D001F0CEF80A20009005200190D4
:102CE00069462000FFF7E6FB002801D001F0C2F89A
:102CF000012000900620019069462000FFF7DAFBD2
:102D0000002801D001F0B6F80220009007200190C1
:102D100069462000FFF7CEFB002801D001F0AAF899
:102D2000032000900820019069462000FFF7C2FBB5
:102D3000002801D001F09EF80420009009200190A5
:102D400069462000FFF7B6FB002801D001F092F899
:102D5000052000900A20019069462000FFF7AAFB99
:102D6000002801D001F086F80AB010BD10B586B079
:102D700018220021684600F095FFDFF88844DFF84C
:102D800088042060002060600020A0600120206195
:102D900001206076002084F820000020E0620120FD
:102DA000A0620020E0600220E061012084F8300091
:102DB0000820606100202076002060632000FFF77B
:102DC00025F9002801D001F055F8012000900120DC
:102DD0000190002003900720029000200490002022
:102DE000059069462000FFF765FB002801D001F03F
:102DF00041F8022000900220019069462000FFF770
:102E000059FB002801D001F035F806B010BD10B50F
:102E100086B018220021684600F044FFDFF8EC433A
:102E2000DFF8EC032060002060600020A06001203B
:102E3000206101206076002084F820000020E062FC
:102E40000120A0620020E0600D20E061012084F8F4
:102E500030000820606100202076002060632000A0
:102E6000FFF7D4F8002801D001F004F80620009004
:102E70000120019000200390072002900020049080
:102E80000020059069462000FFF714FB002801D0C0
:102E900000F0F0FF01200090022001906946200020
:102EA000FFF708FB002801D000F0E4FF02200090AB
:102EB0000320019069462000FFF7FCFA002801D0AA
:102EC00000F0D8FF03200090042001906946200004
:102ED000FFF7F0FA002801D000F0CCFF04200090AA
:102EE0000520019069462000FFF7E4FA002801D090
:102EF00000F0C0FF052000900620019069462000E8
:102F0000FFF7D8FA002801D000F0B4FF0C200090A1
:102F10000720019069462000FFF7CCFA002801D075
:102F200000F0A8FF0D2000900820019069462000C5
:102F3000FFF7C0FA002801D000F09CFF07200090A6
:102F40000920019069462000FFF7B4FA002801D05B
:102F500000F090FF082000900A20019069462000B0
:102F6000FFF7A8FA002801D000F084FF09200090A4
:102F70000B20019069462000FFF79CFA002801D041
:102F800000F078FF0A2000900C2001906946200094
:102F9000FFF790FA002801D000F06CFF0B200090A2
:102FA0000D20019069462000FFF784FA002801D027
:102FB00000F060FF06B010BD38B586B004001422E2
:102FC0000021684600F06EFE2068B0F1A04F68D185
:102FD00090480168491C01600068012809D18E48A9
:102FE000016851F080510160006810F08050059038
:102FF00005988948016851F400210160016811F4C5
:10300000002105910599016851F480010160016872
:1030100011F4800105910599016851F400310160B6
:10302000006810F40030059005980F2000900320F0
:103030000190002002906946784800F01DFF14209E
:10304000009003200190002002906946744800F02F
:1030500013FF0F200090032001900020029069468A
:103060005FF0904000F008FF6E4D6F482860002030
:1030700068600020A8608020E8604FF480702861BC
:103080004FF4806068612020A8610020E86128007A
:1030900000F0DAF8002801D000F0ECFEA5636C62C5
:1030A000ACE020685849884242D15A480168491C1E
:1030B00001600068012809D15748016851F080512A
:1030C0000160006810F08050059005985248016832
:1030D00051F400310160006810F40030059005984B
:1030E00030200090032001900020029069465FF09C
:1030F000904000F0C1FE4D4D4D48286000206860B2
:103100000020A8608020E8604FF4807028614FF4B0
:10311000806068612020A8610020E861280000F03C
:1031200093F8002801D000F0A5FEA5636C6265E06D
:1031300020683749884261D13748016851F0005111
:103140000160016811F0005105910599016851F481
:1031500000110160016811F40011059105990168E1
:1031600051F480210160016811F4802105910599D5
:10317000016851F480110160006810F4801005901E
:1031800005984FF4414000900320019000200290E8
:103190006946284800F070FE4FF45040009003202C
:1031A0000190002002906946234800F065FE4FF42C
:1031B000FE400090032001900020029069461F48C5
:1031C00000F05AFE1E4D1F48286000206860002055
:1031D000A8608020E8604FF4807028614FF4806020
:1031E00068612020A8610020E861280000F02CF828
:1031F000002801D000F03EFEA5636C6207B030BD30
:10320000205700207057002000010050C0570020B8
:1032100000050050D05C0020141002400008004857
:1032200000140048085B0020080002404C5B0020AE
:10323000080402400010004800040048000C004848
:10324000905B00201C04024010B504000020002CFC
:1032500001D1012022E0022084F8210020680168C9
:103260006FF30D116268A0680243E06802432069B1
:10327000024360690243A0690243E06902431143CB
:1032800020680160200000F012F90020A0630120F6
:1032900084F82100002084F82000002010BD70B5C3
:1032A0000400002594F82000012801D1022037E015
:1032B000012084F8200094F8210001282AD102205E
:1032C00084F821000020A0632068006840084000C6
:1032D00026683060200000F0D4F8E06A002806D0AC
:1032E0002068006850F00E00216808600BE020683C
:1032F000006850F00A00216808602068006830F01B
:103300000400216808602068006850F0010021680E
:10331000086003E0002084F8200002252800C0B2E5
:1033200070BD90F82110022906D00421816300218C
:1033300080F82010012017E00168096831F00E01C3
:103340000268116001680968490849000268116053
:103350000122016C8A40C16B4A60012180F8211072
:10336000002180F820100020704710B5002490F84C
:103370002110022903D00421816301241BE001688C
:10338000096831F00E010268116001680968490896
:103390004900026811600122016C8A40C16B4A60D9
:1033A000012180F82110002180F82010416B0029B4
:1033B00001D0416B88472000C0B210BD10B5C16B71
:1033C0000B6801680C680422016C12FA01F10B42CF
:1033D00015D0610713D501680968890605D401680D
:1033E000096831F0040103681960016C8A40C16BFF
:1033F0004A60C16A002943D0C16A884740E002227E
:10340000016C12FA01F10B421BD0A10719D501681A
:103410000968890608D40168096831F00A0103685F
:103420001960012180F82110016C8A40C16B4A604B
:10343000002180F82010816A002921D0816A884704
:103440001EE00822016C8A40134219D0210717D5CB
:103450000168096831F00E01026811600122016CF7
:103460008A40C16B4A6001218163012180F82110EB
:10347000002180F82010016B002901D0016B8847E2
:1034800010BD30B40125046CA540C46B65600468B0
:1034900063604368102B04D103689A600068C160C0
:1034A00003E0036899600068C26030BC704701683F
:1034B0000C4A91420AD202680B498A181421B2FBC5
:1034C000F1F1890001640949C16309E00268084912
:1034D0008A181421B2FBF1F1890001640549C16326
:1034E0007047000008040240F8FFFDBF00000240E2
:1034F000F8FBFDBF00040240DFF84C370360DFF843
:103500004C07086080201060704780B58EB007A817
:10351000DFF83C171C22FDF793FF002107A800F0FD
:10352000ABFDDFF8301708606846DFF82C171C2267
:10353000FDF786FF0021684600F09EFDDFF81C17AE
:1035400008600FB000BD80B501221021DFF8100720
:1035500000F065FD00228021DFF8080700F05FFD24
:103560000A22DFF80417DFF80407FEF7C5FE02227F
:10357000DFF8FC16DFF8FC06FEF7BEFE0122DFF8DE
:10358000F816DFF8F806FEF7B7FE00224FF4004108
:103590005FF0904000F043FD64230422DFF8E01662
:1035A000DFF8E00600F024FE01224FF400415FF056
:1035B000904000F034FD012000F08DFDE5E780B57E
:1035C000DFF8C40600210091036803224168C9B2F4
:1035D000002001F077FA01F0C2FA01F0D0FAFCE71E
:1035E00070470020C0B2704710B4020000200C00E9
:1035F000A4B2002C00D0491EDBB2002B03D0012B5B
:1036000000F042821BE389B200296FD002296FD0FB
:103610006DD304296ED06CD306296DD06BD30829E5
:103620006CD06AD30A296BD069D30C296AD068D3CD
:103630000E2969D067D3102968D066D3122967D0C4
:1036400065D3142966D064D3162965D063D31829AD
:1036500064D062D31A2963D061D31C2962D060D3AD
:103660001E2961D05FD3202960D05ED322295FD08C
:103670005DD324296ED05CD3262900F08D807AD3C7
:10368000282900F0AB80C0F098802A2900F0C8807B
:10369000C0F0B5802C2900F0E580C0F0D2802E2942
:1036A00000F00281C0F0EF80302900F01F81C0F0EF
:1036B0000C81322900F03C81C0F02981342900F0CE
:1036C0005981C0F04681362900F07681C0F06381CF
:1036D000382900F09381C0F080813A2900F0B08150
:1036E000C0F09D813B2900F0BC81CBE1CBE1CAE178
:1036F000C9E1C8E1C7E1C6E1C5E1C4E1C3E1C2E196
:10370000C1E1C0E1BFE1BEE1BDE1BCE1BBE1BAE1C5
:10371000B9E1B8E1B7E1B6E1B5E1B4E1B3E1B2E1F5
:10372000B1E1B0E1AFE1AEE1ADE1ACE1ABE1AAE125
:10373000A9E15178002906D1DFF844150A6852F052
:1037400000420A6005E0DFF838150A6822F00042FE
:103750000A6098E15178002906D1DFF824150A683B
:1037600052F080420A6005E0DFF814150A6832F072
:1037700080420A6087E15178002906D1DFF8001500
:103780000A6852F000520A6005E0DFF8F4140A6893
:1037900032F000520A6076E15178002906D1DFF854
:1037A000E0140A6852F080520A6005E0DFF8D01495
:1037B0000A6832F080520A6065E15178002906D12A
:1037C000DFF8BC140A6852F000620A6005E0DFF816
:1037D000B0140A6832F000620A6054E1517800299E
:1037E00006D1DFF89C140A6852F080620A6005E096
:1037F000DFF88C140A6832F080620A6043E1517885
:10380000002906D1DFF878140A6852F000720A60C5
:1038100005E0DFF86C140A6832F000720A6032E1E9
:103820005178002906D1DFF858140A6852F08072E6
:103830000A6005E0DFF848140A6832F080720A6016
:1038400021E15178002906D1DFF834140A6852F4D6
:1038500000020A6005E0DFF828140A6832F400026A
:103860000A6010E15178002906D1DFF814140A68C3
:1038700052F480020A6005E0DFF804140A6832F4AA
:1038800080020A60FFE05178002906D1DFF8F013CA
:103890000A6852F400120A6005E0DFF8E4130A68CF
:1038A00032F400120A60EEE05178002906D1DFF808
:1038B000D0130A6852F480120A6005E0DFF8C013E2
:1038C0000A6832F480120A60DDE05178002906D1DE
:1038D000DFF8AC130A6852F400220A6005E0DFF852
:1038E000A0130A6832F400220A60CCE05178002963
:1038F00006D1DFF88C130A6852F480220A6005E0D2
:10390000DFF87C130A6832F480220A60BBE0517849
:10391000002906D1DFF868130A6852F400320A6001
:1039200005E0DFF85C130A6832F400320A60AAE0AE
:103930005178002906D1DFF848130A6852F4803222
:103940000A6005E0DFF838130A6832F480320A6052
:1039500099E05178002906D1DFF824130A6852F45F
:1039600000420A6005E0DFF818130A6832F40042EA
:103970000A6088E05178002906D1DFF804130A684C
:1039800052F480420A6005E0DFF8F4120A6832F46B
:1039900080420A6077E05178002906D1DFF8E01212
:1039A0000A6852F400520A6005E0DFF8D4120A688F
:1039B00032F400520A6066E05178002906D1DFF83F
:1039C000C0120A6852F480520A6005E0DFF8B012B3
:1039D0000A6832F480520A6055E05178002906D115
:1039E000DFF89C120A6852F400620A6005E0DFF812
:1039F00090120A6832F400620A6044E051780029AB
:103A000006D1DFF87C120A6852F480620A6005E091
:103A1000DFF86C120A6832F480620A6033E0517891
:103A2000002906D1DFF858120A6852F400720A60C1
:103A300005E0DFF84C120A6832F400720A6022E0F6
:103A40005178002906D1DFF838120A6852F48072E2
:103A50000A6005E0DFF828120A6832F480720A6012
:103A600011E05178002906D1DFF814120A6852F0EB
:103A700080020A6005E0DFF808120A6832F080026E
:103A80000A6000E00120DBE089B2002900F08080BC
:103A9000022900F07F807CD304297DD07BD30629C6
:103AA0007CD07AD308297BD079D30A297AD078D3ED
:103AB0000C2979D077D30E2978D076D3102977D0F6
:103AC00075D3122976D074D3142975D073D31629DF
:103AD00074D072D3182973D071D31A2972D070D3CD
:103AE0001C2971D06FD31E2970D06ED320296FD0BE
:103AF0006DD322296ED06CD324296DD06BD32629A7
:103B00006CD06AD328296BD069D32A296AD068D3AC
:103B10002C2969D067D32E2968D066D3302967D085
:103B200065D3322966D064D3342965D063D336296E
:103B300064D062D3382963D061D33A2962D060D38C
:103B40003C2961D05FD33E2960D05ED340295FD04D
:103B50005DD342295ED05CD344295DD05BD3462936
:103B60005CD05AD348295BD059D34A295AD058D36C
:103B70004C2959D057D34E2958D056D3502957D015
:103B800055D3522956D054D3542955D053D354E049
:103B900054E053E052E051E050E04FE04EE04DE0A1
:103BA0004CE04BE04AE049E048E047E046E045E0D1
:103BB00044E043E042E041E040E03FE03EE03DE001
:103BC0003CE03BE03AE039E038E037E036E035E031
:103BD00034E033E032E031E030E02FE02EE02DE061
:103BE0002CE02BE02AE029E028E027E026E025E091
:103BF00024E023E022E021E020E01FE01EE01DE0C1
:103C00001CE01BE01AE019E018E017E016E015E0F0
:103C100014E013E012E011E010E00FE00EE00DE020
:103C20000CE00BE00AE009E008E007E006E005E050
:103C300004E003E002E001E000E0012000E00220F7
:103C4000C0B210BC70470000CC56002018510020B4
:103C50003CA10008D85C002058A10008DC5C0020D2
:103C600000040048000C0048505C00202057002051
:103C7000D45C002070570020345C0020C057002026
:103C800000000020AC550020745600200120704731
:103C9000012070477047704701480068704700BFB7
:103CA000205D002010B5044610460A460146204615
:103CB00001F008F8204610BDF8B5A6B001F036F8BE
:103CC00000F06CF801F044F801F0D8F8FEF78EFF30
:103CD000FFF79DF801F002F901F08EF901F0EBF920
:103CE00001F048FA01F0CCFA01F0A3FA01F098FED5
:103CF000FFF73CF801F044FF01F06AFF01F04EFBD2
:103D000001F0BFFB01F01DFC01F0ABFE13A802F0B7
:103D10001DFC504C13A820604F4AD2E900014F4DC2
:103D2000D5E900234E4DD5E90067CDE90367CDE91C
:103D300001230091030001224A49206802F098F80B
:103D4000494D2900206801F0D5FF2868002801D1DD
:103D5000012000E00020296811F1010F01D10121AB
:103D600000E00021C0B2C9B20843404909780843C5
:103D700000280ED05FF4E13028600D206860290033
:103D800083B068465822FDF75BFB0EBC206801F04B
:103D9000B7FFFFF7BAFB00F06AF9FEE780B59EB007
:103DA0002822002105A8FFF77DFF14220021684684
:103DB000FFF778FF3C2200210FA8FFF773FF0120D7
:103DC00005905FF480300690002107910121099150
:103DD00002210C910D905FF4E0100E9005A802F006
:103DE000B7FB002801D000F045F80F20009002201A
:103DF0000190002002904FF4806003900020049016
:103E00000221684602F0DEFE002801D000F032F800
:103E100043F283100F9000201190002012904FF475
:103E2000987018904FF41850199000201B900020A3
:103E30001C900FA803F03AF8002801D000F01AF8FF
:103E40001FB000BD80B500680949884201D103F068
:103E500055F901BDF05C002024A400082CA4000842
:103E600034A400081056002074560020705D002015
:103E70000014004070470000F8B40200002433E052
:103E8000052704E0DFF8A8319A42F9D1042714F09D
:103E90000303DBB29B009F403E4323009B0845F891
:103EA0002360DFF890512B6883434E68F60300D5FA
:103EB00003432B60604D2B6883434E68B60300D5E7
:103EC00003432B605D4D2B6883434E68F60200D59B
:103ED00003432B605A4D2B6883434E68B60201D5CD
:103EE000184303002B60641C0868E040002800F0C1
:103EF00094800125086815FA04F318400028F2D0D0
:103F00004B68012B08D04B68022B05D04B68112B56
:103F100002D04B68122B16D1966803272300DBB220
:103F20005B009F40BE43CF682300DBB25B009F4035
:103F30003E4396605368A540AB434D68C5F30015FA
:103F4000A5402B435360D66803252300DBB25B00FA
:103F500015FA03F39E438F682300DBB25B009F409A
:103F60003E43D6604B68022B02D04B68122B17D110
:103F70002300DB0802EB83031E6A0F2714F00703FC
:103F8000DBB29B009F40BE430F6914F00703DBB216
:103F90009B009F403E432300DB0802EB83031E622D
:103FA00016682300DBB25B009D40AE430D7915F02F
:103FB00003052300DBB25B009D402E4316604B6877
:103FC000DB0090D51F4B1D6855F001051D601B6877
:103FD00013F001030093009B1B4D23009B0855F831
:103FE00023600F2714F00303DBB29B009F40BE4306
:103FF000B2F1904F01D1002749E7144B9A4201D109
:10400000012744E7124B9A4201D102273FE7114BA7
:104010009A427FF437AF032739E7F1BC7047D2B239
:10402000002A02D089B2816101E089B281627047C1
:10403000001000480004014004040140080401404D
:104040000C04014018100240080001400004004820
:1040500000080048000C0048010000200A0012B2CD
:10406000842A03D009B2C91C09180800704780B51A
:1040700003F092F9002002BD38B584B004000D00B1
:104080006069002815D0A069002812D0B4F9080092
:10409000FFF7E2FFA16902916169019100902B0095
:1040A00022692168606803F035F80390039805B031
:1040B00030BDB4F90800FFF7CFFF03A901910090CC
:1040C0002B00226992B22168606803F064F801282D
:1040D000ECD00020EBE780B50121B0FBF1F0002827
:1040E00000D1012003F032F9002002BD10B5040018
:1040F000002C01D101207AE0606A002806D16068B6
:10410000B0F5827F06D00020E06103E0002020614E
:10411000002060610020A06294F85D00002805D1B5
:10412000002084F85C00200001F07AFD022084F871
:104130005D002068006830F0400021680860E06899
:1041400040F20171884201D3002001E04FF4805019
:10415000E168B1F5706F05D0E168B1F5E06F01D0AD
:104160000021A162616811F48271A26812F4044214
:104170001143227C12F002021143227D12F001024F
:104180001143A26912F400721143227F12F0380227
:10419000114394F8202012F080021143A26A12F415
:1041A0000052114322681160A169090C11F0040149
:1041B00094F8242012F01002114394F8342012F0E5
:1041C00008021143E26812F47062114310F4805047
:1041D0000843216848602068C06930F400602168A5
:1041E000C86100202066012084F85D00002010BD19
:1041F0002DE9F84306000D0091461C00002796F8B3
:104200005C00012801D10220E4E0012086F85C0076
:10421000FFF742FD8046494696F85D00012801D02F
:104220000227CFE0002D03D0484680B2002801D1FC
:104230000127C7E0032086F85D0000203066B563E3
:10424000A6F83C90A6F83E90002030640020A6F826
:1042500044000020A6F84600002030650020F064ED
:10426000B068B0F5004F0BD13068006830F0400006
:10427000326810603068006850F480403268106026
:1042800030680068400605D43068006850F040008F
:1042900032681060F06840F2017290422ED370686C
:1042A000002802D089B2012914D1B06B008831688E
:1042B000C860B06B801CB063F08F401EF08709E0CF
:1042C000B06B00883168C860B06B801CB063F08F41
:1042D000401EF087F08F00285BD030688068800730
:1042E000EED4FFF7D9FCB0EB0800A04202D314F1E2
:1042F000010F01D1002CEDD1032763E07068002885
:1043000002D089B2012922D1F08F02280AD3B06BE2
:1043100000883168C860B06B801CB063F08F801E6D
:10432000F08714E0B06B007831680873B06B401C04
:10433000B063F08F401EF08709E0B06B00883168F1
:10434000C860B06B801CB063F08F801EF087F08F68
:1043500000281ED03068806880070DD5F08F0228B5
:10436000EBD2B06B007831680873B06B401CB0635F
:10437000F08F401EF087EAE7FFF78EFCB0EB0800F5
:10438000A04202D314F1010F01D1002CDFD1032789
:1043900018E042462100300000F05FFB002801D009
:1043A00020203066B068002808D1002000903068D6
:1043B000C06800903068806800900098306E0028D7
:1043C00000D00127012086F85D00002086F85C00FF
:1043D0003800C0B2BDE8F2832DE9F84306000D00B5
:1043E00091461C0000277068B0F5827F0ED1B0683E
:1043F00000280BD1042086F85D0000944B469BB248
:104400002A002900300000F0B8F8B4E096F85C000B
:10441000012801D10220AEE0012086F85C00FFF700
:104420003BFC804696F85D00012801D002279AE007
:10443000002D03D0484680B2002801D1012792E028
:10444000042086F85D00002030663564A6F84490AC
:10445000A6F846900020B0630020B0870020F087C7
:104460000020F0640020306540F20170F168814264
:1044700006D33168496831F480513268516005E0F3
:104480003168496851F4805132685160B168B1F5C2
:10449000004F0BD13168096831F04001326811607A
:1044A0003168096831F48041326811603168096807
:1044B000490605D43168096851F04001326811603D
:1044C000F16881422DD20BE03068007B316C0870BE
:1044D000306C401C3064B6F84600401EA6F846001A
:1044E000B6F84600002831D030688068C007EBD4A9
:1044F000FFF7D2FBB0EB0800A04202D314F1010F8A
:1045000001D1002CECD103272DE03068C068316C5C
:104510000880306C801C3064B6F84600401EA6F857
:104520004600B6F84600002810D030688068C00702
:10453000EBD4FFF7B1FBB0EB0800A04202D314F1BB
:10454000010F01D1002CECD103270CE042462100E1
:10455000300000F03FFA002801D020203066306E95
:10456000002800D00127012086F85D00002086F891
:104570005C003800C0B2BDE8F2832DE9F0470500C9
:104580008A4614005FF00108002695F85C000128B7
:1045900001D1022048E19946012085F85C00FFF72F
:1045A0007BFB070095F85D1068684A464B468C46D1
:1045B0005FFA8CFCBCF1010F0AD0B0F5827F05D107
:1045C000A868002802D1C9B2042901D0022623E13B
:1045D0005146002906D02000002803D04C46A4B242
:1045E000002C01D1012617E195F85D40042C02D082
:1045F000052485F85D4000242C662864A5F84690C3
:10460000A5F84490A963A5F83E90A5F83C90002039
:10461000E8640020286540F20170E968814202D216
:104620009BB2022B06D32968496831F480512B686C
:10463000596005E02968496851F480512B68596038
:1046400029680968490605D42968096851F04001BC
:104650002B681960089CE96881424DD3686800287E
:1046600002D092B2012A09D1A86B00882968C860DB
:10467000A86B801CA863E88F401EE887E88F00289D
:1046800004D1B5F84600002800F0BC802868806896
:10469000800711D5E88F00280ED0B8F1010F0BD19B
:1046A000A86B00882968C860A86B801CA863E88F85
:1046B000401EE8875FF0000828688068C00711D5B1
:1046C000B5F8460000280DD02868C068296C08801D
:1046D000286C801C2864B5F84600401EA5F84600EA
:1046E0005FF00108FFF7D8FAC01BA042C6D314F14F
:1046F000010FC3D003268FE06868002802D092B271
:10470000012A17D1E88F02280AD3A86B00882968EC
:10471000C860A86B801CA863E88F801EE88709E04A
:10472000A86B007829680873A86B401CA863E88F01
:10473000401EE887E88F002803D1B5F8460000281E
:1047400060D02868806880071FD5E88F00281CD0BB
:10475000B8F1010F19D1E88F02280AD3A86B00889D
:104760002968C860A86B801CA863E88F801EE88752
:1047700009E0A86B007829680873A86B401CA8633F
:10478000E88F401EE8875FF0000828688068C0074F
:104790002CD5B5F84600002828D0B5F846000228E8
:1047A00016D32868C068296C0880286C801C28648F
:1047B000B5F84600801EA5F84600B5F84600022868
:1047C00012D22868406850F48050296848600BE095
:1047D0002868007B296C0870286C401C2864B5F898
:1047E0004600401EA5F846005FF00108FFF754FAA6
:1047F000C01BA04202D314F1010F01D1002C99D1AA
:10480000032609E03A002100280000F026F90028DC
:1048100002D0012620202866012085F85D000020B6
:1048200085F85C003000C0B2BDE8F0872DE9F843A0
:1048300005000E0017009846089CFFF72DFAB8EB0C
:1048400000002418FFF728FA8146614800684001FB
:10485000000D00FB04F0009006E00098002800D155
:1048600000240098401E0090286880683040B042C4
:1048700001D1012000E000203900C9B288423AD0BD
:1048800018F1010FF0D0FFF707FAB0EB0900A042D2
:1048900001D2002CE1D12868406830F0E00029689E
:1048A00048606868B0F5827F0DD1A868B0F5004F08
:1048B00003D0A868B0F5806F05D12868006830F093
:1048C000400029680860A86AB0F5005F0BD128682D
:1048D000006830F40050296808602868006850F4C7
:1048E000005029680860012085F85D00002085F8E7
:1048F0005C00032000E00020BDE8F2832DE9F843CE
:1049000006000F0014009846089DFFF7C5F9B8EBA4
:1049100000002D18FFF7C0F981462D4801682320BB
:104920004143090D01FB05F1009106E000980028C4
:1049300000D100250098401E009030688068384003
:10494000A04241D0B7F5C06F03D1002C01D130682F
:10495000007B18F1010FF0D0FFF79EF9B0EB0900D2
:10496000A84201D2002DE1D13068406830F0E0006B
:10497000316848607068B0F5827F0DD1B068B0F5DD
:10498000004F03D0B068B0F5806F05D13068006883
:1049900030F0400031680860B06AB0F5005F0BD1BC
:1049A0003068006830F40050316808603068006892
:1049B00050F4005031680860012086F85D00002046
:1049C00086F85C00032000E00020BDE8F2830000D0
:1049D000900000207CB504000D0016006068B0F562
:1049E000827F0DD1A068B0F5004F03D0A068B0F56C
:1049F000806F05D12068006830F0400021680860B1
:104A000000962B00002280212000FFF70FFF0028D6
:104A100005D0206E50F02000206603201CE0606866
:104A2000B0F5827F17D1A068B0F5004F03D0A06821
:104A3000B0F5806F0FD100962B0000224FF4C061BB
:104A40002000FFF75BFF002805D0206E50F020000B
:104A50002066032000E0002076BD7CB504000D0038
:104A6000160000962B0000224FF4C0512000FFF7E3
:104A700045FF002805D0206E50F02000206603205E
:104A80001FE000962B00002280212000FFF7CEFEC1
:104A9000002805D0206E50F020002066032010E092
:104AA00000962B0000224FF4C0612000FFF726FF84
:104AB000002805D0206E50F020002066032000E082
:104AC000002076BD70B5050014001A000020080013
:104AD000C0B2002807D00800C0B2002803D00800E8
:104AE000C0B2F82801DB022436E05E4E31702800A7
:104AF000C0B2002820D1049B5B485C4908605C4838
:104B00005C4908605C485D4908605D485D49086033
:104B100000205D4908605D485D4908605D485E4968
:104B200008605E485E490860DBB22100C9B2307897
:104B300002F0A8FE040000E002242000C0B2002819
:104B40000AD103F001F8002801D1032404E05548FC
:104B500005700120544908702000C0B270BD38B5FE
:104B60000024514D2878012805D14048006880472D
:104B70000020287000E006242000C0B232BD7CB5C1
:104B8000002049480078002801D0062068E06846E7
:104B900002F0E6FF012862D19DF80000002805D050
:104BA00002281AD003D3032859D058E057E0404CCC
:104BB000404A41492000334B1B689847C0B2002847
:104BC0000AD1207827490978884202D02078002825
:104BD00002D1022002F0BDFF41E0384C364D28687A
:104BE00000782070364E01203070002205E013F866
:104BF00032002178884208D0521C102A0CDA2B4B44
:104C000013F832000028F2D106E02A49286803EBA5
:104C1000C2025268904730702548007800281DD0A5
:104C20003078002812D0234800210180217851F0EB
:104C300080012A680388D1540188491C0180317899
:104C40002A680388D1540188491C018019480288C8
:104C5000296804480078094B1B689847FFE7002043
:104C600076BD0000715D0020CB780008F85C002064
:104C7000E5780008FC5C002063790008F45C002003
:104C8000F9780008005D0020045D0020C379000869
:104C9000085D00204D7A00080C5D0020BB7A0008FA
:104CA000105D0020725D002014010020040000202F
:104CB000735D0020645D0020145D0020745D0020A1
:104CC000755D002062F30F2262F31F42401810F05E
:104CD000030308D0C91A1FD3DB0748BF00F8012D12
:104CE00028BF20F8022D130030B4144615461039A1
:104CF00028BF20E93C00FAD8490728BF20E90C006A
:104D000048BF40F8042D890028BF20F8022D48BF75
:104D100000F8012D30BC7047C91818BF00F8012DEC
:104D2000CB0728BF00F8012D7047000080B5074869
:104D3000016851F010010160032002F073FF0020B0
:104D400002F094FF02F0D2FF002002BD00200240DA
:104D500070B586B0142200216846FEF7A3FF4348D1
:104D6000016851F400110160016811F4001105910E
:104D70000599016851F480010160016811F4800116
:104D800005910599016851F400210160016811F451
:104D9000002105910599016851F400310160016815
:104DA00011F4003105910599016851F480210160E9
:104DB000016811F4802105910599016851F4801171
:104DC0000160006810F480100590059800224FF4EF
:104DD00000415FF09040FFF722F9254C002284212A
:104DE0002000FFF71CF9234D00224FF40471280026
:104DF000FFF715F9204E002201213000FFF70FF9CF
:104E00004FF400400090012001900020029000200B
:104E1000039069465FF09040FFF72EF884200090E1
:104E2000012001900020029000200390694620009C
:104E3000FFF722F84FF40470009001200190002049
:104E400002900020039069462800FFF715F8012022
:104E500000900120019000200290002003906946FC
:104E60003000FFF709F806B070BD00BF1410024013
:104E7000000C0048000400480010004880B51648A7
:104E8000016851F001010160016811F00101009118
:104E90000099016851F002010160006810F0020001
:104EA00000900098002205210B2002F0BFFE0B208D
:104EB00002F0CDFE00220521382002F0B7FE382096
:104EC00002F0C5FE00220521392002F0AFFE392094
:104ED00002F0BDFE01BD00BF1410024018B595B030
:104EE0000C2200216846FEF7DDFE1C22002103A8EB
:104EF000FEF7D8FE2C2200210AA8FEF7D3FEDFF829
:104F0000BC4ADFF8BC0A2060002060600020A0607E
:104F10000020E06000202061002060610020A0618E
:104F2000200002F0AFFF002801D0FEF7A3FF002011
:104F3000009000200190002002906946200003F0BC
:104F40001BFB002801D0FEF795FF60200390002096
:104F5000049000200590002006900020079000207B
:104F6000089000200990002203A9200003F091F886
:104F7000002801D0FEF77EFF042203A9200003F0E1
:104F800088F8002801D0FEF775FF082203A9200049
:104F900003F07FF8002801D0FEF76CFF0C2203A974
:104FA000200003F076F8002801D0FEF763FF002010
:104FB0000A9000200B9000200C9000200D90002003
:104FC0000E904FF400500F90002010900020119090
:104FD0005FF00070129000201390002014900AA936
:104FE000200003F012FB002801D0FEF743FF200051
:104FF00000F0A3FB16B010BD10B58AB00C22002142
:105000006846FEF74FFE1C22002103A8FEF74AFE69
:10501000DFF8B0495FF08040206000206060002031
:10502000A0600020E060002020610020A06120003E
:1050300002F028FF002801D0FEF71CFF002000909E
:10504000002002906946200003F096FA002801D063
:10505000FEF710FF602003900020049000200590D0
:1050600000200790002203A9200003F012F8002876
:1050700001D0FEF7FFFE042203A9200003F009F887
:10508000002801D0FEF7F6FE082203A9200003F055
:1050900000F8002801D0FEF7EDFE0C2203A9200045
:1050A00002F0F7FF002801D0FEF7E4FE200000F038
:1050B00044FB0AB010BD10B58AB00C22002168462E
:1050C000FEF7F0FD1C22002103A8FEF7EBFDDFF840
:1050D000F848DFF8F8082060002060600020A06039
:1050E0000020E060002020610020A061200002F08C
:1050F000C9FE002801D0FEF7BDFE00200090002070
:1051000002906946200003F037FA002801D0FEF72C
:10511000B1FE602003900020049000200590002044
:105120000790002203A9200002F0B3FF002801D05D
:10513000FEF7A0FE042203A9200002F0AAFF002827
:1051400001D0FEF797FE082203A9200002F0A1FF7C
:10515000002801D0FEF78EFE0C2203A9200002F0E9
:1051600098FF002801D0FEF785FE200000F0E5FA48
:105170000AB010BD10B58AB00C2200216846FEF7B7
:1051800091FD1C22002103A8FEF78CFDDFF84048AA
:10519000DFF840082060002060600020A060002050
:1051A000E060002020610020A061200002F06AFE83
:1051B000002801D0FEF75EFE002000900020029043
:1051C0006946200003F0D8F9002801D0FEF752FE0E
:1051D000602003900020049000200590002007909C
:1051E000002203A9200002F054FF002801D0FEF79E
:1051F00041FE042203A9200002F04BFF002801D049
:10520000FEF738FE082203A9200002F042FF002822
:1052100001D0FEF72FFE0C2203A9200002F039FF77
:10522000002801D0FEF726FE200000F086FA0AB022
:1052300010BD1FB50C2200216846FEF733FDDFF8D4
:105240009847DFF898072060002060600020A06089
:105250000020E0600020A061200002F067FD00282F
:1052600001D0FEF707FE0020009000200290694662
:10527000200003F081F9002801D0FEF7FBFD1FBDDF
:1052800018B595B00C2200216846FEF70BFD1C22D4
:10529000002103A8FEF706FD2C2200210AA8FEF734
:1052A00001FDDFF83C47DFF83C072060002060602C
:1052B0000020A0600020E0600020206100206061EC
:1052C0000020A061200002F0DDFD002801D0FEF7E3
:1052D000D1FD00200090002001900020029069463E
:1052E000200003F049F9002801D0FEF7C3FD60203B
:1052F00003900020049000200590002006900020DC
:1053000007900020089000200990002203A92000A7
:1053100002F0BFFE002801D0FEF7ACFD042203A975
:10532000200002F0B6FE002801D0FEF7A3FD0822FF
:1053300003A9200002F0ADFE002801D0FEF79AFD7F
:105340000C2203A9200002F0A4FE002801D0FEF7E1
:1053500091FD00200A9000200B9000200C9000206E
:105360000D9000200E904FF400500F9000201090F0
:10537000002011905FF00070129000201390002028
:1053800014900AA9200003F040F9002801D0FEF78C
:1053900071FD200000F0D1F916B010BD18B595B020
:1053A0000C22002107A8FEF77DFC1C220021684684
:1053B000FEF778FC2C2200210AA8FEF773FCDFF828
:1053C0002846DFF828062060002060600020A060EA
:1053D0000020E06000202061002060610020A061CA
:1053E000200002F04FFD002801D0FEF743FD002011
:1053F00007900020099007A9200003F0BDF80028BD
:1054000001D0FEF737FD60200090002001900020C1
:1054100002900020039000200490002005900020BE
:10542000069000226946200002F033FE002801D0D9
:10543000FEF720FD04226946200002F02AFE002823
:1054400001D0FEF717FD00200A9000200B900020ED
:105450000C9000200D9000200E904FF400500F9003
:1054600000201090002014900AA9200003F0CDF82D
:10547000002801D0FEF7FEFC200000F05EF916B017
:1054800010BD10B592B01C2200210BA8FEF70AFC3B
:105490002C2200216846FEF705FCDFF85445DFF8B2
:1054A00054052060002060600020A0600020E060C3
:1054B00000202061002060610020A061200002F037
:1054C00035FC002801D0FEF7D5FC200002F0DAFC04
:1054D000002801D0FEF7CEFC60200B9000200C903D
:1054E00000200D9000200E9000200F9000201090C2
:1054F0000020119000220BA9200002F0CAFD002814
:1055000001D0FEF7B7FC00200090002001900020A1
:10551000029000200390002004904FF4005005906A
:105520000020069000200A906946200003F06DF8E4
:10553000002801D0FEF79EFC200000F0FEF812B01B
:1055400010BD10B592B01C2200210BA8FEF7AAFBDB
:105550002C2200216846FEF7A5FBDFF89C44DFF80B
:105560009C042060002060600020A0600020E060BB
:1055700000202061002060610020A061200002F076
:10558000D5FB002801D0FEF775FC200002F07AFC64
:10559000002801D0FEF76EFC60200B9000200C90DC
:1055A00000200D9000200E9000200F900020109001
:1055B0000020119000220BA9200002F06AFD0028B3
:1055C00001D0FEF757FC0020009000200190002041
:1055D000029000200390002004904FF400500590AA
:1055E0000020069000200A906946200003F00DF884
:1055F000002801D0FEF73EFC200000F09EF812B01B
:1056000010BD81B00168DFF8B82391420BD1DFF8FB
:10561000F003016851F400610160006810F400605B
:105620000090009852E00168B1F1804F0BD1DFF893
:10563000D403016851F001010160006810F001001D
:105640000090009842E00168DFF8802391420BD17E
:10565000DFF8B003016851F002010160006810F04A
:1056600002000090009831E00168DFF86823914261
:105670000BD1DFF89003016851F00401016000686C
:1056800010F004000090009820E00168DFF8542337
:1056900091420BD1DFF86803016851F400510160B9
:1056A000006810F40050009000980FE00068DFF8E8
:1056B0003C1388420AD1DFF84803016851F4803175
:1056C0000160006810F480300090009801B07047CD
:1056D00081B00168DFF8042391420BD1DFF8240385
:1056E000016851F010010160006810F01000009096
:1056F000009820E00168DFF8FC2291420BD1DFF82E
:105700000003016851F400310160006810F40030BA
:10571000009000980FE00068DFF8E01288420AD19C
:10572000DFF8DC02016851F480210160006810F4A8
:1057300080200090009801B0704710B586B004003A
:10574000142200216846FEF7ADFA20689C49884281
:1057500033D1DFF8B402016851F40011016001682F
:1057600011F4001105910599016851F400310160AF
:10577000006810F40030059005984FF42850009010
:10578000022001900020029000200390022004904B
:1057900069469E48FEF770FB4FF4006000900220BF
:1057A000019000200290002003900B200490694695
:1057B0005FF09040FEF760FBFEE02068B0F1804FA4
:1057C00030D19148016851F480210160016811F4E1
:1057D000802105910599016851F4801101600068EC
:1057E00010F48010059005984FF44060009002205E
:1057F000019000200290002003900120049069464F
:105800008348FEF739FB1820009002200190002009
:105810000290002003900220049069467D48FEF724
:105820002BFBC9E020686949884218D17648016895
:1058300051F400110160006810F400100590059803
:105840003C20009002200190002002900020039054
:105850000220049069466D48FEF70EFBACE020681C
:105860005C49884231D16848016851F48011016077
:10587000016811F4801105910599016851F48021A6
:105880000160006810F48020059005984FF40040F6
:10589000009002200190002002900020039002203E
:1058A000049069465B48FEF7E7FA4FF4E070009019
:1058B000022001900020029000200390022004901A
:1058C00069465348FEF7D8FA76E020684549884291
:1058D00019D14D48016851F400210160006810F4AD
:1058E0000020059005984FF4707000900220019000
:1058F000002002900020039004200490694646484E
:10590000FEF7BAFA58E020683849884219D13E4873
:10591000016851F480010160006810F48000059076
:1059200005984FF4C0600090022001900020029082
:10593000002003900320049069463848FEF79CFA43
:105940003AE020682B49884219D12F48016851F468
:1059500000310160006810F4003005900598402087
:10596000009002200190002002900020039001206E
:10597000049069465FF09040FEF77EFA1CE02068D4
:105980001E49884218D12048016851F40031016055
:10599000006810F4003005900598802000900220E7
:1059A000019000200290002003900120049069469D
:1059B0005FF09040FEF760FA06B010BD5C58002022
:1059C000002C0140A8580020F4580020000400409A
:1059D00040590020000800408C5900200010004071
:1059E000D859002000340140245A002000400140D2
:1059F000705A002000440140BC5A00200048014079
:105A0000181002401C100240141002400010004800
:105A100000040048000C004800080048001400483A
:105A200080B54F484F4901604FF416414160002155
:105A300081600021C160002101610C2141610021D0
:105A400081610021C16100210162002141620023C6
:105A50000022002102F02CFE002801D0FEF70AFAF5
:105A600001BD80B54048414901604FF41641416095
:105A7000002181600021C160002101610C21416190
:105A8000002181610021C161002101620021416288
:105A900002F058FE002801D0FEF7ECF901BD10B568
:105AA00086B00400142200216846FEF7FBF8206847
:105AB0002C4988422CD12E48016851F48041016064
:105AC000006810F48040059005982A48016851F458
:105AD00000310160006810F40030059005984FF423
