:020000040800F2
:10000000E8640020B97E0008497C00084B7C0008A9
:100010004D7C00084F7C0008517C00080000000067
:1000200000000000000000000000000075740008DF
:10003000537C0008000000001D740008AD7100082A
:10004000297F00082D7F0008317F0008357F0008D8
:10005000397F00083D7F0008417F0008457F000888
:10006000497F00084D7F0008517F0008557C00083B
:10007000557F0008597F00085D7F0008617F0008F8
:10008000657F0008697F00086D7F0008717F0008A8
:10009000757F0008797F00087D7F0008817F000858
:1000A000857F0008897F00088D7F0008917F000808
:1000B000957F0008997F00089D7F0008A17F0008B8
:1000C000A57F0008A97F0008AD7F0008B17F000868
:1000D000B57F00085F7C0008B97F0008BD7F00087D
:1000E000C17F0008C57F0008C97F0008CD7F0008D8
:1000F000D17F0008D57F0008D97F0008DD7F000888
:10010000000000000000000000000000E17F000887
:10011000E57F0008E97F0008ED7F0008697C0008A2
:10012000737C00087D7C0008F17F0008F57F0008E3
:10013000F97F0008FD7F00080000000000000000BB
:100140000180000805800008098000080000000008
:10015000000000000000000000000000000000009F
:1001600000000000000000000D8000081180000861
:1001700015800008000000000000000000000000E2
:10018000000000001980000878B595B00400002533
:10019000002600200090002C01D101205AE12069A6
:1001A000002802D094F820000028206CC00653D408
:1001B000206C00283DD1002060640020E064002015
:1001C000A064002084F83C00200000F0B7FF206805
:1001D0008068C0002DD4200000F078FD0500206C60
:1001E000C00626D42800C0B2002822D1206C30F4EA
:1001F000885050F0020020642068806830F0405041
:10020000216888602068806850F08050216888608C
:10021000DFF844020068DFF84412B0FBF1F10A2075
:100220004143009102E00098401E00900098002891
:10023000F9D120688068C00003D5206880688000FC
:100240000AD5206C30F0020050F010002064606C81
:1002500050F0010060640125206CC00600F1F180BF
:100260002800C0B2002840F0EC8020688068400779
:1002700000F1E780206C30F4807050F002002064C0
:100280002068B0F1A04F04D02068DFF8D411884274
:1002900002D1DFF8D01101E0DFF8CC112068B0F115
:1002A000A04F04D1DFF8B801019001981EE020684A
:1002B000DFF8AC21904204D15FF0A040019001989A
:1002C00014E0DFF8A8012268824204D1DFF8A0011F
:1002D000019001980AE02268DFF894319A4202D135
:1002E0000190019802E00020019001982068806848
:1002F00010F00300012804D12068006810F001000C
:1003000000E00020002816D1019800280DD00198A7
:10031000806810F00300012804D10198006810F0F3
:10032000010000E00020002805D18A6832F4403244
:10033000606802438A60606B012802D04FF48051EC
:1003400000E00021607E51EA4031E0680143A0688E
:1003500001430E4394F82000012813D1607E002849
:1003600006D1606A401E400450F48030064309E024
:10037000206C30F0020050F020002064606C50F0DF
:1003800001006064A06A012824D02068DFF8DC1036
:10039000884204D02068DFF8D810884216D1A06ABD
:1003A000B0F5307F02D14FF4E07110E0A06AB0F5F3
:1003B000807F02D14FF4307109E0A06AB0F5E07F90
:1003C00002D14FF4807102E0A16A00E0A16AE06A04
:1003D00001430E432068806810F00C0F0DD1206897
:1003E000C168DFF81C0201402068C160207E94F8DB
:1003F0003010490051EA80310E432068C168DFF8AF
:10040000040201400E432068C6602069012809D11A
:100410002068006B00090001E169491E084321685A
:10042000086305E02068006B00090001216808638B
:1004300000206064206C30F0020050F00100206465
:1004400006E0206C30F0020050F01000206401251E
:100450002800C0B216B070BD9000002040420F00CE
:10046000000100500003005000070050000400503D
:1004700000050050F8B504000D00160000202068AB
:100480008068400700F1B78094F83C00012801D152
:100490000220B3E0012084F83C002068B0F1A04FB6
:1004A00004D02068DFF87411884204D157480068EE
:1004B00010F01F0003E05648006810F01F000028ED
:1004C00040F09480200000F0C2FB07003800C0B26A
:1004D000002840F08780216C4B48014051F4807126
:1004E00021642068B0F1A04F04D02068DFF82C11FF
:1004F000884204D14548006810F01F0003E04448DA
:10050000006810F01F00002808D02068B0F1A04F4C
:1005100004D02068DFF8081188420ED1206C30F436
:10052000801020642068C068800124D5206C30F4DD
:10053000005050F4805020641DE0206C50F4801076
:1005400020642068B0F1A04F04D02068DFF8CC1000
:10055000884204D12F48006810F0007003E02E4854
:10056000006810F00070002805D0206C30F40050B6
:1005700050F480502064206CC00404D5606C30F0CE
:100580000600606401E000206064002084F83C0004
:10059000DFF89000A16B8862DFF88C00A16BC86265
:1005A000DFF88800A16B08631C20216808602068C0
:1005B000406850F01000216848602068C06850F022
:1005C00001002168C86033002A00206810F1400152
:1005D000A06B00F026FF2068806850F004002168BE
:1005E000886009E0002084F83C0005E00127002035
:1005F00084F83C0000E002273800C0B2F2BD0000E1
:10060000FDBFFFFF07C0F0FFFEF1FFFF0803005032
:10061000080700500C0000500C040050000100506E
:1006200000040050E10B00082B0C0008350C0008FA
:1006300070B495B002000B00002100200090D86833
:100640000128FFD192F83C00012801D1022003E2E9
:10065000012082F83C0010688068400700F1F281B8
:100660005868052811D206201468246B1F255E687F
:100670004643B540AC431D685E6800FB06F015FAC2
:1006800000F020431468206340E058680A2813D221
:1006900006241068456B1F265868401F10FB04F0A5
:1006A0008640B5431E685868401F10FB04F0864022
:1006B00035431068456329E058680F2813D2062493
:1006C0001068856B1F2658680A3810FB04F08640B6
:1006D000B5431E6858680A3810FB04F0864035435D
:1006E0001068856312E006241068C56B1F265868E1
:1006F0000F3810FB04F08640B5431E6858680F3869
:1007000010FB04F0864035431068C56310688068AC
:1007100010F00C0F40F0AB8018680A2814D3106852
:100720008469072518680A38032610FB06F08540FF
:10073000AC439D6818680A38032610FB06F0854014
:100740002C43106884610FE01068446907251E6817
:1007500003204643B540AC439D681E6803204643D2
:10076000B5402C431068446158691468E468C4F3C8
:10077000C104E4B2640010FA04F41869012806D038
:100780003DD303281FD010D304282AD037E01068A7
:10079000056EDFF840040540186855EA80652C4373
:1007A00054F000441068046661E01068456EDFF89C
:1007B00024040540186855EA80652C4354F0004431
:1007C0001068446653E01068856EDFF80804054041
:1007D000186855EA80652C4354F00044106884661C
:1007E00045E01068C56EDFF8EC030540186855EA6F
:1007F00080652C4354F000441068C46637E01068EC
:10080000006E10F0F8401C68B0EB846F05D11068E2
:10081000006E20F00040146820661068406E10F0F2
:10082000F8401C68B0EB846F05D11068406E20F072
:100830000040146860661068806E10F0F8401C6814
:10084000B0EB846F05D11068806E20F00040146812
:10085000A0661068C06E10F0F8401C68B0EB846FA2
:1008600005D11068C06E20F000401468E066106882
:10087000806810F00300012804D11068006810F0AF
:10088000010000E00020002840F0E180D868012845
:100890000AD01068D0F8B040012518688540AC43F4
:1008A0001068C0F8B04035E01068D0F8B0400125BD
:1008B000186885402C431068C0F8B04018680A28B2
:1008C00014D310688469072518680938032610FBBB
:1008D00006F08540AC439D6818680938032610FB74
:1008E00006F085402C431068846113E01068446969
:1008F00007251868401C032610FB06F08540AC4312
:100900009D681868401C032610FB06F085402C43A8
:10091000106844611068B0F1A04F03D01068504CCB
:10092000A04202D1DFF8B04201E0DFF8B04218681F
:10093000102802D1A06800020CD51868112802D135
:10094000A068C00106D51868122840F08080A06811
:1009500040027CD41068B0F1A04F03D14048019010
:1009600001981AE010683E4DA84204D15FF0A04003
:100970000190019811E03B481568854203D13A483F
:100980000190019809E01568374EB54202D10190F7
:10099000019802E00020019001981068806810F032
:1009A0000300012804D11068006810F0010000E085
:1009B0000020002840D1019800280DD001988068BF
:1009C00010F00300012804D10198006810F0010024
:1009D00000E0002000282FD11868102818D11068D6
:1009E000B0F1A04F14D1A06850F40000A060DFF86F
:1009F00060030068DFF85C33B0FBF3F30A20434385
:100A000000930098002822D00098401E0090F8E73C
:100A10001868112808D11068B0F1A04F04D1A0685F
:100A200050F08070A06012E0186812280FD1A06802
:100A300050F48000A0600AE0106C50F020001064B8
:100A4000012104E0106C50F020001064012100200E
:100A500082F83C000800C0B215B070BC70470000BE
:100A600000010050000400500005005030B494B064
:100A700000220B68002B0368B3F1A04F04D1DFF80C
:100A8000E0320093009B1EE00368DFF8D442A342EB
:100A900004D15FF0A0430093009B14E0DFF8B8326C
:100AA00004689C4204D1DFF8B4320093009B0AE052
:100AB0000468DFF8A852AC4202D10093009B02E028
:100AC00000230093009B009B002B01D101207DE0BF
:100AD00090F83C30012B01D1022077E0012380F80F
:100AE0003C3003689B685B0766D4009B9B685B0790
:100AF00062D40368B3F1A04F04D00368DFF860420A
:100B0000A34201D1344C00E0344C0B68002B2ED0B2
:100B1000A56835F460454B681D4390F8303055EAC0
:100B20004335A56003689B6813F00303012B04D1D0
:100B300003681B6813F0010300E00023002B40D181
:100B4000009B9B6813F00303012B04D1009B1B68DF
:100B500013F0010300E00023002B32D1A568814B84
:100B60001D400B681D4389680D43A56029E0A168FD
:100B700031F46041A1600168896811F00301012925
:100B800004D10168096811F0010100E00021002989
:100B900017D10099896811F00301012904D1009946
:100BA000096811F0010100E00021002909D1A368C2
:100BB0006C490B40A36004E0016C51F0200101641A
:100BC0000122002180F83C101000C0B214B030BCEB
:100BD0007047000000F0FF83000300500007005042
:100BE00080B5416A0A6C12F0500F1AD1086C50F4AB
:100BF000007008640868C06810F4406F0DD1487E2A
:100C000000280AD1086C30F480700864086CC004B5
:100C100003D4086C50F001000864080000F0B7FD30
:100C200002E0896B096B884701BD80B5406A01F01D
:100C300007F901BD80B5406A016C51F040010164C3
:100C4000416C51F00401416401F0FBF801BD38B57D
:100C5000040000202068806810F00300012804D1FF
:100C60002068006810F0010000E0002000282BD16F
:100C7000206880686FF39E10002809D0206C50F027
:100C800010002064606C50F00100606401201CE0E2
:100C90002068806850F001002168886001F0D2F877
:100CA000050020680068C0070ED401F0CBF8401B97
:100CB0000328F6D3206C50F010002064606C50F0D4
:100CC00001006064012000E0002032BD38B504005E
:100CD00000202068806810F00300012804D12068FB
:100CE000006810F0010000E0002000282ED02068ED
:100CF000806810F00D0001281ED12068806850F037
:100D000002002168886003202168086001F09AF8D9
:100D1000050020688068C00718D501F093F8401BD3
:100D20000328F6D3206C50F010002064606C50F063
:100D30000100606401200AE0206C50F01000206483
:100D4000606C50F001006064012000E0002032BDC2
:100D50009000002040420F000004005000050050A9
:100D600000010050E0F0FFFF18B589B00C2200210F
:100D700006A801F06DF818220021684601F068F815
:100D8000DFF800465FF0A040206000206060002097
:100D9000A0600120206101206076002084F82000FE
:100DA0000020E0620120A0620020E0600A20E061F3
:100DB000012084F8300008206061002020760020A7
:100DC00060632000FFF7E0F9002801D001F028F966
:100DD0000020069006A92000FFF748FE002801D059
:100DE00001F01EF9062000900120019000200390E0
:100DF0000120029000200490002005906946200008
:100E0000FFF716FC002801D001F00AF90720009036
:100E10000220019069462000FFF70AFC002801D05B
:100E200001F0FEF8082000900320019069462000A0
:100E3000FFF7FEFB002801D001F0F2F80920009036
:100E40000420019069462000FFF7F2FB002801D042
:100E500001F0E6F80A200090052001906946200084
:100E6000FFF7E6FB002801D001F0DAF8012000903E
:100E70000620019069462000FFF7DAFB002801D028
:100E800001F0CEF802200090072001906946200072
:100E9000FFF7CEFB002801D001F0C2F8032000903C
:100EA0000820019069462000FFF7C2FB002801D00E
:100EB00001F0B6F804200090092001906946200056
:100EC000FFF7B6FB002801D001F0AAF8052000903A
:100ED0000A20019069462000FFF7AAFB002801D0F4
:100EE00001F09EF80AB010BD10B586B0182200219E
:100EF000684600F0ADFFDFF89044DFF89004206012
:100F0000002060600020A060012020610120607648
:100F1000002084F820000020E0620120A062002070
:100F2000E0600220E061012084F830000820606168
:100F300000202076002060632000FFF725F90028BC
:100F400001D001F06DF801200090012001900020F7
:100F50000390012002900020049000200590694633
:100F60002000FFF765FB002801D001F059F80220AE
:100F700000900220019069462000FFF759FB0028ED
:100F800001D001F04DF806B010BD10B586B01822A2
:100F90000021684600F05CFFDFF8F443DFF8F4035B
:100FA0002060002060600020A060012020610120FE
:100FB0006076002084F820000020E0620120A0621A
:100FC0000020E0600D20E061012084F8300008205E
:100FD000606100202076002060632000FFF7D4F8D5
:100FE000002801D001F01CF806200090012001909B
:100FF0000020039001200290002004900020059022
:1010000069462000FFF714FB002801D001F008F822
:10101000012000900220019069462000FFF708FBA4
:10102000002801D000F0FCFF022000900320019076
:1010300069462000FFF7FCFA002801D000F0F0FF1D
:10104000032000900420019069462000FFF7F0FA89
:10105000002801D000F0E4FF04200090052001905A
:1010600069462000FFF7E4FA002801D000F0D8FF1D
:10107000052000900620019069462000FFF7D8FA6D
:10108000002801D000F0CCFF0C2000900720019038
:101090000020029069462000FFF7CAFA002801D01C
:1010A00000F0BEFF0D20009008200190012002906A
:1010B00069462000FFF7BCFA002801D000F0B0FF1D
:1010C000072000900920019069462000FFF7B0FA40
:1010D000002801D000F0A4FF082000900A20019011
:1010E00069462000FFF7A4FA002801D000F098FF1D
:1010F000092000900B20019069462000FFF798FA24
:10110000002801D000F08CFF0A2000900C200190F4
:1011100069462000FFF78CFA002801D000F080FF1C
:101120000B2000900D20019069462000FFF780FA07
:10113000002801D000F074FF06B010BD38B586B0AD
:10114000040014220021684600F082FE2068B0F1FD
:10115000A04F68D190480168491C016000680128CF
:1011600009D18E48016851F080510160006810F08B
:101170008050059005988948016851F4002101606C
:10118000016811F4002105910599016851F480016D
:101190000160016811F4800105910599016851F41D
:1011A00000310160006810F40030059005980F20B0
:1011B000009003200190002002906946784800F0DA
:1011C0004DFF1420009003200190002002906946FA
:1011D000744800F043FF0F2000900320019000208E
:1011E000029069465FF0904000F038FF6E4D6F4806
:1011F0002860002068600020A8608020E8604FF42C
:10120000807028614FF4806068612020A861002010
:10121000E861280000F0DAF8002801D000F000FFB3
:10122000A5636C62ACE020685849884242D15A48B4
:101230000168491C01600068012809D1574801680C
:1012400051F080510160006810F0805005900598C1
:101250005248016851F400310160006810F4003018
:101260000590059830200090032001900020029006
:1012700069465FF0904000F0F1FE4D4D4D4828600A
:10128000002068600020A8608020E8604FF4807033
:1012900028614FF4806068612020A8610020E86127
:1012A000280000F093F8002801D000F0B9FEA563F3
:1012B0006C6265E020683749884261D1374801682F
:1012C00051F000510160016811F00051059105993C
:1012D000016851F400110160016811F400110591D9
:1012E0000599016851F480210160016811F48021A1
:1012F00005910599016851F480110160006810F4AE
:101300008010059005984FF4414000900320019013
:10131000002002906946284800F0A0FE4FF450409B
:10132000009003200190002002906946234800F0BD
:1013300095FE4FF4FE4000900320019000200290A3
:1013400069461F4800F08AFE1E4D1F482860002095
:1013500068600020A8608020E8604FF480702861F9
:101360004FF4806068612020A8610020E8612800B7
:1013700000F02CF8002801D000F052FEA5636C624A
:1013800007B030BDA0560020F056002000010050EC
:101390004057002000050050445C0020141002401B
:1013A0000008004800140048885A00200800024045
:1013B000CC5A0020080402400010004800040048F5
:1013C000000C0048105B00201C04024010B5040013
:1013D0000020002C01D1012022E0022084F821000D
:1013E000206801686FF30D116268A0680243E0682D
:1013F00002432069024360690243A0690243E06935
:101400000243114320680160200000F012F900201F
:10141000A063012084F82100002084F8200000202F
:1014200010BD70B50400002594F82000012801D1FA
:10143000022037E0012084F8200094F821000128E0
:101440002AD1022084F821000020A06320680068CF
:101450004008400026683060200000F0D4F8E06AC0
:10146000002806D02068006850F00E00216808604F
:101470000BE02068006850F00A00216808602068CE
:10148000006830F00400216808602068006850F0AF
:1014900001002168086003E0002084F82000022594
:1014A0002800C0B270BD90F82110022906D0042196
:1014B0008163002180F82010012017E0016809688D
:1014C00031F00E010268116001680968490849009D
:1014D000026811600122016C8A40C16B4A600121DF
:1014E00080F82110002180F820100020704710B5EE
:1014F000002490F82110022903D0042181630124E3
:101500001BE00168096831F00E0102681160016892
:10151000096849084900026811600122016C8A408B
:10152000C16B4A60012180F82110002180F8201051
:10153000416B002901D0416B88472000C0B210BD2B
:1015400010B5C16B0B6801680C680422016C12FABB
:1015500001F10B4215D0610713D5016809688906AE
:1015600005D40168096831F0040103681960016C51
:101570008A40C16B4A60C16A002943D0C16A88476A
:1015800040E00222016C12FA01F10B421BD0A107CC
:1015900019D501680968890608D40168096831F01D
:1015A0000A0103681960012180F82110016C8A404A
:1015B000C16B4A60002180F82010816A002921D087
:1015C000816A88471EE00822016C8A40134219D0C4
:1015D000210717D50168096831F00E010268116012
:1015E0000122016C8A40C16B4A60012181630121A3
:1015F00080F82110002180F82010016B002901D013
:10160000016B884710BD30B40125046CA540C46B44
:101610006560046863604368102B04D103689A60B6
:101620000068C16003E0036899600068C26030BC74
:10163000704701680C4A91420AD202680B498A1825
:101640001421B2FBF1F1890001640949C16309E089
:10165000026808498A181421B2FBF1F1890001647B
:101660000549C1637047000008040240F8FFFDBF50
:1016700000000240F8FBFDBF00040240DFF87437B1
:101680000360DFF87407086080201060704780B541
:101690008EB007A8DFF864171C2200F0DFFD0021E0
:1016A00007A800F02FFEDFF8581708606846DFF83B
:1016B00054171C2200F0D2FD0021684600F022FEE3
:1016C000DFF8441708600FB000BD1CB504220021EC
:1016D000684600F0BDFB042401221021DFF82C072E
:1016E00000F08FFD00228021DFF8240700F089FD43
:1016F0001422DFF82017DFF82007FEF7BBFE0422D4
:10170000DFF81817DFF81807FEF7B4FE1A22DFF823
:101710001417DFF81407FEF7ADFEDFF810070178A5
:101720008DF8001069460278521C4A700278921CAB
:101730008A700078C01CC87000224FF400415FF02E
:10174000904000F05EFD6423220092B26946DFF80B
:10175000E00600F093FE01224FF400415FF090405C
:1017600000F04FFD012000F0FCFDD6E780B5DFF86A
:10177000C40600210091036803224168C9B2002019
:1017800001F0E6FA01F031FB01F03FFBFCE77047A6
:101790000020C0B2704710B4020000200C00A4B2B8
:1017A000002C00D0491EDBB2002B03D0012B00F02F
:1017B00042821BE389B200296FD002296FD06DD31A
:1017C00004296ED06CD306296DD06BD308296CD058
:1017D0006AD30A296BD069D30C296AD068D30E2941
:1017E00069D067D3102968D066D3122967D065D332
:1017F000142966D064D3162965D063D3182964D020
:1018000062D31A2963D061D31C2962D060D31E2908
:1018100061D05FD3202960D05ED322295FD05DD311
:1018200024296ED05CD3262900F08D807AD3282914
:1018300000F0AB80C0F098802A2900F0C880C0F08A
:10184000B5802C2900F0E580C0F0D2802E2900F070
:101850000281C0F0EF80302900F01F81C0F00C81C0
:10186000322900F03C81C0F02981342900F05981EF
:10187000C0F04681362900F07681C0F063813829B6
:1018800000F09381C0F080813A2900F0B081C0F06F
:101890009D813B2900F0BC81CBE1CBE1CAE1C9E1EC
:1018A000C8E1C7E1C6E1C5E1C4E1C3E1C2E1C1E10C
:1018B000C0E1BFE1BEE1BDE1BCE1BBE1BAE1B9E13C
:1018C000B8E1B7E1B6E1B5E1B4E1B3E1B2E1B1E16C
:1018D000B0E1AFE1AEE1ADE1ACE1ABE1AAE1A9E19C
:1018E0005178002906D1DFF844150A6852F0010248
:1018F0000A6005E0DFF834150A68520852000A60F1
:1019000098E15178002906D1DFF820150A6852F0D5
:1019100002020A6005E0DFF814150A6832F00202DC
:101920000A6087E15178002906D1DFF800150A68BE
:1019300052F004020A6005E0DFF8F0140A6832F0A1
:1019400004020A6076E15178002906D1DFF8DC1440
:101950000A6852F008020A6005E0DFF8D0140A684D
:1019600032F008020A6065E15178002906D1DFF8FB
:10197000BC140A6852F010020A6005E0DFF8AC14EB
:101980000A6832F010020A6054E15178002906D149
:10199000DFF898140A6852F020020A6005E0DFF8C8
:1019A0008C140A6832F020020A6043E15178002961
:1019B00006D1DFF878140A6852F040020A6005E0A8
:1019C000DFF868140A6832F040020A6032E15178A8
:1019D000002906D1DFF854140A6852F080020A6028
:1019E00005E0DFF848140A6832F080020A6021E15D
:1019F0005178002906D1DFF834140A6852F4807255
:101A00000A6005E0DFF824140A6832F480720A6084
:101A100010E15178002906D1DFF810140A6852F459
:101A200000720A6005E0DFF804140A6832F40072FC
:101A30000A60FFE05178002906D1DFF8F0130A6848
:101A400052F480620A6005E0DFF8E0130A6832F4BD
:101A500080620A60EEE05178002906D1DFF8CC13ED
:101A60000A6852F400620A6005E0DFF8C0130A68F1
:101A700032F400620A60DDE05178002906D1DFF817
:101A8000AC130A6852F480520A6005E0DFF89C1338
:101A90000A6832F480520A60CCE05178002906D1FD
:101AA000DFF888130A6852F400520A6005E0DFF894
:101AB0007C130A6832F400520A60BBE051780029B6
:101AC00006D1DFF868130A6852F480420A6005E024
:101AD000DFF858130A6832F480420A60AAE05178AD
:101AE000002906D1DFF844130A6852F400420A6064
:101AF00005E0DFF838130A6832F400420A6099E022
:101B00005178002906D1DFF824130A6852F4803294
:101B10000A6005E0DFF814130A6832F480320A60C4
:101B200088E05178002906D1DFF800130A6852F4E2
:101B300000320A6005E0DFF8F4120A6832F400327D
:101B40000A6077E05178002906D1DFF8E0120A68D0
:101B500052F480220A6005E0DFF8D0120A6832F4FD
:101B600080220A6066E05178002906D1DFF8BC12B5
:101B70000A6852F400220A6005E0DFF8B0120A6831
:101B800032F400220A6055E05178002906D1DFF8CE
:101B90009C120A6852F480120A6005E0DFF88C1289
:101BA0000A6832F480120A6044E05178002906D1B4
:101BB000DFF878120A6852F400120A6005E0DFF8D4
:101BC0006C120A6832F400120A6033E0517800297E
:101BD00006D1DFF858120A6852F480020A6005E064
:101BE000DFF848120A6832F480020A6022E0517875
:101BF000002906D1DFF834120A6852F400020A60A4
:101C000005E0DFF828120A6832F400020A6011E0E9
:101C10005178002906D1DFF814120A6852F0807258
:101C20000A6005E0DFF804120A6832F080720A6088
:101C300000E00120DBE089B2002900F08080022969
:101C400000F07F807CD304297DD07BD306297CD013
:101C50007AD308297BD079D30A297AD078D30C2972
:101C600079D077D30E2978D076D3102977D075D351
:101C7000122976D074D3142975D073D3162974D051
:101C800072D3182973D071D31A2972D070D31C293A
:101C900071D06FD31E2970D06ED320296FD06DD331
:101CA00022296ED06CD324296DD06BD326296CD019
:101CB0006AD328296BD069D32A296AD068D32C2902
:101CC00069D067D32E2968D066D3302967D065D311
:101CD000322966D064D3342965D063D3362964D0E1
:101CE00062D3382963D061D33A2962D060D33C29CA
:101CF00061D05FD33E2960D05ED340295FD05DD3F1
:101D000042295ED05CD344295DD05BD346295CD0A8
:101D10005AD348295BD059D34A295AD058D34C2991
:101D200059D057D34E2958D056D3502957D055D3D0
:101D3000522956D054D3542955D053D354E054E0AB
:101D400053E052E051E050E04FE04EE04DE04CE017
:101D50004BE04AE049E048E047E046E045E044E047
:101D600043E042E041E040E03FE03EE03DE03CE077
:101D70003BE03AE039E038E037E036E035E034E0A7
:101D800033E032E031E030E02FE02EE02DE02CE0D7
:101D90002BE02AE029E028E027E026E025E024E007
:101DA00023E022E021E020E01FE01EE01DE01CE037
:101DB0001BE01AE019E018E017E016E015E014E067
:101DC00013E012E011E010E00FE00EE00DE00CE097
:101DD0000BE00AE009E008E007E006E005E004E0C7
:101DE00003E002E001E000E0012000E00220C0B2D8
:101DF00010BC70474C56002098500020E47D00082D
:101E0000485C0020007E00084C5C00200004004874
:101E1000000C0048885B0020A0560020345C0020A5
:101E2000F0560020545B00204057002000000020A6
:101E30002C550020F45500200120704701207047E8
:101E40007047704701480068704700BF905C0020F1
:101E500010B5044610460A460146204601F078F8BF
:101E6000204610BDF8B59EB001F0A6F800F06CF861
:101E700001F0B4F801F048F9FEF776FFFFF785F8B6
:101E800001F072F901F0FEF901F05BFA01F0B8FA25
:101E900001F03CFB01F013FB01F008FFFFF724F811
:101EA00001F0B4FF01F0DAFF01F0BEFB01F02FFCFE
:101EB00001F08DFC01F01BFF13A802F0C7F9504C94
:101EC00013A820604F4AD2E900014F4DD5E9002305
:101ED0004E4DD5E90067CDE90367CDE901230091B7
:101EE000030001224A49206802F04AF8494D2900BE
:101EF000206802F09AF82868002801D1012000E04B
:101F00000020296811F1010F01D1012100E0002119
:101F1000C0B2C9B2084340490978084300280ED02E
:101F20005FF4E13028600D206860290083B06846C6
:101F3000582200F093F90EBC206802F095F8FFF7E4
:101F4000A6FB00F0DAF9FEE780B59EB0282200215A
:101F500005A8FFF77DFF142200216846FFF778FFF0
:101F60003C2200210FA8FFF773FF012005905FF4CA
:101F700080300690002107910121099102210C91E6
:101F80000D905FF4E0100E9005A802F07DF9002896
:101F900001D000F045F80F200090022001900020B1
:101FA00002904FF480600390002004900221684664
:101FB00002F0A4FC002801D000F032F843F28310B4
:101FC0000F9000201190002012904FF498701890FC
:101FD0004FF41850199000201B9000201C900FA85F
:101FE00002F000FE002801D000F01AF81FB000BD7A
:101FF00080B500680949884201D102F01BFF01BD8C
:10200000605C0020EC7E0008F47E0008FC7E000886
:1020100090550020F4550020DC5C002000140040A6
:10202000704730B4002513E050F8042BD30744BFA9
:10203000A9F101039A18091F042942F8045BFAD296
:1020400013468C0744BF15809B1CC90748BF1D70F1
:1020500050F8041B0029E7D130BC7047F8B40200E7
:10206000002433E0052704E0DFF8A8319A42F9D1D3
:10207000042714F00303DBB29B009F403E43230080
:102080009B0845F82360DFF890512B6883434E6826
:10209000F60300D503432B60604D2B6883434E68E5
:1020A000B60300D503432B605D4D2B6883434E6818
:1020B000F60200D503432B605A4D2B6883434E68CC
:1020C000B60201D5184303002B60641C0868E04089
:1020D000002800F094800125086815FA04F31840E0
:1020E0000028F2D04B68012B08D04B68022B05D09A
:1020F0004B68112B02D04B68122B16D19668032720
:102100002300DBB25B009F40BE43CF682300DBB2FD
:102110005B009F403E4396605368A540AB434D68CB
:10212000C5F30015A5402B435360D6680325230053
:10213000DBB25B0015FA03F39E438F682300DBB22A
:102140005B009F403E43D6604B68022B02D04B6839
:10215000122B17D12300DB0802EB83031E6A0F2723
:1021600014F00703DBB29B009F40BE430F6914F0DD
:102170000703DBB29B009F403E432300DB0802EBDA
:1021800083031E6216682300DBB25B009D40AE43F2
:102190000D7915F003052300DBB25B009D402E4353
:1021A00016604B68DB0090D51F4B1D6855F001058C
:1021B0001D601B6813F001030093009B1B4D23005F
:1021C0009B0855F823600F2714F00303DBB29B0034
:1021D0009F40BE43B2F1904F01D1002749E7144B15
:1021E0009A4201D1012744E7124B9A4201D10227BA
:1021F0003FE7114B9A427FF437AF032739E7F1BC31
:102200007047D2B2002A02D089B2816101E089B25E
:10221000816270470010004800040140040401403E
:10222000080401400C04014018100240080001405D
:102230000004004800080048000C004862B38B0707
:1022400008D0521E11F8013B00F8013B00F0248039
:102250008B07F6D1830740F0208000BF103A07D3E8
:1022600030B4B1E83810103AA0E83810F9D230BCD8
:10227000530724BFB1E80810A0E8081044BF51F884
:10228000043B40F8043BD20724BF31F8022B20F86E
:10229000022B44BF0B7803707047121F17D35B00EB
:1022A00009D151F8043B20F8023B1B0C121F20F807
:1022B000023BF6D20BE051F8043B00F8013B1B0A4D
:1022C00020F8023B1B0C121F00F8013BF3D238BF71
:1022D000121D521E24BF11F8013B00F8013BF8D833
:1022E00070470605010000200A0012B2842A03D0BC
:1022F00009B2C91C09180800704780B502F0E8FE51
:10230000002002BD38B584B004000D0060690028CB
:1023100015D0A069002812D0B4F90800FFF7E2FF39
:10232000A16902916169019100902B0022692168E5
:10233000606802F08BFD0390039805B030BDB4F9DE
:102340000800FFF7CFFF03A9019100902B0022693D
:1023500092B22168606802F0BAFD0128ECD000203A
:10236000EBE780B50121B0FBF1F0002800D101209E
:1023700002F088FE002002BD10B50400002C01D13F
:1023800001207AE0606A002806D16068B0F5827F9B
:1023900006D00020E06103E00020206100206061A1
:1023A0000020A06294F85D00002805D1002084F888
:1023B0005C00200001F07AFD022084F85D002068B6
:1023C000006830F0400021680860E06840F2017168
:1023D000884201D3002001E04FF48050E168B1F55C
:1023E000706F05D0E168B1F5E06F01D00021A16206
:1023F000616811F48271A26812F404421143227CD4
:1024000012F002021143227D12F001021143A2696F
:1024100012F400721143227F12F03802114394F833
:10242000202012F080021143A26A12F400521143DC
:1024300022681160A169090C11F0040194F82420AC
:1024400012F01002114394F8342012F008021143E4
:10245000E26812F47062114310F48050084321685E
:1024600048602068C06930F400602168C8610020BD
:102470002066012084F85D00002010BD2DE9F8439E
:1024800006000D0091461C00002796F85C0001280C
:1024900001D10220E4E0012086F85C00FFF7D2FCC5
:1024A0008046494696F85D00012801D00227CFE01A
:1024B000002D03D0484680B2002801D10127C7E093
:1024C000032086F85D0000203066B563A6F83C90D6
:1024D000A6F83E90002030640020A6F844000020BA
:1024E000A6F84600002030650020F064B068B0F522
:1024F000004F0BD13068006830F040003268106047
:102500003068006850F480403268106030680068BD
:10251000400605D43068006850F040003268106012
:10252000F06840F2017290422ED37068002802D009
:1025300089B2012914D1B06B00883168C860B06BD2
:10254000801CB063F08F401EF08709E0B06B0088FC
:102550003168C860B06B801CB063F08F401EF0879C
:10256000F08F00285BD0306880688007EED4FFF7DA
:1025700069FCB0EB0800A04202D314F1010F01D1B5
:10258000002CEDD1032763E07068002802D089B2E7
:10259000012922D1F08F02280AD3B06B008831685C
:1025A000C860B06B801CB063F08F801EF08714E0B1
:1025B000B06B007831680873B06B401CB063F08F6B
:1025C000401EF08709E0B06B00883168C860B06BCE
:1025D000801CB063F08F801EF087F08F00281ED023
:1025E0003068806880070DD5F08F0228EBD2B06B81
:1025F000007831680873B06B401CB063F08F401EE8
:10260000F087EAE7FFF71EFCB0EB0800A04202D318
:1026100014F1010F01D1002CDFD1032718E042464D
:102620002100300000F05FFB002801D02020306640
:10263000B068002808D1002000903068C068009081
:102640003068806800900098306E002800D0012724
:10265000012086F85D00002086F85C003800C0B2DA
:10266000BDE8F2832DE9F84306000D0091461C00F9
:1026700000277068B0F5827F0ED1B06800280BD1BA
:10268000042086F85D0000944B469BB22A00290086
:10269000300000F0B8F8B4E096F85C00012801D1F1
:1026A0000220AEE0012086F85C00FFF7CBFB8046FD
:1026B00096F85D00012801D002279AE0002D03D092
:1026C000484680B2002801D1012792E0042086F814
:1026D0005D00002030663564A6F84490A6F8469068
:1026E0000020B0630020B0870020F0870020F06455
:1026F0000020306540F20170F168814206D33168F4
:10270000496831F480513268516005E031684968A8
:1027100051F4805132685160B168B1F5004F0BD16E
:102720003168096831F04001326811603168096828
:1027300031F480413268116031680968490605D476
:102740003168096851F0400132681160F1688142D6
:102750002DD20BE03068007B316C0870306C401C6F
:102760003064B6F84600401EA6F84600B6F84600AB
:10277000002831D030688068C007EBD4FFF762FBD7
:10278000B0EB0800A04202D314F1010F01D1002CDC
:10279000ECD103272DE03068C068316C0880306CC4
:1027A000801C3064B6F84600401EA6F84600B6F815
:1027B0004600002810D030688068C007EBD4FFF7CF
:1027C00041FBB0EB0800A04202D314F1010F01D18C
:1027D000002CECD103270CE042462100300000F031
:1027E0003FFA002801D020203066306E002800D04B
:1027F0000127012086F85D00002086F85C00380083
:10280000C0B2BDE8F2832DE9F04705008A46140006
:102810005FF00108002695F85C00012801D1022034
:1028200048E19946012085F85C00FFF70BFB0700A3
:1028300095F85D1068684A464B468C465FFA8CFCFA
:10284000BCF1010F0AD0B0F5827F05D1A86800283D
:1028500002D1C9B2042901D0022623E15146002940
:1028600006D02000002803D04C46A4B2002C01D191
:10287000012617E195F85D40042C02D0052485F867
:102880005D4000242C662864A5F84690A5F8449085
:10289000A963A5F83E90A5F83C900020E8640020CC
:1028A000286540F20170E968814202D29BB2022B96
:1028B00006D32968496831F480512B68596005E0D6
:1028C0002968496851F480512B6859602968096862
:1028D000490605D42968096851F040012B68196040
:1028E000089CE96881424DD36868002802D092B202
:1028F000012A09D1A86B00882968C860A86B801CD0
:10290000A863E88F401EE887E88F002804D1B5F857
:102910004600002800F0BC8028688068800711D538
:10292000E88F00280ED0B8F1010F0BD1A86B0088FA
:102930002968C860A86B801CA863E88F401EE887E0
:102940005FF0000828688068C00711D5B5F8460018
:1029500000280DD02868C068296C0880286C801C6D
:102960002864B5F84600401EA5F846005FF001084F
:10297000FFF768FAC01BA042C6D314F1010FC3D001
:1029800003268FE06868002802D092B2012A17D18E
:10299000E88F02280AD3A86B00882968C860A86B52
:1029A000801CA863E88F801EE88709E0A86B007888
:1029B00029680873A86B401CA863E88F401EE8874D
:1029C000E88F002803D1B5F84600002860D02868B9
:1029D000806880071FD5E88F00281CD0B8F1010F50
:1029E00019D1E88F02280AD3A86B00882968C8602B
:1029F000A86B801CA863E88F801EE88709E0A86B9D
:102A0000007829680873A86B401CA863E88F401EF3
:102A1000E8875FF0000828688068C0072CD5B5F803
:102A20004600002828D0B5F84600022816D32868AA
:102A3000C068296C0880286C801C2864B5F84600A2
:102A4000801EA5F84600B5F84600022812D2286874
:102A5000406850F48050296848600BE02868007B8B
:102A6000296C0870286C401C2864B5F84600401E8C
:102A7000A5F846005FF00108FFF7E4F9C01BA0428B
:102A800002D314F1010F01D1002C99D1032609E0E2
:102A90003A002100280000F026F9002802D0012683
:102AA00020202866012085F85D00002085F85C0064
:102AB0003000C0B2BDE8F0872DE9F84305000E00F4
:102AC00017009846089CFFF7BDF9B8EB00002418E2
:102AD000FFF7B8F98146614800684001000D00FB2E
:102AE00004F0009006E00098002800D1002400982F
:102AF000401E0090286880683040B04201D101201B
:102B000000E000203900C9B288423AD018F1010F24
:102B1000F0D0FFF797F9B0EB0900A04201D2002CEA
:102B2000E1D12868406830F0E000296848606868B2
:102B3000B0F5827F0DD1A868B0F5004F03D0A8682A
:102B4000B0F5806F05D12868006830F04000296832
:102B50000860A86AB0F5005F0BD12868006830F4FF
:102B60000050296808602868006850F400502968FF
:102B70000860012085F85D00002085F85C000320D6
:102B800000E00020BDE8F2832DE9F84306000F00C5
:102B900014009846089DFFF755F9B8EB00002D1872
:102BA000FFF750F981462D48016823204143090D64
:102BB00001FB05F1009106E00098002800D10025F6
:102BC0000098401E0090306880683840A04241D094
:102BD000B7F5C06F03D1002C01D13068007B18F12C
:102BE000010FF0D0FFF72EF9B0EB0900A84201D297
:102BF000002DE1D13068406830F0E0003168486075
:102C00007068B0F5827F0DD1B068B0F5004F03D089
:102C1000B068B0F5806F05D13068006830F04000D2
:102C200031680860B06AB0F5005F0BD130680068A9
:102C300030F40050316808603068006850F400508B
:102C400031680860012086F85D00002086F85C008D
:102C5000032000E00020BDE8F28300009000002087
:102C60007CB504000D0016006068B0F5827F0DD1C0
:102C7000A068B0F5004F03D0A068B0F5806F05D113
:102C80002068006830F040002168086000962B0042
:102C9000002280212000FFF70FFF002805D0206EC2
:102CA00050F02000206603201CE06068B0F5827FB1
:102CB00017D1A068B0F5004F03D0A068B0F5806FC1
:102CC0000FD100962B0000224FF4C0612000FFF7C7
:102CD0005BFF002805D0206E50F020002066032006
:102CE00000E0002076BD7CB504000D0016000096C3
:102CF0002B0000224FF4C0512000FFF745FF0028B1
:102D000005D0206E50F02000206603201FE00096C2
:102D10002B00002280212000FFF7CEFE002805D0E6
:102D2000206E50F020002066032010E000962B005B
:102D300000224FF4C0612000FFF726FF002805D0D5
:102D4000206E50F020002066032000E0002076BDB9
:102D500070B5050014001A0000200800C0B2002859
:102D600007D00800C0B2002803D00800C0B2F8287D
:102D700001DB022436E05E4E31702800C0B200282C
:102D800020D1049B5B485C4908605C485C49086052
:102D90005C485D4908605D485D49086000205D4908
:102DA00008605D485D4908605D485E4908605E48AE
:102DB0005E490860DBB22100C9B2307802F0FEFB48
:102DC000040000E002242000C0B200280AD102F072
:102DD00057FD002801D1032404E055480570012067
:102DE000544908702000C0B270BD38B50024514D60
:102DF0002878012805D140480068804700202870C5
:102E000000E006242000C0B232BD7CB50020494855
:102E10000078002801D0062068E0684602F03CFDFA
:102E2000012862D19DF80000002805D002281AD0A0
:102E300003D3032859D058E057E0404C404A414959
:102E40002000334B1B689847C0B200280AD1207875
:102E500027490978884202D02078002802D1022030
:102E600002F013FD41E0384C364D286800782070A0
:102E7000364E01203070002205E013F83200217830
:102E8000884208D0521C102A0CDA2B4B13F832005F
:102E90000028F2D106E02A49286803EBC2025268F2
:102EA000904730702548007800281DD030780028E1
:102EB00012D0234800210180217851F080012A6836
:102EC0000388D1540188491C018031782A6803881D
:102ED000D1540188491C0180194802882968044896
:102EE0000078094B1B689847FFE7002076BD00007B
:102EF000DD5C002003560008685C00201D560008B9
:102F00006C5C00209B560008645C00203156000871
:102F1000705C0020745C0020FB560008785C002088
:102F2000855700087C5C0020F3570008805C002077
:102F3000DE5C00209400002004000020DF5C002004
:102F4000D05C0020845C0020E05C0020E15C00207C
:102F500062F30F2262F31F42401810F0030308D0FF
:102F6000C91A1FD3DB0748BF00F8012D28BF20F87E
:102F7000022D130030B414461546103928BF20E93D
:102F80003C00FAD8490728BF20E90C0048BF40F8A8
:102F9000042D890028BF20F8022D48BF00F8012D1C
:102FA00030BC7047C91818BF00F8012DCB0728BFE7
:102FB00000F8012D7047600080B50748016851F0A6
:102FC00010010160032002F0C9FC002002F0EAFCBD
:102FD00002F028FD002002BD0020024070B586B03E
:102FE000142200216846FEF733FF4348016851F47C
:102FF00000110160016811F4001105910599016843
:1030000051F480010160016811F480010591059976
:10301000016851F400210160016811F4002105915B
:103020000599016851F400310160016811F4003123
:1030300005910599016851F480210160016811F43E
:10304000802105910599016851F4801101600068A3
:1030500010F480100590059800224FF400415FF0B5
:103060009040FFF7CEF8254C002284212000FFF786
:10307000C8F8234D00224FF404712800FFF7C1F86F
:10308000204E002201213000FFF7BBF84FF4004032
:1030900000900120019000200290002003906946DA
:1030A0005FF09040FEF7DAFF84200090012001904D
:1030B000002002900020039069462000FEF7CEFF1A
:1030C0004FF4047000900120019000200290002035
:1030D000039069462800FEF7C1FF012000900120FF
:1030E0000190002002900020039069463000FEF716
:1030F000B5FF06B070BD00BF14100240000C0048C0
:10310000000400480010004880B51648016851F0DE
:1031100001010160016811F001010091009901684D
:1031200051F002010160006810F002000090009868
:10313000002205210B2002F015FC0B2002F023FCDD
:1031400000220521382002F00DFC382002F01BFC83
:1031500000220521392002F005FC392002F013FC81
:1031600001BD00BF1410024018B595B00C2200211B
:103170006846FEF76DFE1C22002103A8FEF768FEDC
:103180002C2200210AA8FEF763FEDFF8BC4ADFF814
:10319000BC0A2060002060600020A0600020E06089
:1031A00000202061002060610020A061200002F06A
:1031B00005FD002801D0FEF733FF0020009000201D
:1031C0000190002002906946200003F071F8002869
:1031D00001D0FEF725FF602003900020049000201E
:1031E0000590002006900020079000200890002005
:1031F0000990002203A9200002F0E7FD002801D079
:10320000FEF70EFF042203A9200002F0DEFD0028D5
:1032100001D0FEF705FF082203A9200002F0D5FD2A
:10322000002801D0FEF7FCFE0C2203A9200002F0CA
:10323000CCFD002801D0FEF7F3FE00200A9000200C
:103240000B9000200C9000200D9000200E904FF469
:1032500000500F9000201090002011905FF000703F
:10326000129000201390002014900AA9200003F06F
:1032700068F8002801D0FEF7D3FE200000F0A3FB81
:1032800016B010BD10B58AB00C2200216846FEF7BA
:10329000DFFD1C22002103A8FEF7DAFDDFF8B049AC
:1032A0005FF080402060002060600020A06000206F
:1032B000E060002020610020A061200002F07EFC80
:1032C000002801D0FEF7ACFE002000900020029004
:1032D0006946200002F0ECFF002801D0FEF7A0FEB6
:1032E00060200390002004900020059000200790AB
:1032F000002203A9200002F068FD002801D0FEF79B
:103300008FFE042203A9200002F05FFD002801D0F7
:10331000FEF786FE082203A9200002F056FD0028D1
:1033200001D0FEF77DFE0C2203A9200002F04DFD26
:10333000002801D0FEF774FE200000F044FB0AB024
:1033400010BD10B58AB00C2200216846FEF780FD42
:103350001C22002103A8FEF77BFDDFF8F848DFF808
:10336000F8082060002060600020A0600020E0607D
:10337000002020610020A061200002F01FFC002836
:1033800001D0FEF74DFE002000900020029069461B
:10339000200002F08DFF002801D0FEF741FE6020E2
:1033A0000390002004900020059000200790002248
:1033B00003A9200002F009FD002801D0FEF730FE2D
:1033C000042203A9200002F000FD002801D0FEF72E
:1033D00027FE082203A9200002F0F7FC002801D0F4
:1033E000FEF71EFE0C2203A9200002F0EEFC0028CE
:1033F00001D0FEF715FE200000F0E5FA0AB010BD7E
:1034000010B58AB00C2200216846FEF721FD1C226F
:10341000002103A8FEF71CFDDFF84048DFF8400854
:103420002060002060600020A0600020E06000209C
:1034300020610020A061200002F0C0FB002801D024
:10344000FEF7EEFD0020009000200290694620006B
:1034500002F02EFF002801D0FEF7E2FD602003906D
:10346000002004900020059000200790002203A96E
:10347000200002F0AAFC002801D0FEF7D1FD0422B2
:1034800003A9200002F0A1FC002801D0FEF7C8FD2E
:10349000082203A9200002F098FC002801D0FEF7C2
:1034A000BFFD0C2203A9200002F08FFC002801D0F0
:1034B000FEF7B6FD200000F086FA0AB010BD1FB579
:1034C0000C2200216846FEF7C3FCDFF89847DFF8BE
:1034D00098072060002060600020A0600020E0606D
:1034E0000020A061200002F0BDFA002801D0FEF704
:1034F00097FD00200090002002906946200002F015
:10350000D7FE002801D0FEF78BFD1FBD18B595B082
:103510000C2200216846FEF79BFC1C22002103A818
:10352000FEF796FC2C2200210AA8FEF791FCDFF89A
:103530003C47DFF83C072060002060600020A0606E
:103540000020E06000202061002060610020A06178
:10355000200002F033FB002801D0FEF761FD0020BF
:10356000009000200190002002906946200002F0A7
:103570009FFE002801D0FEF753FD6020039000203D
:103580000490002005900020069000200790002065
:10359000089000200990002203A9200002F015FCE9
:1035A000002801D0FEF73CFD042203A9200002F010
:1035B0000CFC002801D0FEF733FD082203A92000EF
:1035C00002F003FC002801D0FEF72AFD0C2203A91B
:1035D000200002F0FAFB002801D0FEF721FD0020B8
:1035E0000A9000200B9000200C9000200D900020ED
:1035F0000E904FF400500F9000201090002011907A
:103600005FF00070129000201390002014900AA91F
:10361000200002F096FE002801D0FEF701FD2000F8
:1036200000F0D1F916B010BD18B595B00C220021EC
:1036300007A8FEF70DFC1C2200216846FEF708FCD7
:103640002C2200210AA8FEF703FCDFF82846DFF849
:1036500028062060002060600020A0600020E0605C
:1036600000202061002060610020A061200002F0A5
:10367000A5FA002801D0FEF7D3FC00200790002017
:10368000099007A9200002F013FE002801D0FEF7E0
:10369000C7FC6020009000200190002002900020D4
:1036A0000390002004900020059000200690002246
:1036B0006946200002F089FB002801D0FEF7B0FC2B
:1036C00004226946200002F080FB002801D0FEF7AA
:1036D000A7FC00200A9000200B9000200C900020F6
:1036E0000D9000200E904FF400500F90002010908D
:1036F000002014900AA9200002F023FE002801D027
:10370000FEF78EFC200000F05EF916B010BD10B57B
:1037100092B01C2200210BA8FEF79AFB2C2200215C
:103720006846FEF795FBDFF85445DFF85405206046
:10373000002060600020A0600020E0600020206188
:10374000002060610020A061200002F08BF90028B9
:1037500001D0FEF765FC200002F030FA002801D00D
:10376000FEF75EFC60200B9000200C9000200D9076
:1037700000200E9000200F9000201090002011904B
:1037800000220BA9200002F020FB002801D0FEF748
:1037900047FC0020009000200190002002900020B3
:1037A0000390002004904FF40050059000200690F4
:1037B00000200A906946200002F0C3FD002801D0D5
:1037C000FEF72EFC200000F0FEF812B010BD10B580
:1037D00092B01C2200210BA8FEF73AFB2C220021FC
:1037E0006846FEF735FBDFF89C44DFF89C04206058
:1037F000002060600020A0600020E06000202061C8
:10380000002060610020A061200002F02BF9002858
:1038100001D0FEF705FC200002F0D0F9002801D00D
:10382000FEF7FEFB60200B9000200C9000200D9016
:1038300000200E9000200F9000201090002011908A
:1038400000220BA9200002F0C0FA002801D0FEF7E8
:10385000E7FB002000900020019000200290002053
:103860000390002004904FF4005005900020069033
:1038700000200A906946200002F063FD002801D074
:10388000FEF7CEFB200000F09EF812B010BD81B014
:103890000168DFF8B82391420BD1DFF8F00301682B
:1038A00051F400610160006810F40060009000981D
:1038B00052E00168B1F1804F0BD1DFF8D403016809
:1038C00051F001010160006810F0010000900098C3
:1038D00042E00168DFF8802391420BD1DFF8B003AA
:1038E000016851F002010160006810F002000090D0
:1038F000009831E00168DFF8682391420BD1DFF8CE
:103900009003016851F004010160006810F00400A8
:103910000090009820E00168DFF8542391420BD119
:10392000DFF86803016851F400510160006810F489
:103930000050009000980FE00068DFF83C138842C8
:103940000AD1DFF84803016851F480310160006852
:1039500010F480300090009801B0704781B0016889
:10396000DFF8042391420BD1DFF82403016851F002
:1039700010010160006810F010000090009820E035
:103980000168DFF8FC2291420BD1DFF800030168E7
:1039900051F400310160006810F40030009000988C
:1039A0000FE00068DFF8E01288420AD1DFF8DC029D
:1039B000016851F480210160006810F480200090BB
:1039C000009801B0704710B586B0040014220021A1
:1039D0006846FEF73DFA20689C49884233D1DFF8FB
:1039E000B402016851F400110160016811F4001182
:1039F00005910599016851F400310160006810F4E7
:103A00000030059005984FF4285000900220019056
:103A100000200290002003900220049069469E48F6
:103A2000FEF71CFB4FF40060009002200190002084
:103A30000290002003900B20049069465FF09040B4
:103A4000FEF70CFBFEE02068B0F1804F30D19148CA
:103A5000016851F480210160016811F48021059111
:103A60000599016851F480110160006810F480101C
:103A7000059005984FF440600090022001900020CE
:103A80000290002003900120049069468348FEF7CD
:103A9000E5FA1820009002200190002002900020FA
:103AA00003900220049069467D48FEF7D7FAC9E0EA
:103AB00020686949884218D17648016851F400119C
:103AC0000160006810F40010059005983C200090FB
:103AD0000220019000200290002003900220049018
:103AE00069466D48FEF7BAFAACE020685C49884246
:103AF00031D16848016851F480110160016811F406
:103B0000801105910599016851F4802101600068D8
:103B100010F48020059005984FF40040009002209A
:103B2000019000200290002003900220049069463A
:103B30005B48FEF793FA4FF4E0700090022001908A
:103B40000020029000200390022004906946534810
:103B5000FEF784FA76E020684549884219D14D483D
:103B6000016851F400210160006810F40020059004
:103B700005984FF470700090022001900020029090
:103B8000002003900420049069464648FEF766FA38
:103B900058E020683849884219D13E48016851F4FC
:103BA00080010160006810F48000059005984FF4D2
:103BB000C06000900220019000200290002003903D
:103BC0000320049069463848FEF748FA3AE0206836
:103BD0002B49884219D12F48016851F40031016006
:103BE000006810F4003005900598402000900220F5
:103BF000019000200290002003900120049069466B
:103C00005FF09040FEF72AFA1CE020681E498842C7
:103C100018D12048016851F400310160006810F4A7
:103C2000003005900598802000900220019000202F
:103C30000290002003900120049069465FF09040BC
:103C4000FEF70CFA06B010BDDC570020002C014036
:103C5000285800207458002000040040C05800205C
:103C6000000800400C590020001000405859002066
:103C700000340140A459002000400140F0590020C8
:103C8000004401403C5A0020004801401810024006
:103C90001C100240141002400010004800040048AC
:103CA000000C0048000800480014004880B54F4848
:103CB0004F4901604FF416414160002181600021AD
:103CC000C160002101610C2141610021816100215D
:103CD000C161002101620021416200230022002114
:103CE00002F082FB002801D0FEF79AF901BD80B5F1
:103CF0004048414901604FF4164141600021816014
:103D00000021C160002101610C214161002181611C
:103D10000021C161002101620021416202F0AEFB7D
:103D2000002801D0FEF77CF901BD10B586B0040073
:103D3000142200216846FEF78BF820682C4988423F
:103D40002CD12E48016851F480410160006810F4C4
:103D50008040059005982A48016851F400310160BF
:103D6000006810F40030059005984FF4B0500090B2
:103D7000022001900020029003200390072004906D
:103D800069465FF09040FEF769F900220521252081
:103D900001F0E8FD252001F0F6FD25E02068164938
:103DA000884221D11748016851F400310160006850
:103DB00010F40030059005981148016851F4801105
:103DC0000160006810F48010059005986020009054
:103DD000022001900020029003200390072004900D
:103DE00069460948FEF73AF906B010BD2454002090
:103DF00000380140A8540020004400401810024040
:103E0000141002401C100240000C004880B55348BA
:103E1000534901604FF482714160002181604FF489
:103E2000E061C16000210161002141614FF4007136
:103E300081611821C16100210162002141620021DC
:103E400081620721C1620021016308214163FEF7FD
:103E500093FA002801D0FEF7E3F801BD80B5414890
:103E6000414901604FF482714160002181604FF44B
:103E7000E061C16000210161002141614FF40071E6
:103E800081610821C161002101620021416200219C
:103E900081620721C1620021016308214163FEF7AD
:103EA0006BFA002801D0FEF7BBF801BD10B586B053
:103EB0000400142200216846FDF7CAFF2068284943
:103EC000884222D12948016851F48051016000687C
:103ED00010F48050059005982548016851F4802120
:103EE0000160006810F4802005900598282000905B
:103EF00002200190002002900320039005200490EE
:103F000069461C48FEF7AAF826E020681649884250
:103F100022D11948016851F400410160006810F491
:103F20000040059005981248016851F40021016095
:103F3000006810F40020059005984FF4E0500090C0
:103F4000022001900020029003200390062004909C
:103F500069460A48FEF782F806B010BD2C550020CD
:103F60000030014090550020003C004018100240F5
:103F700014100240000400481C10024000080048D1
:103F800008B4FCB50C00DDE90967C0E90667DDE9A6
:103F90000767C0E90467DDE90B67C0E90867C4602B
:103FA000026001A9B14A13680B606946B04A136800
:103FB0000B600100002208E08B5C00EB02056B71D6
:103FC0008B5C00EB02056B72521C032AF4DB0122AE
:103FD000BDF828100998FEF714F90122BDF8301039
:103FE0000B98FEF70EF90122BDF820100798FEF796
:103FF00008F90022BDF820100798FEF702F90A23FD
:10400000012201A92000FEF739FA0A23012269469C
:104010002000FEF727FB0122BDF820100798FEF7CD
:10402000F0F80120F6BC5DF808FB70B504000D0047
:1040300058260022A18A2069FEF7E3F80A23042209
:10404000211DE068FEF71AFA0A23320092B2290015
:10405000E068FEF707FB05000122A18A2069FEF750
:10406000D0F884F8285070BD0EB470B5A3B0040029
:10407000582527AE8022002103A8FDF7E9FE7D48E0
:1040800000788DF801007C4800788DF800007B48AE
:1040900000788DF802000522002101A8FDF7D8FE66
:1040A0000022A18A2069FEF7ACF80A2301220DF153
:1040B0000101E068FEF7E2F90122A18A2069FEF71A
:1040C000A0F80022A18A2069FEF79BF80A230122AA
:1040D0006946E068FEF7D2F90A23022201A9E068E6
:1040E000FEF7C0FA0122A18A2069FEF78AF80022B1
:1040F000A18A2069FEF785F80A2301220DF1020149
:10410000E068FEF7BBF90122A18A2069FEF779F881
:104110000022A18A2069FEF774F80A230122694669
:10412000E068FEF7ABF90A23022201A9E068FEF776
:1041300099FA0122A18A2069FEF763F80022A18A78
:104140002069FEF75EF80A230422211DE068FEF7CD
:1041500095F90A23802203A9E068FEF783FA012279
:10416000A18A2069FEF74DF80022A18A2069FEF796
:1041700048F80A2301220DF10101E068FEF77EF9FB
:104180000122A18A2069FEF73CF80022A18A206959
:10419000FEF737F80A2301226946E068FEF76EF958
:1041A0000A23022201A9E068FEF75CFA0122A18A33
:1041B0002069FEF726F80022A18A2069FEF721F87F
:1041C0000A23042214F10801E068FEF757F964237A
:1041D0002A0092B23100E068FEF750F90122A18A6C
:1041E0002069FEF70EF80022A18A2069FEF709F87F
:1041F0000A2301226946E068FEF740F90A230222F9
:1042000001A9E068FEF72EFA0122A18A2069FDF7D4
:10421000F8FF0022A18A2069FDF7F3FF0A23042298
:10422000211DE068FEF72AF90A23802203A9E0682D
:10423000FEF718FA05000122A18A2069FDF7E1FFC7
:1042400084F8285023B070BC5DF810FB10B5040052
:10425000201D0B490422FDF7F1FF14F10800094964
:104260000422FDF7EBFF200010BD00001C7F0008BA
:10427000207F0008E2220008E3220008B62F000891
:10428000147F0008187F00082DE9F8430400002C73
:1042900001D1012030E32078C00740F1BE80DFF873
:1042A0000009016811F00C0104290AD0016811F01D
:1042B0000C01082928D1006810F48030B0F5803F47
:1042C00022D14FF48040B0FA80F151F02001C9B200
:1042D0004909012903D1DFF8C418096806E0B0FADA
:1042E00080F1B0FA80F1DFF8D0180968B0FA80F0F8
:1042F00010F01F00C140C80740F18F80606800289F
:1043000040F08B800120F7E26068B0F5803F06D175
:10431000DFF88808016851F48031016026E06068A8
:1043200000280AD1DFF87408016831F48031016097
:10433000016831F48021016018E06068B0F5A02FB9
:104340000AD1DFF85808016851F480210160016842
:1043500051F48031016009E0DFF84008016831F470
:1043600080310160016831F480210160DFF840187C
:104370000A6812091201A06802430A6060680028F6
:1043800025D0FDF75FFD05004FF48040B0FA80F1C5
:1043900051F02001C9B24909012903D1DFF8FC1706
:1043A000096806E0B0FA80F1B0FA80F1DFF8081889
:1043B0000968B0FA80F010F01F00C140C8072CD483
:1043C000FDF740FD401B6528DED3032094E2FDF796
:1043D00039FD05004FF48040B0FA80F151F0200122
:1043E000C9B24909012903D1DFF8B017096806E00D
:1043F000B0FA80F1B0FA80F1DFF8BC170968B0FAC2
:1044000080F010F01F00C140C80706D5FDF71AFD67
:10441000401B6528DED303206EE2207880073CD560
:10442000DFF87C07016811F00C0F07D0016811F06C
:104430000C01082960D10068C0035DD45FF08040A2
:10444000B0FA80F151F02001C9B24909012903D124
:10445000DFF84817096806E0B0FA80F1B0FA80F199
:10446000DFF854170968B0FA80F010F01F00C1405F
:10447000C80704D52069012801D001203CE2DFF8FB
:104480001C0701685FF0F852B2FA82F231F0F801CD
:10449000636913FA02F2114301602078000740F1CA
:1044A000C480A069002800F09A8001205FF00041DC
:1044B000B1FA81F1DFF8FC2612EB81021060FDF702
:1044C000C1FC05005FF08040B0FA80F1B0FA80F1E5
:1044D000B0FA80F1DFF8E0160968B0FA80F010F069
:1044E0001F00C140C80700F1A080FDF7ABFC401BD6
:1044F0000328E7D30320FFE1206900283ED00120F4
:104500005FF00041B1FA81F1DFF8B02612EB8102D1
:104510001060FDF797FC05005FF08040B0FA80F175
:1045200051F02001C9B24909012903D1DFF86C1605
:10453000096806E0B0FA80F1B0FA80F1DFF8781689
:104540000968B0FA80F010F01F00C140C80706D417
:10455000FDF778FC401B0328DED30320CCE1DFF815
:104560003C0601685FF0F852B2FA82F231F0F801CD
:10457000636913FA02F2114301608EE700205FF0D5
:104580000041B1FA81F1DFF8342612EB81021060AC
:10459000FDF758FC05005FF08040B0FA80F151F063
:1045A0002001C9B24909012903D1DFF8F0150968D2
:1045B00006E0B0FA80F1B0FA80F1DFF8FC15096886
:1045C000B0FA80F010F01F00C140C8077FF565AF5A
:1045D000FDF738FC401B0328DDD303208CE10020CD
:1045E0005FF00041B1FA81F1DFF8C82512EB8102DA
:1045F0001060FDF727FC05005FF08040B0FA80F105
:10460000B0FA80F1B0FA80F1DFF8AC150968B0FAC1
:1046100080F010F01F00C140C80706D5FDF712FC5E
:10462000401B0328E8D3032066E12078400740F1CF
:10463000B1800026DFF888552868C00009D42868B2
:1046400050F080502860286810F08050009000984A
:104650000126DFF870753868C00511D4386850F449
:1046600080703860FDF7EEFB80463868C00507D4DF
:10467000FDF7E8FBB0EB08006528F6D303203BE12B
:10468000E068012806D1DFF84005016851F001011A
:10469000016025E0E06800280AD1DFF82C050168F8
:1046A000490849000160016831F00401016017E028
:1046B000E06805280AD1DFF81005016851F004010F
:1046C0000160016851F00101016009E0DFF8F804C0
:1046D0000168490849000160016831F00401016086
:1046E000E068002827D0FDF7ADFB07005FF08040B1
:1046F000B0FA80F1B0FA80F151F04001C9B2490935
:10470000022903D1DFF8C014096804E0B0FA80F18F
:10471000DFF8A4140968B0FA80F010F01F00C1405F
:10472000C80730D4FDF78EFBC01B41F289318842A7
:10473000DCD30320E0E0FDF785FB07005FF080405D
:10474000B0FA80F1B0FA80F151F04001C9B24909E4
:10475000022903D1DFF87014096804E0B0FA80F18F
:10476000DFF854140968B0FA80F010F01F00C1405F
:10477000C80708D5FDF766FBC01B41F289318842A6
:10478000DCD30320B8E0F6B2012E03D1286830F064
:1047900080502860E069002800F0AD80DFF80064F8
:1047A000306810F00C00082800F09380E0690228BF
:1047B00061D18027DFF804840020B7FA87F118EB75
:1047C00081010860FDF73EFB81464025B5FA85F082
:1047D00050F02000C0B24009012803D1DFF8BC032B
:1047E000006806E0B5FA85F0B5FA85F0DFF8C80391
:1047F0000068B5FA85F111F01F01C840C00707D560
:10480000FDF720FBB0EB09000328DED3032073E0A3
:10481000316831F47411606A0143206A01433160E8
:104820000120B7FA87F118EB8108C8F80000FDF7FE
:1048300009FB0400B5FA85F050F02000C0B2400931
:10484000012803D1DFF85403006806E0B5FA85F0CB
:10485000B5FA85F0DFF860030068B5FA85F111F06C
:104860001F01C840C00746D4FDF7ECFA001B03281F
:10487000E0D3032040E000208021B1FA81F1DFF88D
:104880003C2312EB81021060FDF7DCFA04004020AB
:10489000B0FA80F151F02001C9B24909012903D1D0
:1048A000DFF8F812096806E0B0FA80F1B0FA80F19A
:1048B000DFF804130968B0FA80F010F01F00C1405F
:1048C000C80718D5FDF7BEFA001B0328DFD3032065
:1048D00012E0E069012801D101200DE0306810F4F8
:1048E0008031226A914204D110F47010616A8842CA
:1048F00001D0012000E00020BDE8F2832DE9F04165
:1049000004000D000020002C01D10120D2E0DFF8CE
:10491000BC62306810F00700A8420BD23068C008B3
:10492000C00028433060306810F00700A84201D072
:104930000120BFE02078800707D5DFF864120A68FD
:1049400032F0F002A06802430A602078C00776D5F2
:10495000606801281DD14FF48040B0FA80F151F019
:104960002001C9B24909012903D1DFF830120968D1
:1049700006E0B0FA80F1B0FA80F1DFF83C12096885
:10498000B0FA80F010F01F00C140C8073CD40120ED
:1049900090E0606802281BD14020B0FA80F151F00D
:1049A0002001C9B24909012902D17C49096806E000
:1049B000B0FA80F1B0FA80F1DFF8FC110968B0FAC2
:1049C00080F010F01F00C140C8071DD4012071E025
:1049D0005FF08040B0FA80F151F02001C9B249097E
:1049E000012902D16D49096805E0B0FA80F1B0FAF9
:1049F00080F171490968B0FA80F010F01F00C140E1
:104A0000C80701D4012055E0654F3968890889003D
:104A1000606801433960FDF715FA8046386810F088
:104A20000C006168B0EB810F09D0FDF70BFAB0EB19
:104A3000080041F289318842F0D303203AE030681F
:104A400010F0070085420BD23068C008C000284330
:104A50003060306810F00700A84201D0012029E042
:104A60002078400706D54E490A6832F4E062E068D3
:104A700002430A602078000707D54948016831F4ED
:104A80006051226951EAC201016000F015F8444901
:104A900009684F4A11F0F0015FF07063B3FA83F3D5
:104AA000D940515CC840404908604048006800F067
:104AB00079FF0020BDE8F08110B400200020002024
:104AC000002000203648016811F00C00042802D0B4
:104AD000082802D021E0334820E03E4811F470124B
:104AE0004FF47053B3FA83F3DA40805C304A1268B3
:104AF000394B12F00F025FF07044B4FA84F4E240D4
:104B00009A5CC90306D52749B1FBF2F201001000F7
:104B1000484301E03149484300E0224810BC704757
:104B200021480068704780B5FFF7FAFF1C49096803
:104B30002B4A11F4E0615FF46003B3FA83F3D940C8
:104B4000515CC84002BD80B5FFF7EAFF144909680F
:104B5000234A11F460515FF4E013B3FA83F3D940B0
:104B6000515CC84002BD0F2202600D4A136813F069
:104B700003034360136813F0F0038360136813F4B6
:104B8000E063C3601268D20812F4E06202610F4869
:104B9000006810F007000860704700000010024035
:104BA0000410024000127A00900000208C000020C7
:104BB0002C10024080044242241002400000424275
:104BC0001C100240007000402010024000200240F3
:104BD000A87E0008887E0008987E000800093D0035
:104BE000047F00082DE9FC4104000020002000267D
:104BF0002068C0037CD5DFF81C522868C00009D4A7
:104C0000286850F080502860286810F0805000908C
:104C100000980126DFF800723868C00511D43868A2
:104C200050F480703860FDF70DF980463868C00593
:104C300007D4FDF707F9B0EB08006528F6D3032089
:104C4000E6E0DFF8D871386810F44070002842D0F0
:104C5000616811F4407188423DD0386830F440708A
:104C6000DFF8BC114FF400420123B2FA82FC11EBD1
:104C70008C0CCCF800300023B2FA82F211EB8201E6
:104C80000B603860C00726D5FDF7DCF880465FF082
:104C90008040B0FA80F1B0FA80F151F04001C9B221
:104CA0004909022901D1396804E0B0FA80F1DFF83E
:104CB00074110968B0FA80F010F01F00C140C807F5
:104CC00009D4FDF7BFF8B0EB080041F28931884202
:104CD000DDD303209CE0396831F440716068014302
:104CE0003960F6B2012E03D1286830F08050286078
:104CF0002078C00707D5DFF830110A6892089200C3
:104D0000A06802430A602078800707D5DFF81811F1
:104D10000A6832F44032E06802430A6020784007B3
:104D200007D5DFF804110A6832F4402220690243F3
:104D30000A602078800607D5DFF8EC100A6832F0A8
:104D40001002E06902430A602068800307D5DFF89B
:104D5000DC100A6832F48002A06B02430A602078FB
:104D6000400607D5DFF8C0100A6832F02002206A3A
:104D700002430A602078000707D5DFF8AC100A6804
:104D800032F44012606902430A602078C00607D5F9
:104D9000DFF894100A6832F44002A06902430A6006
:104DA0002068800507D5DFF884100A6832F4000215
:104DB000E06A02430A602078000607D5DFF8701029
:104DC0000A6832F4F872606A02430A602068C0051B
:104DD00007D5DFF85C100A6832F47852A06A024303
:104DE0000A602068C00407D5DFF83C100A6832F476
:104DF0008072206B02430A602068800407D5DFF8C8
:104E000028100A6832F40072606B02430A600020C6
:104E1000BDE8F6811C1002400070004020100240E6
:104E200000044242241002403010024004100240AC
:104E30002C10024003480168034A12788918016067
:104E4000704700BF905C00209500002078B585B0C9
:104E500005000B98002807D1502080F31188BFF37C
:104E60004F8FBFF36F8FFEE70C9C002C07D15020B3
:104E700080F31188BFF34F8FBFF36F8FFEE7542687
:104E80000096009E542E07D0502080F31188BFF367
:104E90004F8FBFF36F8FFEE7002C13D0002811D087
:104EA0002063022084F8510000200390029404A89B
:104EB00001900A980090280000F042F8200000F0CD
:104EC00094F801E000200490049806B070BD2DE92C
:104ED000F84384B00700884616009946300080B237
:104EE000800001F027FF0500002D0BD0542001F0B9
:104EF00021FF0400002C01D0256304E0280001F00C
:104F0000A3FF00E00024002C15D0002084F85100FD
:104F10000020039002940D9801900C9800904B464D
:104F2000B6B232004146380000F00AF8200000F026
:104F30005CF8012001E05FF0FF3005B0BDE8F083D0
:104F40002DE9F84305001E000A9F386B00EB820034
:104F5000B0F104085FEAD8085FEAC80818F0070053
:104F6000002807D0502080F31188BFF34F8FBFF384
:104F70006F8FFEE7002200E0521C102A07D2885CE7
:104F800007EB020383F83400885C0028F4D1DDF8D5
:104F90002090002087F84300B9F1070F01D35FF09C
:104FA0000609099CC7F82C90C7F844900020B86403
:104FB000381D01F0FEFF17F1180001F0FAFF3F6104
:104FC000D9F10709C7F818907F620020F864002023
:104FD00087F8500032002900404602F027F8386078
:104FE000002C00D02760BDE8F18338B5040002F042
:104FF000ADF8DFF8C0130868401C0860DFF8B8534C
:105000002868002806D12C60086801280DD100F01E
:10501000EDF90AE0DFF8C8030068002805D1E06A6E
:105020002968C96A884200D32C60DFF8B803016898
:10503000491C0160DFF8B0130A680123E06A83406D
:105040001A430A60211DDFF8F423E36A1420434366
:1050500002EB030001F0B0FF02F092F8DFF88003EA
:10506000006800280DD02868C06AE16A884208D22A
:105070005FF08050DFF878140860BFF34F8FBFF304
:105080006F8F31BD10B504000020002C14D0DFF864
:105090005C040068002807D0502080F31188BFF31B
:1050A0004F8FBFF36F8FFEE700F059F8002120000B
:1050B00000F038FA00F059F8002808D15FF080506D
:1050C000DFF82C140860BFF34F8FBFF36F8F10BD54
:1050D00010B586B0002004900020039005AA03A913
:1050E00004A8FCF7CBFADFF8144404980290039864
:1050F0000190002000900023059ADFF804140FF2BD
:10510000BD20FFF7A3FE20602068002801D0012009
:1051100000E00020012817D1502080F31188BFF350
:105120004F8FBFF36F8F5FF0FF30DFF8DC13086045
:105130000120DFF8AC1208600020DFF8D01308600F
:1051400001F09DFF06B010BD10F1010FFAD1502003
:1051500080F31188BFF34F8FBFF36F8FFEE7DFF847
:105160008C030168491C0160704770B5002400255C
:10517000DFF878633068002807D1502080F3118869
:10518000BFF34F8FBFF36F8FFEE701F0DFFF306893
:10519000401E30603068002855D1DFF818020068E2
:1051A000002826D14FE0C868C46814F1180001F047
:1051B0002AFF201D01F027FFDFF82C120A680123C7
:1051C000E06A83401A430A60211DDFF87022E36A17
:1051D0001420434302EB030001F0EEFEE06ADFF827
:1051E000D8110968C96A884203D30120DFF8301357
:1051F0000860DFF8101308680028D4D1002C01D013
:1052000000F05FF9DFF808633468002C0CD000F080
:105210001EF8002803D00120DFF804130860641E84
:10522000002CF4D100203060DFF8F4020068002880
:1052300009D001255FF08050DFF8B4120860BFF399
:105240004F8FBFF36F8F01F09BFF280070BDF8B543
:105250000025DFF898020068002867D1DFF8AC026B
:105260000468641C0460002C1AD1DFF8A8120868D6
:105270000068002807D0502080F31188BFF34F8FBB
:10528000BFF36F8FFEE70868DFF88C2213680B60AE
:105290001060DFF888020168491C016000F011F914
:1052A000DFF864623068844230D322E0381D01F0B8
:1052B000AAFEB86A002803D017F1180001F0A3FE77
:1052C000DFF824110A680123F86A83401A430A6050
:1052D000391DDFF86821FB6A1420434302EB030009
:1052E00001F06AFEF86A34490968C96A884200D345
:1052F0000125DFF8201208680068002812D008682D
:10530000C068C76878688442D0D230602A48006894
:10531000DFF82811C26A14204243885802280AD3B1
:10532000012508E05FF0FF303060EFE7DFF8E001D3
:105330000168491C0160DFF8E8010068002800D01E
:1053400001252800F2BDDFF8A4010068002804D080
:105350000120DFF8CC1108602AE00020DFF8C0113E
:10536000086021480068B0FA80F1D1F11F011422D1
:10537000324B02FB01F01858002807D1502080F36F
:105380001188BFF34F8FBFF36F8FFEE7514303EBDD
:105390000100416849684160416810F1080291428A
:1053A00002D14168496841604068C06802490860AC
:1053B00070470000A45C0020945C002080B500F0E1
:1053C0003FF81E4800680228F9D35FF08050DFF8EC
:1053D00028110860BFF34F8FBFF36F8FEFE7000016
:1053E000B05C0020C05C0020AC5C002038B500241C
:1053F00007E01248142101FB04F1084401F0CAFD42
:10540000641C072CF5D3DFF89841200001F0C2FDA1
:10541000DFF89051280001F0BDFDDFF8E80001F051
:10542000B9FD154801F0B6FD324801F0B3FDDFF8D3
:10543000E4000460DFF87001056031BD985300207E
:1054400038B514E001F082FE0B48C068C468201D26
:1054500001F0D9FDDFF840010168491E01602868AC
:10546000401E286001F08CFE200000F009F8034D7A
:1054700028680028E6D131BD0C5C0020A05C00202B
:1054800010B5040094F85100002806D1206B01F0FB
:10549000DBFC200001F0D8FC10BD94F8510001287D
:1054A00003D1200001F0D0FCF6E794F85100022867
:1054B000F2D0502080F31188BFF34F8FBFF36F8F6E
:1054C000FEE7DFF8501008680068002805D15FF09B
:1054D000FF30DFF83410086006E00868C068C06874
:1054E0004068DFF82410086070470000CC5C0020A2
:1054F00004ED00E0205C002004ED00E0C85C00202A
:105500000C7F0008F85B0020C45C0020A85C002031
:10551000B45C0020985C00209C5C0020BC5C0020F7
:10552000B85C0020F8B505000C001A4806681B4F4F
:105530003868001D01F067FD002807D138681B4955
:105540000A680123C06A83409A430A6015F1010F7B
:1055500007D1002C05D03868011D154801F02CFD3D
:1055600016E0AD1938684560B54206D23868011DAD
:105570000D48006801F02CFD0AE03868011D0D4857
:10558000006801F025FD0C4801688D4200D20560DD
:10559000F1BD0000A85C0020A45C0020945C002009
:1055A000D05B0020E45B00209C5C0020AC5C002011
:1055B000205C0020985C0020C45C002038B5080006
:1055C0001400002572B6DBB208222100C0B201F03F
:1055D0005CFE012801D003250FE044F6013084422F
:1055E00001D3232003E09A486100B0FBF1F080B2C0
:1055F00001F098FE012800D0032562B62800C0B251
:1056000032BD80B572B60020924908700021012099
:1056100001F00EFE01F0ADFE62B601BD80B572B6BE
:105620000021002001F004FE01F0ACFE62B601BDD5
:105630002DE9F84304000D0016000020002772B683
:10564000DFF81482B8F80000B0F5807F06DBA122F5
:105650008249834801F0A6FEAFF30080B8F800004D
:10566000042814DBDFF8FC91B8F80010484601F07C
:10567000ABFE00280BD199F800002070B8F80000AC
:10568000C01E308019F101002860012000E00527CC
:1056900062B63800C0B2BDE8F28338B5002472B6F5
:1056A0006C4B1B78012B23D16F4B491E19606F4D3A
:1056B0000121298019680870288812182A802988F1
:1056C000186801F081FE29884A1C2A80654A89B23F
:1056D000505429884B1C2B8080B2000A89B2505448
:1056E0000120634908700121002001F0A1FD00E0C4
:1056F000052462B62000C0B232BD1CB500245C484F
:105700000078002806D0EB2254495A4801F04AFE9E
:10571000AFF30080684601F0F9FD4E48017800299A
:1057200005D0022919D008D3032903D027E001F0BE
:1057300020FE24E001F01DFE21E0474900220A80FE
:105740000A88531C0B809DF80010464B92B2995466
:105750000221017001F00DFE11E03F490A88B2F507
:10576000807F08DA0888421C0A809DF800103D4AB4
:1057700080B2115401E00321017001F0FAFD200014
:10578000C0B216BD70B5002432480078012807D099
:105790004FF493723149384801F004FEAFF30080B2
:1057A000334E3078002802D0012805D01EE00021B9
:1057B000012001F03DFD19E02C4D288800280BD078
:1057C000294E3068007801F092FD3068401C30604E
:1057D0002888401E288009E0032000F056F80400C5
:1057E0000021012001F024FD002030702000C0B213
:1057F00070BD38B50024174D2878002804D0022841
:1058000007D003280AD00AE0002000F03EF8040088
:1058100016E0012000F039F8040011E010E02878CB
:1058200000280DD0287802280AD02878032807D02D
:105830004FF4B0720949114801F0B4FDAFF3008094
:1058400001F0A0FD012028702000C0B232BD000090
:10585000A07F1700E35C0020D65C00209C7C000841
:10586000707E000898520020885C0020D45C0020E4
:10587000E25C00201C7E0008387E0008E47B000803
:1058800000200C490870012070470121094A11705D
:10589000094908700120704702000020054B197863
:1058A000002905D0044800781070002018700120ED
:1058B000C0B27047E65C0020E55C002010F00700F5
:1058C000334B1A684FF6FF010A40324951EA002172
:1058D0000A431A6070472E480068C0F302207047E0
:1058E000010049B2002908D4012210F01F018A40AA
:1058F000294940B2400941F820207047020052B2C5
:10590000002A04D40901254A40B2115407E00901D4
:10591000234A40B210F00F00104400F8041C7047F6
:1059200010B410F00700D0F10703052B01D30423B6
:1059300001E0D0F10703041D072C01D2002000E094
:10594000C01E012414FA03F35B1E1940814014FAAF
:1059500000F0401E1040084310BC704780B5FFF7B0
:10596000ADFF01BD70B504000D0016000020FFF76B
:10597000B2FF32002900FFF7D3FF0100200040B240
:10598000FFF7BCFF70BD80B540B2FFF7A9FF01BDB6
:105990000CED00E00000FA0500E100E000E400E0AA
:1059A00018ED00E018B587B00100002000200022AB
:1059B0003720FFF7D7FF3720FFF7E5FF15480168CD
:1059C00051F020010160006810F020000090009864
:1059D00001A902A8FFF7C7F8FFF7A5F840000E4994
:1059E000B0FBF1F0401E0D4C0D49216040F2E73153
:1059F000E1606060002020610020A060200000F0D5
:105A000031F8002803D1200000F069F800E00120FF
:105A100008B010BD1C10024040420F0090570020FB
:105A20000014004080B50D48016851F0010101608B
:105A3000006810F00100009000980948016851F0DA
:105A400080510160006810F08050009000980022A2
:105A50000F217FF00100FFF785FF01BD1810024004
:105A60001C10024010B50400002C01D1012035E0CB
:105A700094F83D00002805D1002084F83C00200067
:105A8000FDF76CFF022084F83D00211D206800F026
:105A900047FA012084F84800012084F83E000120E4
:105AA00084F83F00012084F84000012084F8410080
:105AB000012084F84200012084F84300012084F88A
:105AC0004400012084F84500012084F846000120AC
:105AD00084F84700012084F83D00002010BD90F8B4
